{
  "address": "0x4CD725954006cB9d24a4b030DD7E09A3E5FfC843",
  "abi": [
    {
      "inputs": [
        {
          "internalType": "uint256",
          "name": "preOpGas",
          "type": "uint256"
        },
        {
          "internalType": "uint256",
          "name": "paid",
          "type": "uint256"
        },
        {
          "internalType": "uint48",
          "name": "validAfter",
          "type": "uint48"
        },
        {
          "internalType": "uint48",
          "name": "validUntil",
          "type": "uint48"
        },
        {
          "internalType": "bool",
          "name": "targetSuccess",
          "type": "bool"
        },
        {
          "internalType": "bytes",
          "name": "targetResult",
          "type": "bytes"
        }
      ],
      "name": "ExecutionResult",
      "type": "error"
    },
    {
      "inputs": [
        {
          "internalType": "uint256",
          "name": "opIndex",
          "type": "uint256"
        },
        {
          "internalType": "string",
          "name": "reason",
          "type": "string"
        }
      ],
      "name": "FailedOp",
      "type": "error"
    },
    {
      "inputs": [
        {
          "internalType": "address",
          "name": "sender",
          "type": "address"
        }
      ],
      "name": "SenderAddressResult",
      "type": "error"
    },
    {
      "inputs": [
        {
          "internalType": "address",
          "name": "aggregator",
          "type": "address"
        }
      ],
      "name": "SignatureValidationFailed",
      "type": "error"
    },
    {
      "inputs": [
        {
          "components": [
            {
              "internalType": "uint256",
              "name": "preOpGas",
              "type": "uint256"
            },
            {
              "internalType": "uint256",
              "name": "prefund",
              "type": "uint256"
            },
            {
              "internalType": "bool",
              "name": "sigFailed",
              "type": "bool"
            },
            {
              "internalType": "uint48",
              "name": "validAfter",
              "type": "uint48"
            },
            {
              "internalType": "uint48",
              "name": "validUntil",
              "type": "uint48"
            },
            {
              "internalType": "bytes",
              "name": "paymasterContext",
              "type": "bytes"
            }
          ],
          "internalType": "struct IEntryPoint.ReturnInfo",
          "name": "returnInfo",
          "type": "tuple"
        },
        {
          "components": [
            {
              "internalType": "uint256",
              "name": "stake",
              "type": "uint256"
            },
            {
              "internalType": "uint256",
              "name": "unstakeDelaySec",
              "type": "uint256"
            }
          ],
          "internalType": "struct IStakeManager.StakeInfo",
          "name": "senderInfo",
          "type": "tuple"
        },
        {
          "components": [
            {
              "internalType": "uint256",
              "name": "stake",
              "type": "uint256"
            },
            {
              "internalType": "uint256",
              "name": "unstakeDelaySec",
              "type": "uint256"
            }
          ],
          "internalType": "struct IStakeManager.StakeInfo",
          "name": "factoryInfo",
          "type": "tuple"
        },
        {
          "components": [
            {
              "internalType": "uint256",
              "name": "stake",
              "type": "uint256"
            },
            {
              "internalType": "uint256",
              "name": "unstakeDelaySec",
              "type": "uint256"
            }
          ],
          "internalType": "struct IStakeManager.StakeInfo",
          "name": "paymasterInfo",
          "type": "tuple"
        }
      ],
      "name": "ValidationResult",
      "type": "error"
    },
    {
      "inputs": [
        {
          "components": [
            {
              "internalType": "uint256",
              "name": "preOpGas",
              "type": "uint256"
            },
            {
              "internalType": "uint256",
              "name": "prefund",
              "type": "uint256"
            },
            {
              "internalType": "bool",
              "name": "sigFailed",
              "type": "bool"
            },
            {
              "internalType": "uint48",
              "name": "validAfter",
              "type": "uint48"
            },
            {
              "internalType": "uint48",
              "name": "validUntil",
              "type": "uint48"
            },
            {
              "internalType": "bytes",
              "name": "paymasterContext",
              "type": "bytes"
            }
          ],
          "internalType": "struct IEntryPoint.ReturnInfo",
          "name": "returnInfo",
          "type": "tuple"
        },
        {
          "components": [
            {
              "internalType": "uint256",
              "name": "stake",
              "type": "uint256"
            },
            {
              "internalType": "uint256",
              "name": "unstakeDelaySec",
              "type": "uint256"
            }
          ],
          "internalType": "struct IStakeManager.StakeInfo",
          "name": "senderInfo",
          "type": "tuple"
        },
        {
          "components": [
            {
              "internalType": "uint256",
              "name": "stake",
              "type": "uint256"
            },
            {
              "internalType": "uint256",
              "name": "unstakeDelaySec",
              "type": "uint256"
            }
          ],
          "internalType": "struct IStakeManager.StakeInfo",
          "name": "factoryInfo",
          "type": "tuple"
        },
        {
          "components": [
            {
              "internalType": "uint256",
              "name": "stake",
              "type": "uint256"
            },
            {
              "internalType": "uint256",
              "name": "unstakeDelaySec",
              "type": "uint256"
            }
          ],
          "internalType": "struct IStakeManager.StakeInfo",
          "name": "paymasterInfo",
          "type": "tuple"
        },
        {
          "components": [
            {
              "internalType": "address",
              "name": "aggregator",
              "type": "address"
            },
            {
              "components": [
                {
                  "internalType": "uint256",
                  "name": "stake",
                  "type": "uint256"
                },
                {
                  "internalType": "uint256",
                  "name": "unstakeDelaySec",
                  "type": "uint256"
                }
              ],
              "internalType": "struct IStakeManager.StakeInfo",
              "name": "stakeInfo",
              "type": "tuple"
            }
          ],
          "internalType": "struct IEntryPoint.AggregatorStakeInfo",
          "name": "aggregatorInfo",
          "type": "tuple"
        }
      ],
      "name": "ValidationResultWithAggregation",
      "type": "error"
    },
    {
      "anonymous": false,
      "inputs": [
        {
          "indexed": true,
          "internalType": "bytes32",
          "name": "userOpHash",
          "type": "bytes32"
        },
        {
          "indexed": true,
          "internalType": "address",
          "name": "sender",
          "type": "address"
        },
        {
          "indexed": false,
          "internalType": "address",
          "name": "factory",
          "type": "address"
        },
        {
          "indexed": false,
          "internalType": "address",
          "name": "paymaster",
          "type": "address"
        }
      ],
      "name": "AccountDeployed",
      "type": "event"
    },
    {
      "anonymous": false,
      "inputs": [],
      "name": "BeforeExecution",
      "type": "event"
    },
    {
      "anonymous": false,
      "inputs": [
        {
          "indexed": true,
          "internalType": "address",
          "name": "account",
          "type": "address"
        },
        {
          "indexed": false,
          "internalType": "uint256",
          "name": "totalDeposit",
          "type": "uint256"
        }
      ],
      "name": "Deposited",
      "type": "event"
    },
    {
      "anonymous": false,
      "inputs": [
        {
          "indexed": true,
          "internalType": "address",
          "name": "aggregator",
          "type": "address"
        }
      ],
      "name": "SignatureAggregatorChanged",
      "type": "event"
    },
    {
      "anonymous": false,
      "inputs": [
        {
          "indexed": true,
          "internalType": "address",
          "name": "account",
          "type": "address"
        },
        {
          "indexed": false,
          "internalType": "uint256",
          "name": "totalStaked",
          "type": "uint256"
        },
        {
          "indexed": false,
          "internalType": "uint256",
          "name": "unstakeDelaySec",
          "type": "uint256"
        }
      ],
      "name": "StakeLocked",
      "type": "event"
    },
    {
      "anonymous": false,
      "inputs": [
        {
          "indexed": true,
          "internalType": "address",
          "name": "account",
          "type": "address"
        },
        {
          "indexed": false,
          "internalType": "uint256",
          "name": "withdrawTime",
          "type": "uint256"
        }
      ],
      "name": "StakeUnlocked",
      "type": "event"
    },
    {
      "anonymous": false,
      "inputs": [
        {
          "indexed": true,
          "internalType": "address",
          "name": "account",
          "type": "address"
        },
        {
          "indexed": false,
          "internalType": "address",
          "name": "withdrawAddress",
          "type": "address"
        },
        {
          "indexed": false,
          "internalType": "uint256",
          "name": "amount",
          "type": "uint256"
        }
      ],
      "name": "StakeWithdrawn",
      "type": "event"
    },
    {
      "anonymous": false,
      "inputs": [
        {
          "indexed": true,
          "internalType": "bytes32",
          "name": "userOpHash",
          "type": "bytes32"
        },
        {
          "indexed": true,
          "internalType": "address",
          "name": "sender",
          "type": "address"
        },
        {
          "indexed": true,
          "internalType": "address",
          "name": "paymaster",
          "type": "address"
        },
        {
          "indexed": false,
          "internalType": "uint256",
          "name": "nonce",
          "type": "uint256"
        },
        {
          "indexed": false,
          "internalType": "bool",
          "name": "success",
          "type": "bool"
        },
        {
          "indexed": false,
          "internalType": "uint256",
          "name": "actualGasCost",
          "type": "uint256"
        },
        {
          "indexed": false,
          "internalType": "uint256",
          "name": "actualGasUsed",
          "type": "uint256"
        }
      ],
      "name": "UserOperationEvent",
      "type": "event"
    },
    {
      "anonymous": false,
      "inputs": [
        {
          "indexed": true,
          "internalType": "bytes32",
          "name": "userOpHash",
          "type": "bytes32"
        },
        {
          "indexed": true,
          "internalType": "address",
          "name": "sender",
          "type": "address"
        },
        {
          "indexed": false,
          "internalType": "uint256",
          "name": "nonce",
          "type": "uint256"
        },
        {
          "indexed": false,
          "internalType": "bytes",
          "name": "revertReason",
          "type": "bytes"
        }
      ],
      "name": "UserOperationRevertReason",
      "type": "event"
    },
    {
      "anonymous": false,
      "inputs": [
        {
          "indexed": true,
          "internalType": "address",
          "name": "account",
          "type": "address"
        },
        {
          "indexed": false,
          "internalType": "address",
          "name": "withdrawAddress",
          "type": "address"
        },
        {
          "indexed": false,
          "internalType": "uint256",
          "name": "amount",
          "type": "uint256"
        }
      ],
      "name": "Withdrawn",
      "type": "event"
    },
    {
      "inputs": [],
      "name": "IX_READ_SIGNATURE_NS",
      "outputs": [
        {
          "internalType": "bytes32",
          "name": "",
          "type": "bytes32"
        }
      ],
      "stateMutability": "view",
      "type": "function"
    },
    {
      "inputs": [],
      "name": "SIG_VALIDATION_FAILED",
      "outputs": [
        {
          "internalType": "uint256",
          "name": "",
          "type": "uint256"
        }
      ],
      "stateMutability": "view",
      "type": "function"
    },
    {
      "inputs": [
        {
          "internalType": "bytes",
          "name": "initCode",
          "type": "bytes"
        },
        {
          "internalType": "address",
          "name": "sender",
          "type": "address"
        },
        {
          "internalType": "bytes",
          "name": "paymasterAndData",
          "type": "bytes"
        }
      ],
      "name": "_validateSenderAndPaymaster",
      "outputs": [],
      "stateMutability": "view",
      "type": "function"
    },
    {
      "inputs": [
        {
          "internalType": "uint32",
          "name": "unstakeDelaySec",
          "type": "uint32"
        }
      ],
      "name": "addStake",
      "outputs": [],
      "stateMutability": "payable",
      "type": "function"
    },
    {
      "inputs": [
        {
          "internalType": "address",
          "name": "account",
          "type": "address"
        }
      ],
      "name": "balanceOf",
      "outputs": [
        {
          "internalType": "uint256",
          "name": "",
          "type": "uint256"
        }
      ],
      "stateMutability": "view",
      "type": "function"
    },
    {
      "inputs": [
        {
          "internalType": "address",
          "name": "account",
          "type": "address"
        }
      ],
      "name": "depositTo",
      "outputs": [],
      "stateMutability": "payable",
      "type": "function"
    },
    {
      "inputs": [
        {
          "internalType": "address",
          "name": "",
          "type": "address"
        }
      ],
      "name": "deposits",
      "outputs": [
        {
          "internalType": "uint112",
          "name": "deposit",
          "type": "uint112"
        },
        {
          "internalType": "bool",
          "name": "staked",
          "type": "bool"
        },
        {
          "internalType": "uint112",
          "name": "stake",
          "type": "uint112"
        },
        {
          "internalType": "uint32",
          "name": "unstakeDelaySec",
          "type": "uint32"
        },
        {
          "internalType": "uint48",
          "name": "withdrawTime",
          "type": "uint48"
        }
      ],
      "stateMutability": "view",
      "type": "function"
    },
    {
      "inputs": [
        {
          "internalType": "address",
          "name": "account",
          "type": "address"
        }
      ],
      "name": "getDepositInfo",
      "outputs": [
        {
          "components": [
            {
              "internalType": "uint112",
              "name": "deposit",
              "type": "uint112"
            },
            {
              "internalType": "bool",
              "name": "staked",
              "type": "bool"
            },
            {
              "internalType": "uint112",
              "name": "stake",
              "type": "uint112"
            },
            {
              "internalType": "uint32",
              "name": "unstakeDelaySec",
              "type": "uint32"
            },
            {
              "internalType": "uint48",
              "name": "withdrawTime",
              "type": "uint48"
            }
          ],
          "internalType": "struct IStakeManager.DepositInfo",
          "name": "info",
          "type": "tuple"
        }
      ],
      "stateMutability": "view",
      "type": "function"
    },
    {
      "inputs": [
        {
          "internalType": "address",
          "name": "sender",
          "type": "address"
        },
        {
          "internalType": "uint192",
          "name": "key",
          "type": "uint192"
        }
      ],
      "name": "getNonce",
      "outputs": [
        {
          "internalType": "uint256",
          "name": "nonce",
          "type": "uint256"
        }
      ],
      "stateMutability": "view",
      "type": "function"
    },
    {
      "inputs": [
        {
          "internalType": "bytes",
          "name": "initCode",
          "type": "bytes"
        }
      ],
      "name": "getSenderAddress",
      "outputs": [],
      "stateMutability": "nonpayable",
      "type": "function"
    },
    {
      "inputs": [
        {
          "components": [
            {
              "internalType": "address",
              "name": "sender",
              "type": "address"
            },
            {
              "internalType": "uint256",
              "name": "nonce",
              "type": "uint256"
            },
            {
              "internalType": "bytes",
              "name": "initCode",
              "type": "bytes"
            },
            {
              "internalType": "bytes",
              "name": "callData",
              "type": "bytes"
            },
            {
              "internalType": "uint256",
              "name": "callGasLimit",
              "type": "uint256"
            },
            {
              "internalType": "uint256",
              "name": "verificationGasLimit",
              "type": "uint256"
            },
            {
              "internalType": "uint256",
              "name": "preVerificationGas",
              "type": "uint256"
            },
            {
              "internalType": "uint256",
              "name": "maxFeePerGas",
              "type": "uint256"
            },
            {
              "internalType": "uint256",
              "name": "maxPriorityFeePerGas",
              "type": "uint256"
            },
            {
              "internalType": "bytes",
              "name": "paymasterAndData",
              "type": "bytes"
            },
            {
              "internalType": "bytes",
              "name": "signature",
              "type": "bytes"
            }
          ],
          "internalType": "struct UserOperation",
          "name": "userOp",
          "type": "tuple"
        }
      ],
      "name": "getUserOpHash",
      "outputs": [
        {
          "internalType": "bytes32",
          "name": "",
          "type": "bytes32"
        }
      ],
      "stateMutability": "view",
      "type": "function"
    },
    {
      "inputs": [
        {
          "components": [
            {
              "components": [
                {
                  "internalType": "address",
                  "name": "sender",
                  "type": "address"
                },
                {
                  "internalType": "uint256",
                  "name": "nonce",
                  "type": "uint256"
                },
                {
                  "internalType": "bytes",
                  "name": "initCode",
                  "type": "bytes"
                },
                {
                  "internalType": "bytes",
                  "name": "callData",
                  "type": "bytes"
                },
                {
                  "internalType": "uint256",
                  "name": "callGasLimit",
                  "type": "uint256"
                },
                {
                  "internalType": "uint256",
                  "name": "verificationGasLimit",
                  "type": "uint256"
                },
                {
                  "internalType": "uint256",
                  "name": "preVerificationGas",
                  "type": "uint256"
                },
                {
                  "internalType": "uint256",
                  "name": "maxFeePerGas",
                  "type": "uint256"
                },
                {
                  "internalType": "uint256",
                  "name": "maxPriorityFeePerGas",
                  "type": "uint256"
                },
                {
                  "internalType": "bytes",
                  "name": "paymasterAndData",
                  "type": "bytes"
                },
                {
                  "internalType": "bytes",
                  "name": "signature",
                  "type": "bytes"
                }
              ],
              "internalType": "struct UserOperation[]",
              "name": "userOps",
              "type": "tuple[]"
            },
            {
              "internalType": "contract IAggregator",
              "name": "aggregator",
              "type": "address"
            },
            {
              "internalType": "bytes",
              "name": "signature",
              "type": "bytes"
            }
          ],
          "internalType": "struct IEntryPoint.UserOpsPerAggregator[]",
          "name": "opsPerAggregator",
          "type": "tuple[]"
        },
        {
          "internalType": "address payable",
          "name": "beneficiary",
          "type": "address"
        }
      ],
      "name": "handleAggregatedOps",
      "outputs": [],
      "stateMutability": "nonpayable",
      "type": "function"
    },
    {
      "inputs": [
        {
          "components": [
            {
              "internalType": "address",
              "name": "sender",
              "type": "address"
            },
            {
              "internalType": "uint256",
              "name": "nonce",
              "type": "uint256"
            },
            {
              "internalType": "bytes",
              "name": "initCode",
              "type": "bytes"
            },
            {
              "internalType": "bytes",
              "name": "callData",
              "type": "bytes"
            },
            {
              "internalType": "uint256",
              "name": "callGasLimit",
              "type": "uint256"
            },
            {
              "internalType": "uint256",
              "name": "verificationGasLimit",
              "type": "uint256"
            },
            {
              "internalType": "uint256",
              "name": "preVerificationGas",
              "type": "uint256"
            },
            {
              "internalType": "uint256",
              "name": "maxFeePerGas",
              "type": "uint256"
            },
            {
              "internalType": "uint256",
              "name": "maxPriorityFeePerGas",
              "type": "uint256"
            },
            {
              "internalType": "bytes",
              "name": "paymasterAndData",
              "type": "bytes"
            },
            {
              "internalType": "bytes",
              "name": "signature",
              "type": "bytes"
            }
          ],
          "internalType": "struct UserOperation[]",
          "name": "ops",
          "type": "tuple[]"
        },
        {
          "internalType": "address payable",
          "name": "beneficiary",
          "type": "address"
        }
      ],
      "name": "handleOps",
      "outputs": [],
      "stateMutability": "nonpayable",
      "type": "function"
    },
    {
      "inputs": [
        {
          "internalType": "uint192",
          "name": "key",
          "type": "uint192"
        }
      ],
      "name": "incrementNonce",
      "outputs": [],
      "stateMutability": "nonpayable",
      "type": "function"
    },
    {
      "inputs": [
        {
          "internalType": "bytes",
          "name": "callData",
          "type": "bytes"
        },
        {
          "components": [
            {
              "components": [
                {
                  "internalType": "address",
                  "name": "sender",
                  "type": "address"
                },
                {
                  "internalType": "uint256",
                  "name": "nonce",
                  "type": "uint256"
                },
                {
                  "internalType": "uint256",
                  "name": "callGasLimit",
                  "type": "uint256"
                },
                {
                  "internalType": "uint256",
                  "name": "verificationGasLimit",
                  "type": "uint256"
                },
                {
                  "internalType": "uint256",
                  "name": "preVerificationGas",
                  "type": "uint256"
                },
                {
                  "internalType": "address",
                  "name": "paymaster",
                  "type": "address"
                },
                {
                  "internalType": "uint256",
                  "name": "maxFeePerGas",
                  "type": "uint256"
                },
                {
                  "internalType": "uint256",
                  "name": "maxPriorityFeePerGas",
                  "type": "uint256"
                }
              ],
              "internalType": "struct EntryPoint.MemoryUserOp",
              "name": "mUserOp",
              "type": "tuple"
            },
            {
              "internalType": "bytes32",
              "name": "userOpHash",
              "type": "bytes32"
            },
            {
              "internalType": "uint256",
              "name": "prefund",
              "type": "uint256"
            },
            {
              "internalType": "uint256",
              "name": "contextOffset",
              "type": "uint256"
            },
            {
              "internalType": "uint256",
              "name": "preOpGas",
              "type": "uint256"
            }
          ],
          "internalType": "struct EntryPoint.UserOpInfo",
          "name": "opInfo",
          "type": "tuple"
        },
        {
          "internalType": "bytes",
          "name": "context",
          "type": "bytes"
        }
      ],
      "name": "innerHandleOp",
      "outputs": [
        {
          "internalType": "uint256",
          "name": "actualGasCost",
          "type": "uint256"
        }
      ],
      "stateMutability": "nonpayable",
      "type": "function"
    },
    {
      "inputs": [
        {
          "internalType": "address",
          "name": "",
          "type": "address"
        },
        {
          "internalType": "uint192",
          "name": "",
          "type": "uint192"
        }
      ],
      "name": "nonceSequenceNumber",
      "outputs": [
        {
          "internalType": "uint256",
          "name": "",
          "type": "uint256"
        }
      ],
      "stateMutability": "view",
      "type": "function"
    },
    {
      "inputs": [
        {
          "components": [
            {
              "internalType": "address",
              "name": "sender",
              "type": "address"
            },
            {
              "internalType": "uint256",
              "name": "nonce",
              "type": "uint256"
            },
            {
              "internalType": "bytes",
              "name": "initCode",
              "type": "bytes"
            },
            {
              "internalType": "bytes",
              "name": "callData",
              "type": "bytes"
            },
            {
              "internalType": "uint256",
              "name": "callGasLimit",
              "type": "uint256"
            },
            {
              "internalType": "uint256",
              "name": "verificationGasLimit",
              "type": "uint256"
            },
            {
              "internalType": "uint256",
              "name": "preVerificationGas",
              "type": "uint256"
            },
            {
              "internalType": "uint256",
              "name": "maxFeePerGas",
              "type": "uint256"
            },
            {
              "internalType": "uint256",
              "name": "maxPriorityFeePerGas",
              "type": "uint256"
            },
            {
              "internalType": "bytes",
              "name": "paymasterAndData",
              "type": "bytes"
            },
            {
              "internalType": "bytes",
              "name": "signature",
              "type": "bytes"
            }
          ],
          "internalType": "struct UserOperation",
          "name": "op",
          "type": "tuple"
        },
        {
          "internalType": "address",
          "name": "target",
          "type": "address"
        },
        {
          "internalType": "bytes",
          "name": "targetCallData",
          "type": "bytes"
        }
      ],
      "name": "simulateHandleOp",
      "outputs": [],
      "stateMutability": "nonpayable",
      "type": "function"
    },
    {
      "inputs": [
        {
          "components": [
            {
              "internalType": "address",
              "name": "sender",
              "type": "address"
            },
            {
              "internalType": "uint256",
              "name": "nonce",
              "type": "uint256"
            },
            {
              "internalType": "bytes",
              "name": "initCode",
              "type": "bytes"
            },
            {
              "internalType": "bytes",
              "name": "callData",
              "type": "bytes"
            },
            {
              "internalType": "uint256",
              "name": "callGasLimit",
              "type": "uint256"
            },
            {
              "internalType": "uint256",
              "name": "verificationGasLimit",
              "type": "uint256"
            },
            {
              "internalType": "uint256",
              "name": "preVerificationGas",
              "type": "uint256"
            },
            {
              "internalType": "uint256",
              "name": "maxFeePerGas",
              "type": "uint256"
            },
            {
              "internalType": "uint256",
              "name": "maxPriorityFeePerGas",
              "type": "uint256"
            },
            {
              "internalType": "bytes",
              "name": "paymasterAndData",
              "type": "bytes"
            },
            {
              "internalType": "bytes",
              "name": "signature",
              "type": "bytes"
            }
          ],
          "internalType": "struct UserOperation",
          "name": "op",
          "type": "tuple"
        }
      ],
      "name": "simulateReadOp",
      "outputs": [],
      "stateMutability": "nonpayable",
      "type": "function"
    },
    {
      "inputs": [
        {
          "components": [
            {
              "internalType": "address",
              "name": "sender",
              "type": "address"
            },
            {
              "internalType": "uint256",
              "name": "nonce",
              "type": "uint256"
            },
            {
              "internalType": "bytes",
              "name": "initCode",
              "type": "bytes"
            },
            {
              "internalType": "bytes",
              "name": "callData",
              "type": "bytes"
            },
            {
              "internalType": "uint256",
              "name": "callGasLimit",
              "type": "uint256"
            },
            {
              "internalType": "uint256",
              "name": "verificationGasLimit",
              "type": "uint256"
            },
            {
              "internalType": "uint256",
              "name": "preVerificationGas",
              "type": "uint256"
            },
            {
              "internalType": "uint256",
              "name": "maxFeePerGas",
              "type": "uint256"
            },
            {
              "internalType": "uint256",
              "name": "maxPriorityFeePerGas",
              "type": "uint256"
            },
            {
              "internalType": "bytes",
              "name": "paymasterAndData",
              "type": "bytes"
            },
            {
              "internalType": "bytes",
              "name": "signature",
              "type": "bytes"
            }
          ],
          "internalType": "struct UserOperation",
          "name": "userOp",
          "type": "tuple"
        }
      ],
      "name": "simulateValidation",
      "outputs": [],
      "stateMutability": "nonpayable",
      "type": "function"
    },
    {
      "inputs": [],
      "name": "unlockStake",
      "outputs": [],
      "stateMutability": "nonpayable",
      "type": "function"
    },
    {
      "inputs": [
        {
          "internalType": "address payable",
          "name": "withdrawAddress",
          "type": "address"
        }
      ],
      "name": "withdrawStake",
      "outputs": [],
      "stateMutability": "nonpayable",
      "type": "function"
    },
    {
      "inputs": [
        {
          "internalType": "address payable",
          "name": "withdrawAddress",
          "type": "address"
        },
        {
          "internalType": "uint256",
          "name": "withdrawAmount",
          "type": "uint256"
        }
      ],
      "name": "withdrawTo",
      "outputs": [],
      "stateMutability": "nonpayable",
      "type": "function"
    },
    {
      "stateMutability": "payable",
      "type": "receive"
    }
  ],
  "transactionHash": "0xdf8758f2b3b891f52718d8a7b33db0332014b9548ca566e2ea2490221ab38546",
  "args": [],
  "numDeployments": 2,
  "solcInputHash": "12d57e4a319c6a400d635fcdafc34c5e",
  "bytecode": "0x60a08060405234620000895760016002556102148181016001600160401b038111838210176200007357829162005fc8833903906000f080156200006757608052604051615f3990816200008f82396080518181816116590152818161595e0152615c730152f35b6040513d6000823e3d90fd5b634e487b7160e01b600052604160045260246000fd5b600080fdfe60806040526004361015610023575b361561001957600080fd5b610021613164565b005b60003560e01c80630396cb60146101835780630bd28e3b1461017e5780631b2e01b8146101795780631d732756146101745780631fad948c1461016f578063205c28781461016a57806335567e1a146101655780634b1d7cf5146101605780635287ce121461015b57806364530a4d1461015657806370a08231146101515780638f41ec5a1461014c57806390a64d3914610147578063957122ab146101425780639b249f691461013d578063a619353114610138578063b760faf914610133578063bb9fe6bf1461012e578063c23a5cea14610129578063d6383f9414610124578063ee2194231461011f5763fc7e286d0361000e57611ddf565b611bc7565b611a66565b6118ce565b611751565b611713565b6116f3565b6115b3565b6113e1565b6111ac565b61111a565b6110a1565b611048565b610eee565b610ba9565b610ae5565b610947565b61086e565b61069c565b610435565b610354565b60207ffffffffffffffffffffffffffffffffffffffffffffffffffffffffffffffffc3601126103285760043563ffffffff8116808203610328576103237fa5ae833d0bb1dcd632d98a8b70973e8516812898e19bf27b70071ebc8dc52c01916102406102103373ffffffffffffffffffffffffffffffffffffffff166000526000602052604060002090565b9161021c811515611e95565b610239610230600185015463ffffffff1690565b63ffffffff1690565b1115611efa565b54926103056dffffffffffffffffffffffffffff946102c361026734888460781c16611f8e565b96610273881515611fa0565b61027f81891115612005565b6102a38161028b6105b0565b941684906dffffffffffffffffffffffffffff169052565b6001602084015287166dffffffffffffffffffffffffffff166040830152565b63ffffffff83166060820152600060808201526103003373ffffffffffffffffffffffffffffffffffffffff166000526000602052604060002090565b61206a565b6040805194855263ffffffff90911660208501523393918291820190565b0390a2005b600080fd5b6024359077ffffffffffffffffffffffffffffffffffffffffffffffff8216820361032857565b346103285760207ffffffffffffffffffffffffffffffffffffffffffffffffffffffffffffffffc3601126103285760043577ffffffffffffffffffffffffffffffffffffffffffffffff81168103610328576103e29033600052600160205260406000209077ffffffffffffffffffffffffffffffffffffffffffffffff16600052602052604060002090565b6103ec81546121ce565b9055005b73ffffffffffffffffffffffffffffffffffffffff81160361032857565b6024359061041b826103f0565b565b60c4359061041b826103f0565b359061041b826103f0565b346103285760407ffffffffffffffffffffffffffffffffffffffffffffffffffffffffffffffffc3601126103285760206104c9600435610475816103f0565b73ffffffffffffffffffffffffffffffffffffffff61049261032d565b91166000526001835260406000209077ffffffffffffffffffffffffffffffffffffffffffffffff16600052602052604060002090565b54604051908152f35b7f4e487b7100000000000000000000000000000000000000000000000000000000600052604160045260246000fd5b60a0810190811067ffffffffffffffff82111761051d57604052565b6104d2565b610100810190811067ffffffffffffffff82111761051d57604052565b67ffffffffffffffff811161051d57604052565b6060810190811067ffffffffffffffff82111761051d57604052565b90601f7fffffffffffffffffffffffffffffffffffffffffffffffffffffffffffffffe0910116810190811067ffffffffffffffff82111761051d57604052565b6040519061041b82610501565b6040519060c0820182811067ffffffffffffffff82111761051d57604052565b604051906040820182811067ffffffffffffffff82111761051d57604052565b67ffffffffffffffff811161051d57601f017fffffffffffffffffffffffffffffffffffffffffffffffffffffffffffffffe01660200190565b929192610643826105fd565b91610651604051938461056f565b829481845281830111610328578281602093846000960137010152565b9181601f840112156103285782359167ffffffffffffffff8311610328576020838186019501011161032857565b34610328576101c07ffffffffffffffffffffffffffffffffffffffffffffffffffffffffffffffffc3601126103285767ffffffffffffffff6004358181116103285736602382011215610328576106fe903690602481600401359101610637565b907fffffffffffffffffffffffffffffffffffffffffffffffffffffffffffffffdc36016101808112610328576101006040519161073b83610501565b126103285760405161074c81610522565b61075461040e565b815260443560208201526064356040820152608435606082015260a435608082015261077e61041d565b60a082015260e43560c08201526101043560e082015281526101243560208201526101443560408201526101643560608201526101843560808201526101a435918211610328576107f2926107da6107e293369060040161066e565b9290916122f5565b6040519081529081906020820190565b0390f35b9060407ffffffffffffffffffffffffffffffffffffffffffffffffffffffffffffffffc8301126103285760043567ffffffffffffffff9283821161032857806023830112156103285781600401359384116103285760248460051b8301011161032857602401919060243561086b816103f0565b90565b346103285761087c366107f6565b610887929192613af4565b610890836124d9565b60005b84811061091057506000927fbb47ee3e183a558b1a2ff0874b079f3fc5478b7454eacf2bfc5af2ff5878f9728480a183915b8583106108e0576108d685856145e9565b6100216001600255565b9091936001906109066108f487898761258e565b6108fe8886612575565b519088614496565b01940191906108c5565b8061093e610937610925600194869896612575565b51610931848a8861258e565b84613bc6565b9083614020565b01929092610893565b346103285760407ffffffffffffffffffffffffffffffffffffffffffffffffffffffffffffffffc36011261032857600435610982816103f0565b6024359060009133835282602052604083206dffffffffffffffffffffffffffff81541692838311610a8757848373ffffffffffffffffffffffffffffffffffffffff829593610a2a84966109f16109de8798610a849c6125ce565b6dffffffffffffffffffffffffffff1690565b6dffffffffffffffffffffffffffff167fffffffffffffffffffffffffffffffffffff0000000000000000000000000000825416179055565b6040805173ffffffffffffffffffffffffffffffffffffffff831681526020810185905233917fd1c19fbcd4551a5edfb66d43d2e337c04837afda3482b42bdf569a8fccdae5fb91a2165af1610a7e6125db565b5061260b565b80f35b60646040517f08c379a000000000000000000000000000000000000000000000000000000000815260206004820152601960248201527f576974686472617720616d6f756e7420746f6f206c61726765000000000000006044820152fd5b346103285760407ffffffffffffffffffffffffffffffffffffffffffffffffffffffffffffffffc360112610328576020600435610b22816103f0565b73ffffffffffffffffffffffffffffffffffffffff610b3f61032d565b911660005260018252610b7a8160406000209077ffffffffffffffffffffffffffffffffffffffffffffffff16600052602052604060002090565b547fffffffffffffffffffffffffffffffffffffffffffffffff00000000000000006040519260401b16178152f35b3461032857610bb7366107f6565b610bbf613af4565b6000805b838210610d9657610bd491506124d9565b7fbb47ee3e183a558b1a2ff0874b079f3fc5478b7454eacf2bfc5af2ff5878f972600080a16000805b848110610d0157505060008093815b818110610c43576108d6868660007f575ff3acadd5ab348fe1855e217e0f3678f8d767d7494c9f9fefbee2e17cca4d8180a26145e9565b610ca7610c5182848a612670565b610c7c610c63610c6360208401612704565b73ffffffffffffffffffffffffffffffffffffffff1690565b7f575ff3acadd5ab348fe1855e217e0f3678f8d767d7494c9f9fefbee2e17cca4d600080a2806126b0565b906000915b808310610cbe57505050600101610c0c565b90919497610cf8610cf2600192610cec8c8b610ce582610cdf8e8b8d61258e565b92612575565b5191614496565b90611f8e565b996121ce565b95019190610cac565b610d0c818688612670565b6020610d24610d1b83806126b0565b92909301612704565b9173ffffffffffffffffffffffffffffffffffffffff60009316905b828410610d535750505050600101610bfd565b90919294610d8c81610d8785610d80610d6e6001968d612575565b51610d7a8c8b8a61258e565b85613bc6565b908b614238565b6121ce565b9501929190610d40565b610da1828587612670565b90610dac82806126b0565b92610dbc610c6360208301612704565b9173ffffffffffffffffffffffffffffffffffffffff8316610de1600182141561270e565b610dfd575b505050600191610df591611f8e565b910190610bc3565b909592610e166040999693999895989788810190612773565b92908a3b156103285789938b918a5193849283927fe3563a4f00000000000000000000000000000000000000000000000000000000845260049e8f850193610e5d9461293a565b03815a93600094fa9081610ed5575b50610ec05786517f86a9f75000000000000000000000000000000000000000000000000000000000815273ffffffffffffffffffffffffffffffffffffffff8a16818a0190815281906020010390fd5b0390fd5b9497509295509093509181610df56001610de6565b80610ee2610ee89261053f565b8061103d565b38610e6c565b346103285760207ffffffffffffffffffffffffffffffffffffffffffffffffffffffffffffffffc360112610328576107f273ffffffffffffffffffffffffffffffffffffffff600435610f41816103f0565b608060409283928351610f5381610501565b600093818580935282602082015282878201528260608201520152168152806020522090610fe265ffffffffffff6001835194610f8f86610501565b80546dffffffffffffffffffffffffffff8082168852607082901c60ff161515602089015260789190911c1685870152015463ffffffff8116606086015260201c16608084019065ffffffffffff169052565b5191829182919091608065ffffffffffff8160a08401956dffffffffffffffffffffffffffff808251168652602082015115156020870152604082015116604086015263ffffffff6060820151166060860152015116910152565b600091031261032857565b346103285760007ffffffffffffffffffffffffffffffffffffffffffffffffffffffffffffffffc3601126103285760206040517f840dcac6dc88059c8901dd3a1056912496226aaca1c944db291f91c79a3b15378152f35b346103285760207ffffffffffffffffffffffffffffffffffffffffffffffffffffffffffffffffc3601126103285773ffffffffffffffffffffffffffffffffffffffff6004356110f1816103f0565b16600052600060205260206dffffffffffffffffffffffffffff60406000205416604051908152f35b346103285760007ffffffffffffffffffffffffffffffffffffffffffffffffffffffffffffffffc36011261032857602060405160018152f35b90816101609103126103285790565b60207ffffffffffffffffffffffffffffffffffffffffffffffffffffffffffffffffc820112610328576004359067ffffffffffffffff82116103285761086b91600401611154565b34610328576111ba36611163565b6111c2612476565b90610ebc60008061127e6112788651966111dc888861473f565b6111e587612bfd565b6040516112508161122460208201948560409181527f840dcac6dc88059c8901dd3a1056912496226aaca1c944db291f91c79a3b153760208201520190565b037fffffffffffffffffffffffffffffffffffffffffffffffffffffffffffffffe0810183528261056f565b519020602082015261126187614844565b61127261126d88612704565b614941565b86613dcc565b90614aca565b9360808260208701976112a561129a8a5165ffffffffffff1690565b65ffffffffffff1690565b421015806113bd575b6112b790612a0a565b6112f473ffffffffffffffffffffffffffffffffffffffff6112ed8a5173ffffffffffffffffffffffffffffffffffffffff1690565b1615612a6f565b61133f611338606086019261131561130c8589612773565b90501515612ad4565b61131e43600052565b5173ffffffffffffffffffffffffffffffffffffffff1690565b9185612773565b939061135060405180968193612b39565b03940135f19261138a604061137c6113666125db565b9361137043600052565b5165ffffffffffff1690565b94015165ffffffffffff1690565b936040519485947f8b7ac98000000000000000000000000000000000000000000000000000000000865260048601612b47565b506112b76113d761129a60408b015165ffffffffffff1690565b42111590506112ae565b346103285760607ffffffffffffffffffffffffffffffffffffffffffffffffffffffffffffffffc36011261032857600467ffffffffffffffff813581811161032857611431903690840161066e565b905060243591611440836103f0565b60443590811161032857611457903690850161066e565b9290911590816115a9575b506115425760148210156114b2575b610ebc836040519182917f08c379a0000000000000000000000000000000000000000000000000000000008352820160409060208152600060208201520190565b6114c26114ce926114c892612b85565b90612b93565b60601c90565b3b156114db573880611471565b610ebc906040519182917f08c379a0000000000000000000000000000000000000000000000000000000008352820160609060208152601b60208201527f41413330207061796d6173746572206e6f74206465706c6f796564000000000060408201520190565b610ebc836040519182917f08c379a0000000000000000000000000000000000000000000000000000000008352820160609060208152601960208201527f41413230206163636f756e74206e6f74206465706c6f7965640000000000000060408201520190565b90503b1538611462565b346103285760207ffffffffffffffffffffffffffffffffffffffffffffffffffffffffffffffffc3601126103285760043567ffffffffffffffff811161032857602061160761165292369060040161066e565b73ffffffffffffffffffffffffffffffffffffffff929160405194859283927f570e1a3600000000000000000000000000000000000000000000000000000000845260048401612bec565b03816000857f0000000000000000000000000000000000000000000000000000000000000000165af19081156116ee576024926000926116bd575b50604051917f6ca7b806000000000000000000000000000000000000000000000000000000008352166004820152fd5b6116e091925060203d6020116116e7575b6116d8818361056f565b810190612bd7565b903861168d565b503d6116ce565b6129fe565b3461032857602061170b61170636611163565b612bfd565b604051908152f35b60207ffffffffffffffffffffffffffffffffffffffffffffffffffffffffffffffffc3601126103285761002160043561174c816103f0565b612d41565b34610328576000807ffffffffffffffffffffffffffffffffffffffffffffffffffffffffffffffffc3601126118cb573381528060205260408120600181019063ffffffff82541690811561186d5761180a6117cf611832936117c16117bc855460ff9060701c1690565b612dad565b65ffffffffffff4216612e12565b84547fffffffffffffffffffffffffffffffffffffffffffff000000000000ffffffff16602082901b69ffffffffffff000000001617909455565b7fffffffffffffffffffffffffffffffffff00ffffffffffffffffffffffffffff8154169055565b60405165ffffffffffff91909116815233907ffa9b3c14cc825c412c9ed81b3ba365a5b459439403f18829e572ed53a4180f0a90602090a280f35b60646040517f08c379a000000000000000000000000000000000000000000000000000000000815260206004820152600a60248201527f6e6f74207374616b6564000000000000000000000000000000000000000000006044820152fd5b80fd5b346103285760207ffffffffffffffffffffffffffffffffffffffffffffffffffffffffffffffffc36011261032857600435611909816103f0565b610a8473ffffffffffffffffffffffffffffffffffffffff61194b3373ffffffffffffffffffffffffffffffffffffffff166000526000602052604060002090565b92611a0361196e6109de86546dffffffffffffffffffffffffffff9060781c1690565b9461197a861515612e2c565b6119db600182016119b365ffffffffffff61199f835465ffffffffffff9060201c1690565b166119ab811515612e91565b421015612ef6565b80547fffffffffffffffffffffffffffffffffffffffffffff00000000000000000000169055565b7fffffff0000000000000000000000000000ffffffffffffffffffffffffffffff8154169055565b6040805173ffffffffffffffffffffffffffffffffffffffff831681526020810186905233917fb7c918e0e249f999e965cafeb6c664271b3f4317d296461500e71da39f0cbda391a2600080809581948294165af1611a606125db565b50612f5b565b346103285760607ffffffffffffffffffffffffffffffffffffffffffffffffffffffffffffffffc3601126103285767ffffffffffffffff60043581811161032857611ab6903690600401611154565b60243591611ac3836103f0565b60443590811161032857611ade610ebc91369060040161066e565b611ae6612476565b611aef85614844565b611afc6112788287613fc6565b94611b0c82600092438452614338565b96438252819360609573ffffffffffffffffffffffffffffffffffffffff8316611b93575b505050506080015193611b606040611b52602084015165ffffffffffff1690565b92015165ffffffffffff1690565b906040519687967f8b7ac98000000000000000000000000000000000000000000000000000000000885260048801612fc0565b83955083949650611bad6040949293945180948193612b39565b03925af1906080611bbc6125db565b929190388080611b31565b3461032857611bd536611163565b611bdd612476565b611be682614844565b611bf08183613fc6565b825160a00151919391611c1d9073ffffffffffffffffffffffffffffffffffffffff16614b7c565b614b7c565b90611c41611c18855173ffffffffffffffffffffffffffffffffffffffff90511690565b94611c4a612ffc565b50611c5a60409485810190612773565b9060148210611dd3576114c86114c2611c7693611c1893612b85565b91611c8091614aca565b805173ffffffffffffffffffffffffffffffffffffffff169073ffffffffffffffffffffffffffffffffffffffff821660018114916080880151978781015191886020820151611cd59065ffffffffffff1690565b91015165ffffffffffff16916060015192611cee6105bd565b9a8b5260208b0152841515898b015265ffffffffffff1660608a015265ffffffffffff16608089015260a088015215159081611dca575b50611d5f5750610ebc92519485947fe0cff05f0000000000000000000000000000000000000000000000000000000086526004860161310a565b9190610ebc93611d6e84614b7c565b611d95611d796105dd565b73ffffffffffffffffffffffffffffffffffffffff9096168652565b6020850152519586957ffaecb4e400000000000000000000000000000000000000000000000000000000875260048701613078565b90501538611d25565b5050611c766000614b7c565b346103285760207ffffffffffffffffffffffffffffffffffffffffffffffffffffffffffffffffc3601126103285773ffffffffffffffffffffffffffffffffffffffff600435611e2f816103f0565b16600052600060205260a0604060002065ffffffffffff81549160016dffffffffffffffffffffffffffff9101549060405193818116855260ff8160701c161515602086015260781c16604084015263ffffffff8116606084015260201c166080820152f35b15611e9c57565b60646040517f08c379a000000000000000000000000000000000000000000000000000000000815260206004820152601a60248201527f6d757374207370656369667920756e7374616b652064656c61790000000000006044820152fd5b15611f0157565b60646040517f08c379a000000000000000000000000000000000000000000000000000000000815260206004820152601c60248201527f63616e6e6f7420646563726561736520756e7374616b652074696d65000000006044820152fd5b7f4e487b7100000000000000000000000000000000000000000000000000000000600052601160045260246000fd5b91908201809211611f9b57565b611f5f565b15611fa757565b60646040517f08c379a000000000000000000000000000000000000000000000000000000000815260206004820152601260248201527f6e6f207374616b652073706563696669656400000000000000000000000000006044820152fd5b1561200c57565b60646040517f08c379a000000000000000000000000000000000000000000000000000000000815260206004820152600e60248201527f7374616b65206f766572666c6f770000000000000000000000000000000000006044820152fd5b9065ffffffffffff6080600161041b946120ca6dffffffffffffffffffffffffffff86511682906dffffffffffffffffffffffffffff167fffffffffffffffffffffffffffffffffffff0000000000000000000000000000825416179055565b602085015115156eff000000000000000000000000000082549160701b16807fffffffffffffffffffffffffffffffffff00ffffffffffffffffffffffffffff83161783557fffffff000000000000000000000000000000ffffffffffffffffffffffffffff7cffffffffffffffffffffffffffff000000000000000000000000000000604089015160781b16921617178155019263ffffffff6060820151167fffffffffffffffffffffffffffffffffffffffffffffffffffffffff000000008554161784550151167fffffffffffffffffffffffffffffffffffffffffffff000000000000ffffffff69ffffffffffff0000000083549260201b169116179055565b7fffffffffffffffffffffffffffffffffffffffffffffffffffffffffffffffff8114611f9b5760010190565b1561220257565b60646040517f08c379a000000000000000000000000000000000000000000000000000000000815260206004820152601760248201527f4141393220696e7465726e616c2063616c6c206f6e6c790000000000000000006044820152fd5b60005b8381106122735750506000910152565b8181015183820152602001612263565b907fffffffffffffffffffffffffffffffffffffffffffffffffffffffffffffffe0601f6020936122bf81518092818752878088019101612260565b0116010190565b90604061086b92600081528160208201520190612283565b60409061086b939281528160208201520190612283565b909291925a936123063033146121fb565b8151946040860151955a61138860608301518901011180612456575b61242c5761086b966000958051612353575b5050509061234d915a9003608084015101943691610637565b91613330565b6123829161237e91612379855173ffffffffffffffffffffffffffffffffffffffff1690565b61316d565b1590565b61238e575b8080612334565b61234d9291945061239d61317f565b9081516123b1575b50506001939091612387565b7f1c4fada7374c0a9ee8841fc38afe82932dc0f8e69012e927f061a8bae611a20173ffffffffffffffffffffffffffffffffffffffff6020870151926124226020612410835173ffffffffffffffffffffffffffffffffffffffff1690565b920151956040519384931696836122de565b0390a338806123a5565b7fdeaddead0000000000000000000000000000000000000000000000000000000060005260206000fd5b506000612322565b67ffffffffffffffff811161051d5760051b60200190565b6040519061248382610501565b60405160808361249283610522565b60009283815283602082015283604082015283606082015283838201528360a08201528360c08201528360e082015281528260208201528260408201528260608201520152565b906124e38261245e565b6124f0604051918261056f565b8281527fffffffffffffffffffffffffffffffffffffffffffffffffffffffffffffffe061251e829461245e565b019060005b82811061252f57505050565b60209061253a612476565b82828501015201612523565b7f4e487b7100000000000000000000000000000000000000000000000000000000600052603260045260246000fd5b80518210156125895760209160051b010190565b612546565b91908110156125895760051b810135907ffffffffffffffffffffffffffffffffffffffffffffffffffffffffffffffea181360301821215610328570190565b91908203918211611f9b57565b3d15612606573d906125ec826105fd565b916125fa604051938461056f565b82523d6000602084013e565b606090565b1561261257565b60646040517f08c379a000000000000000000000000000000000000000000000000000000000815260206004820152601260248201527f6661696c656420746f20776974686472617700000000000000000000000000006044820152fd5b91908110156125895760051b810135907fffffffffffffffffffffffffffffffffffffffffffffffffffffffffffffffa181360301821215610328570190565b9035907fffffffffffffffffffffffffffffffffffffffffffffffffffffffffffffffe181360301821215610328570180359067ffffffffffffffff821161032857602001918160051b3603831361032857565b3561086b816103f0565b1561271557565b60646040517f08c379a000000000000000000000000000000000000000000000000000000000815260206004820152601760248201527f4141393620696e76616c69642061676772656761746f720000000000000000006044820152fd5b9035907fffffffffffffffffffffffffffffffffffffffffffffffffffffffffffffffe181360301821215610328570180359067ffffffffffffffff82116103285760200191813603831361032857565b90357fffffffffffffffffffffffffffffffffffffffffffffffffffffffffffffffe18236030181121561032857016020813591019167ffffffffffffffff821161032857813603831361032857565b601f82602094937fffffffffffffffffffffffffffffffffffffffffffffffffffffffffffffffe0938186528686013760008582860101520116010190565b61086b9161291b6128cc6128b161016061288a856128708861042a565b73ffffffffffffffffffffffffffffffffffffffff169052565b602086013560208601526128a160408701876127c4565b9091806040880152860191612814565b6128be60608601866127c4565b908583036060870152612814565b6080840135608084015260a084013560a084015260c084013560c084015260e084013560e0840152610100808501359084015261012061290e818601866127c4565b9185840390860152612814565b9161292c61014091828101906127c4565b929091818503910152612814565b949391929083604087016040885252606086019360608160051b88010194826000906000915b84831061297f5750505050505084602061086b95968503910152612814565b9091929394977fffffffffffffffffffffffffffffffffffffffffffffffffffffffffffffffa08b820301855288357ffffffffffffffffffffffffffffffffffffffffffffffffffffffffffffffea1843603018112156129fa57600191846129e89201612853565b98602090810196950193019190612960565b8280fd5b6040513d6000823e3d90fd5b15612a1157565b60646040517f08c379a000000000000000000000000000000000000000000000000000000000815260206004820152601960248201527f49582d45503130205369676e61747572652065787069726564000000000000006044820152fd5b15612a7657565b60646040517f08c379a000000000000000000000000000000000000000000000000000000000815260206004820152601960248201527f49582d4550313120496e76616c6964207369676e6174757265000000000000006044820152fd5b15612adb57565b60646040517f08c379a000000000000000000000000000000000000000000000000000000000815260206004820152601d60248201527f49582d455031322043616c6c20646174612069732072657175697265640000006044820152fd5b908092918237016000815290565b909261086b949360c093600084526000602085015265ffffffffffff8092166040850152166060830152151560808201528160a08201520190612283565b906014116103285790601490565b7fffffffffffffffffffffffffffffffffffffffff0000000000000000000000009035818116939260148110612bc857505050565b60140360031b82901b16169150565b90816020910312610328575161086b816103f0565b91602061086b938181520191612814565b612c13612c0d6040830183612773565b90615ef8565b90612c24612c0d6060830183612773565b90612cda612c39612c0d610120840184612773565b60405194859360208501956101008201359260e08301359260c08101359260a08201359260808301359273ffffffffffffffffffffffffffffffffffffffff60208201359135168c9693909a9998959261012098959273ffffffffffffffffffffffffffffffffffffffff6101408a019d168952602089015260408801526060870152608086015260a085015260c084015260e08301526101008201520152565b0391612d0c7fffffffffffffffffffffffffffffffffffffffffffffffffffffffffffffffe09384810183528261056f565b51902060408051602081019283523091810191909152466060820152608092830181529091612d3b908261056f565b51902090565b73ffffffffffffffffffffffffffffffffffffffff90612d613482614a26565b168060005260006020527f2da466a7b24304f47e87fa2e1e5a81b9831ce54fec19055ce277ca2f39ba42c460206dffffffffffffffffffffffffffff60406000205416604051908152a2565b15612db457565b60646040517f08c379a000000000000000000000000000000000000000000000000000000000815260206004820152601160248201527f616c726561647920756e7374616b696e670000000000000000000000000000006044820152fd5b91909165ffffffffffff80809416911601918211611f9b57565b15612e3357565b60646040517f08c379a000000000000000000000000000000000000000000000000000000000815260206004820152601460248201527f4e6f207374616b6520746f2077697468647261770000000000000000000000006044820152fd5b15612e9857565b60646040517f08c379a000000000000000000000000000000000000000000000000000000000815260206004820152601d60248201527f6d7573742063616c6c20756e6c6f636b5374616b6528292066697273740000006044820152fd5b15612efd57565b60646040517f08c379a000000000000000000000000000000000000000000000000000000000815260206004820152601b60248201527f5374616b65207769746864726177616c206973206e6f742064756500000000006044820152fd5b15612f6257565b60646040517f08c379a000000000000000000000000000000000000000000000000000000000815260206004820152601860248201527f6661696c656420746f207769746864726177207374616b6500000000000000006044820152fd5b92909361086b96959260c0958552602085015265ffffffffffff8092166040850152166060830152151560808201528160a08201520190612283565b604051906040820182811067ffffffffffffffff82111761051d5760405260006020838281520152565b9060c060a061086b938051845260208101516020850152604081015115156040850152606081015165ffffffffffff809116606086015260808201511660808501520151918160a08201520190612283565b92946130d961041b956130c76101009599986130b56130a1602097610140808c528b0190613026565b9b878a019060208091805184520151910152565b80516060890152602001516080880152565b805160a08701526020015160c0860152565b73ffffffffffffffffffffffffffffffffffffffff81511660e0850152015191019060208091805184520151910152565b61315361041b9461314161312c60a0959998969960e0865260e0860190613026565b98602085019060208091805184520151910152565b80516060840152602001516080830152565b019060208091805184520151910152565b61041b33612d41565b9060009283809360208451940192f190565b3d6108008082116131a6575b50604051906020818301016040528082526000602083013e90565b90503861318b565b600311156131b857565b7f4e487b7100000000000000000000000000000000000000000000000000000000600052602160045260246000fd5b92919061320560409160028652606060208701526060860190612283565b930152565b9392919060038110156131b857604091613205918652606060208701526060860190612283565b60009060033d1161323e57565b905060046000803e60005160e01c90565b600060443d1061086b576040517ffffffffffffffffffffffffffffffffffffffffffffffffffffffffffffffffc91823d016004833e815167ffffffffffffffff918282113d6024840111176132cb578184019485519384116132d3573d850101602084870101116132cb575061086b9291016020019061056f565b949350505050565b50949350505050565b9061041b603660405180947f4141353020706f73744f702072657665727465643a200000000000000000000060208301526133208151809260208686019101612260565b810103601681018552018361056f565b909392915a9480519161334283614bd1565b9260a0810195613366875173ffffffffffffffffffffffffffffffffffffffff1690565b73ffffffffffffffffffffffffffffffffffffffff9381851691826134db575050506133a6825173ffffffffffffffffffffffffffffffffffffffff1690565b985b5a9003019384029760408401908982511061346e577f49628fd1471006c1482da88028e9ce4dbb080b815c9b0344d39e5a8e6ec1419f946133f26020928c61346995510390614a26565b6133fb886131ae565b01519489602061343d613422865173ffffffffffffffffffffffffffffffffffffffff1690565b9a5173ffffffffffffffffffffffffffffffffffffffff1690565b940151604080519182529815602082015297880152606087015290821695909116939081906080820190565b0390a4565b6040517f220266b600000000000000000000000000000000000000000000000000000000815280610ebc600482016080906000815260406020820152602060408201527f414135312070726566756e642062656c6f772061637475616c476173436f737460608201520190565b9a9181516134eb575b50506133a8565b8784026134f78a6131ae565b60028a14613574576060860151823b156103285761354a93600080948d604051978896879586937fa9a234090000000000000000000000000000000000000000000000000000000085526004850161320a565b0393f180156116ee57613561575b505b38806134e4565b80610ee261356e9261053f565b38613558565b6060860151823b15610328576135bf93600080948d604051978896879586937fa9a234090000000000000000000000000000000000000000000000000000000085526004850161320a565b0393f190816136a4575b5061369f576135d6613231565b6308c379a01461364e575b6040517f220266b600000000000000000000000000000000000000000000000000000000815280610ebc600482016080906000815260406020820152601260408201527f4141353020706f73744f7020726576657274000000000000000000000000000060608201520190565b61365661324f565b8061366157506135e1565b61366d610ebc916132dc565b6040519182917f220266b6000000000000000000000000000000000000000000000000000000008352600483016122c6565b61355a565b80610ee26136b19261053f565b386135c9565b929190925a936000918051916136cc83614bd1565b9260a08101956136f0875173ffffffffffffffffffffffffffffffffffffffff1690565b73ffffffffffffffffffffffffffffffffffffffff939084811690816137d257505050613731825173ffffffffffffffffffffffffffffffffffffffff1690565b985b5a9003019384029760408401908982511061346e577f49628fd1471006c1482da88028e9ce4dbb080b815c9b0344d39e5a8e6ec1419f9461377d6020928c61346995510390614a26565b0151948960206137a4613422865173ffffffffffffffffffffffffffffffffffffffff1690565b9401519785604051968796169a16988590949392606092608083019683521515602083015260408201520152565b9a9180516137e2575b5050613733565b6060850151600099509091803b15613866579189918983613835956040518097819682957fa9a234090000000000000000000000000000000000000000000000000000000084528c0290600484016131e7565b0393f19081613853575b5061384c576135d6613231565b38806137db565b80610ee26138609261053f565b3861383f565b8980fd5b9392915a9060009280519061387e82614bd1565b9360a08301966138a2885173ffffffffffffffffffffffffffffffffffffffff1690565b73ffffffffffffffffffffffffffffffffffffffff95908681169081613998575050506138e3845173ffffffffffffffffffffffffffffffffffffffff1690565b915b5a9003019485029860408301908a82511061393257507f49628fd1471006c1482da88028e9ce4dbb080b815c9b0344d39e5a8e6ec1419f94939261377d613469938c602094510390614a26565b604080517f220266b600000000000000000000000000000000000000000000000000000000815260048101929092526024820152602060448201527f414135312070726566756e642062656c6f772061637475616c476173436f73746064820152608490fd5b939180516139a8575b50506138e5565b606087015160009a509091803b15613af057918a918a836139fb956040518097819682957fa9a234090000000000000000000000000000000000000000000000000000000084528c0290600484016131e7565b0393f19081613add575b50613ad6578a613a13613231565b6308c379a014613a84575b604080517f220266b600000000000000000000000000000000000000000000000000000000815260048101929092526024820152601260448201527f4141353020706f73744f702072657665727400000000000000000000000000006064820152608490fd5b613a8c61324f565b80613a975750613a1e565b613aa0906132dc565b90610ebc6040519283927f220266b6000000000000000000000000000000000000000000000000000000008452600484016122de565b38806139a1565b80610ee2613aea9261053f565b38613a05565b8a80fd5b6002805414613b035760028055565b60646040517f08c379a000000000000000000000000000000000000000000000000000000000815260206004820152601f60248201527f5265656e7472616e637947756172643a207265656e7472616e742063616c6c006044820152fd5b15613b6857565b60646040517f08c379a000000000000000000000000000000000000000000000000000000000815260206004820152601860248201527f41413934206761732076616c756573206f766572666c6f7700000000000000006044820152fd5b9290916000925a8251613bd9818461473f565b613be283612bfd565b6020850152613c206effffffffffffffffffffffffffffff60808301516060840151176040840151176101008601359060e087013517171115613b61565b613c2981614bf9565b613c358186868b614fe6565b9890613c6661237e613c5b865173ffffffffffffffffffffffffffffffffffffffff1690565b6020870151906151fd565b613d5e57613c7343600052565b73ffffffffffffffffffffffffffffffffffffffff613cab60a0606096015173ffffffffffffffffffffffffffffffffffffffff1690565b16613d43575b505a840360a086013510613cdd5750604085015260608401526080919060c0905a900391013501910152565b604080517f220266b600000000000000000000000000000000000000000000000000000000815260048101929092526024820152601e60448201527f41413430206f76657220766572696669636174696f6e4761734c696d697400006064820152608490fd5b90925081613d55929850868685615600565b96909138613cb1565b610ebc826040519182917f220266b600000000000000000000000000000000000000000000000000000000835260048301608091815260406020820152601a60408201527f4141323520696e76616c6964206163636f756e74206e6f6e636500000000000060608201520190565b916000915a93815190613ddf828261473f565b613e186effffffffffffffffffffffffffffff60808401516060850151176040850151176101008401359060e085013517171115613b61565b613e2182614bf9565b613e2c818584614cba565b9790613e5d61237e613e52875173ffffffffffffffffffffffffffffffffffffffff1690565b6020880151906151fd565b613f5957613e6a43600052565b73ffffffffffffffffffffffffffffffffffffffff613ea260a0606097015173ffffffffffffffffffffffffffffffffffffffff1690565b16613f3f575b505a810360a084013510613ed25760809360c092604087015260608601525a900391013501910152565b6040517f220266b600000000000000000000000000000000000000000000000000000000815280610ebc600482016080906000815260406020820152601e60408201527f41413430206f76657220766572696669636174696f6e4761734c696d6974000060608201520190565b90935081613f509297508584615381565b95909238613ea8565b6040517f220266b600000000000000000000000000000000000000000000000000000000815280610ebc600482016080906000815260406020820152601a60408201527f4141323520696e76616c6964206163636f756e74206e6f6e636500000000000060608201520190565b916000915a93815190613fd9828261473f565b613fe281612bfd565b6020840152613e186effffffffffffffffffffffffffffff60808401516060850151176040850151176101008401359060e085013517171115613b61565b919061402b9061581e565b73ffffffffffffffffffffffffffffffffffffffff929183166141ca5761415c576140559061581e565b91166140ee576140625750565b604080517f220266b600000000000000000000000000000000000000000000000000000000815260048101929092526024820152602160448201527f41413332207061796d61737465722065787069726564206f72206e6f7420647560648201527f6500000000000000000000000000000000000000000000000000000000000000608482015260a490fd5b610ebc826040519182917f220266b600000000000000000000000000000000000000000000000000000000835260048301608091815260406020820152601460408201527f41413334207369676e6174757265206572726f7200000000000000000000000060608201520190565b610ebc836040519182917f220266b600000000000000000000000000000000000000000000000000000000835260048301608091815260406020820152601760408201527f414132322065787069726564206f72206e6f742064756500000000000000000060608201520190565b610ebc846040519182917f220266b600000000000000000000000000000000000000000000000000000000835260048301608091815260406020820152601460408201527f41413234207369676e6174757265206572726f7200000000000000000000000060608201520190565b9291906142449061581e565b909273ffffffffffffffffffffffffffffffffffffffff808095169116036141ca5761415c576140559061581e565b90816020910312610328575190565b9061429c60809161086b96946101c0808652850191612814565b9360e0815173ffffffffffffffffffffffffffffffffffffffff80825116602087015260208201516040870152604082015160608701526060820151858701528482015160a087015260a08201511660c086015260c081015182860152015161010084015260208101516101208401526040810151610140840152606081015161016084015201516101808201526101a0818403910152612283565b905a918160206143516060830151936060810190612773565b9061438a8560405195869485947f1d73275600000000000000000000000000000000000000000000000000000000865260048601614282565b03816000305af160009181614465575b5061445e575060206000803e7fdeaddead00000000000000000000000000000000000000000000000000000000600051146143f1576143eb6143e061086b945a906125ce565b608084015190611f8e565b916136b7565b6040517f220266b600000000000000000000000000000000000000000000000000000000815280610ebc600482016080906000815260406020820152600f60408201527f41413935206f7574206f6620676173000000000000000000000000000000000060608201520190565b9250505090565b61448891925060203d60201161448f575b614480818361056f565b810190614273565b903861439a565b503d614476565b909291925a938060206144b26060830151946060810190612773565b906144eb8660405195869485947f1d73275600000000000000000000000000000000000000000000000000000000865260048601614282565b03816000305af1600091816145c8575b506145c1575060206000803e7fdeaddead00000000000000000000000000000000000000000000000000000000600051146145535761454d61454261086b95965a906125ce565b608083015190611f8e565b9261386a565b610ebc836040519182917f220266b600000000000000000000000000000000000000000000000000000000835260048301608091815260406020820152600f60408201527f41413935206f7574206f6620676173000000000000000000000000000000000060608201520190565b9450505050565b6145e291925060203d60201161448f57614480818361056f565b90386144fb565b73ffffffffffffffffffffffffffffffffffffffff16801561467c57600080809381935af16146166125db565b501561461e57565b60646040517f08c379a000000000000000000000000000000000000000000000000000000000815260206004820152601f60248201527f41413931206661696c65642073656e6420746f2062656e6566696369617279006044820152fd5b60646040517f08c379a000000000000000000000000000000000000000000000000000000000815260206004820152601860248201527f4141393020696e76616c69642062656e656669636961727900000000000000006044820152fd5b156146e157565b60646040517f08c379a000000000000000000000000000000000000000000000000000000000815260206004820152601d60248201527f4141393320696e76616c6964207061796d6173746572416e64446174610000006044820152fd5b6147b19061476961474f82612704565b73ffffffffffffffffffffffffffffffffffffffff168452565b602081013560208401526080810135604084015260a0810135606084015260c0810135608084015260e081013560c084015261010081013560e0840152610120810190612773565b9081156147f6576147db6114c86114c28460a0946147d6601461041b999810156146da565b612b85565b73ffffffffffffffffffffffffffffffffffffffff16910152565b505060a06000910152565b9061483073ffffffffffffffffffffffffffffffffffffffff9161086b97959694606085526060850191612814565b941660208201526040818503910152612814565b6148516040820182612773565b61486961485d84612704565b93610120810190612773565b9290303b15610328576000936148ad9160405196879586957f957122ab00000000000000000000000000000000000000000000000000000000875260048701614801565b0381305afa908161492e575b5061041b5760016148c8613231565b6308c379a0146148d9575b6116ee57565b6148e161324f565b806148ed575b506148d3565b805160009250156148e757610ebc906040519182917f220266b6000000000000000000000000000000000000000000000000000000008352600483016122c6565b80610ee261493b9261053f565b386148b9565b73ffffffffffffffffffffffffffffffffffffffff16600052600060205260406000206dffffffffffffffffffffffffffff908181541691808301809311611f9b578083116149c85761041b92166dffffffffffffffffffffffffffff167fffffffffffffffffffffffffffffffffffff0000000000000000000000000000825416179055565b60646040517f08c379a000000000000000000000000000000000000000000000000000000000815260206004820152601060248201527f6465706f736974206f766572666c6f77000000000000000000000000000000006044820152fd5b73ffffffffffffffffffffffffffffffffffffffff16600052600060205260406000206dffffffffffffffffffffffffffff80825416928301809311611f9b578083116149c85761041b92166dffffffffffffffffffffffffffff167fffffffffffffffffffffffffffffffffffff0000000000000000000000000000825416179055565b60405190614ab882610553565b60006040838281528260208201520152565b614adf614ae591614ad9614aab565b5061587a565b9161587a565b9073ffffffffffffffffffffffffffffffffffffffff9182825116928315614b71575b65ffffffffffff928391826040816020850151169301511693836040816020840151169201511690808410614b69575b50808511614b61575b5060405195614b4f87610553565b16855216602084015216604082015290565b935038614b41565b925038614b38565b815181169350614b08565b9073ffffffffffffffffffffffffffffffffffffffff614b9a612ffc565b9216600052600060205263ffffffff600160406000206dffffffffffffffffffffffffffff815460781c1685520154166020830152565b60e060c0820151910151808214614bf557480180821015614bf0575090565b905090565b5090565b60a081015173ffffffffffffffffffffffffffffffffffffffff1615614c3b5760c060035b60ff60408401519116606084015102016080830151019101510290565b60c06001614c1e565b614c5c60409295949395606083526060830190612853565b9460208201520152565b9061041b602f60405180947f414132332072657665727465643a2000000000000000000000000000000000006020830152614caa8151809260208686019101612260565b810103600f81018552018361056f565b90915a91614d876020855195614ce4875173ffffffffffffffffffffffffffffffffffffffff1690565b93614cfc614cf56040830183612773565b90846158d5565b60a088015173ffffffffffffffffffffffffffffffffffffffff1690614d2143600052565b60009273ffffffffffffffffffffffffffffffffffffffff80931615998a614f78575b90856060600093015191015192604051978896879586937f3a871cdd00000000000000000000000000000000000000000000000000000000855260048501614c44565b0393881690f160009181614f57575b50614e3a57614da3613231565b6308c379a014614e1b575b6040517f220266b600000000000000000000000000000000000000000000000000000000815280610ebc600482016080906000815260406020820152601660408201527f4141323320726576657274656420286f72204f4f47290000000000000000000060608201520190565b614e2361324f565b80614e2e5750614dae565b61366d610ebc91614c66565b93614e48575b50505a900391565b614e729073ffffffffffffffffffffffffffffffffffffffff166000526000602052604060002090565b614e8d6109de82546dffffffffffffffffffffffffffff1690565b808311614eea57614ee3926dffffffffffffffffffffffffffff9103166dffffffffffffffffffffffffffff167fffffffffffffffffffffffffffffffffffff0000000000000000000000000000825416179055565b3880614e40565b6040517f220266b600000000000000000000000000000000000000000000000000000000815280610ebc600482016080906000815260406020820152601760408201527f41413231206469646e2774207061792070726566756e6400000000000000000060608201520190565b614f7191925060203d60201161448f57614480818361056f565b9038614d96565b9350600090614fc16109de614fad8a73ffffffffffffffffffffffffffffffffffffffff166000526000602052604060002090565b546dffffffffffffffffffffffffffff1690565b8981118314614fdb5750856060835b969293505050614d44565b606087918b03614fd0565b93925a916150296020855195615010875173ffffffffffffffffffffffffffffffffffffffff1690565b93614cfc6150216040830183612773565b90848d615be7565b0393881690f1600091816151dc575b506150d35786615046613231565b6308c379a0146150b7575b604080517f220266b600000000000000000000000000000000000000000000000000000000815260048101929092526024820152601660448201527f4141323320726576657274656420286f72204f4f4729000000000000000000006064820152608490fd5b6150bf61324f565b806150ca5750615051565b613aa090614c66565b949592936150e5575b5050505a900391565b61510f9073ffffffffffffffffffffffffffffffffffffffff166000526000602052604060002090565b9161512b6109de84546dffffffffffffffffffffffffffff1690565b90818311615176575082547fffffffffffffffffffffffffffffffffffff0000000000000000000000000000169190036dffffffffffffffffffffffffffff161790553880806150dc565b604080517f220266b600000000000000000000000000000000000000000000000000000000815260048101929092526024820152601760448201527f41413231206469646e2774207061792070726566756e640000000000000000006064820152608490fd5b6151f691925060203d60201161448f57614480818361056f565b9038615038565b73ffffffffffffffffffffffffffffffffffffffff16600052600160205267ffffffffffffffff6152598260401c60406000209077ffffffffffffffffffffffffffffffffffffffffffffffff16600052602052604060002090565b91825492615266846121ce565b9055161490565b1561527457565b60646040517f08c379a000000000000000000000000000000000000000000000000000000000815260206004820152601f60248201527f4141343120746f6f206c6974746c6520766572696669636174696f6e476173006044820152fd5b919060408382031261032857825167ffffffffffffffff81116103285783019080601f8301121561032857815191615309836105fd565b91615317604051938461056f565b838352602084830101116103285760209261533791848085019101612260565b92015190565b9061041b602f60405180947f414133332072657665727465643a2000000000000000000000000000000000006020830152614caa8151809260208686019101612260565b91909392938051926153ba60a060608601519561539f89881161526d565b015173ffffffffffffffffffffffffffffffffffffffff1690565b916153e58373ffffffffffffffffffffffffffffffffffffffff166000526000602052604060002090565b946154016109de87546dffffffffffffffffffffffffffff1690565b978589106155935773ffffffffffffffffffffffffffffffffffffffff6020600098946154788a966dffffffffffffffffffffffffffff8b6154b19f03166dffffffffffffffffffffffffffff167fffffffffffffffffffffffffffffffffffff0000000000000000000000000000825416179055565b0151946040519a8b98899788937ff465c77e00000000000000000000000000000000000000000000000000000000855260048501614c44565b0395169103f1918260009160009461556c575b50615568576154d1613231565b6308c379a014615549575b6040517f220266b600000000000000000000000000000000000000000000000000000000815280610ebc600482016080906000815260406020820152601660408201527f4141333320726576657274656420286f72204f4f47290000000000000000000060608201520190565b61555161324f565b8061555c57506154dc565b61366d610ebc9161533d565b9190565b90935061558c91503d806000833e615584818361056f565b8101906152d2565b92386154c4565b6040517f220266b600000000000000000000000000000000000000000000000000000000815280610ebc600482016080906000815260406020820152601e60408201527f41413331207061796d6173746572206465706f73697420746f6f206c6f77000060608201520190565b939094929194855161561e60a060608301519261539f86851161526d565b926156498473ffffffffffffffffffffffffffffffffffffffff166000526000602052604060002090565b6156646109de82546dffffffffffffffffffffffffffff1690565b8681106157b0579173ffffffffffffffffffffffffffffffffffffffff60206156df9a9b6154788a999897956dffffffffffffffffffffffffffff60009c8d9903166dffffffffffffffffffffffffffff167fffffffffffffffffffffffffffffffffffff0000000000000000000000000000825416179055565b0395169103f19182600091600094615791575b5061578d5783615700613231565b6308c379a014615771575b604080517f220266b600000000000000000000000000000000000000000000000000000000815260048101929092526024820152601660448201527f4141333320726576657274656420286f72204f4f4729000000000000000000006064820152608490fd5b61577961324f565b80615784575061570b565b613aa09061533d565b9250565b9093506157a991503d806000833e615584818361056f565b92386156f2565b610ebc896040519182917f220266b600000000000000000000000000000000000000000000000000000000835260048301608091815260406020820152601e60408201527f41413331207061796d6173746572206465706f73697420746f6f206c6f77000060608201520190565b80156158715761582d9061587a565b73ffffffffffffffffffffffffffffffffffffffff65ffffffffffff806040840151164211908115615861575b5091511691565b905060208301511642103861585a565b50600090600090565b615882614aab565b5065ffffffffffff808260a01c1680156158ce575b604051926158a484610553565b73ffffffffffffffffffffffffffffffffffffffff8116845260d01c602084015216604082015290565b5080615897565b9091806158e157505050565b81515173ffffffffffffffffffffffffffffffffffffffff1692833b615b7a5773ffffffffffffffffffffffffffffffffffffffff60608451015190602060405180937f570e1a36000000000000000000000000000000000000000000000000000000008252816000816159598a8a60048401612bec565b0392867f00000000000000000000000000000000000000000000000000000000000000001690f19182156116ee57600092615b59575b50808216958615615aec5716809503615a7f573b15615a12576114c86114c27fd51a9c61267aa6196961883ecf5ff2da6619c37dac0fa92122513fb32c032d2d936159d993612b85565b602083810151935160a001516040805173ffffffffffffffffffffffffffffffffffffffff9485168152939091169183019190915290a3565b6040517f220266b600000000000000000000000000000000000000000000000000000000815280610ebc600482016080906000815260406020820152602060408201527f4141313520696e6974436f6465206d757374206372656174652073656e64657260608201520190565b6040517f220266b600000000000000000000000000000000000000000000000000000000815280610ebc600482016080906000815260406020820152602060408201527f4141313420696e6974436f6465206d7573742072657475726e2073656e64657260608201520190565b6040517f220266b600000000000000000000000000000000000000000000000000000000815280610ebc600482016080906000815260406020820152601b60408201527f4141313320696e6974436f6465206661696c6564206f72204f4f47000000000060608201520190565b615b7391925060203d6020116116e7576116d8818361056f565b903861598f565b6040517f220266b600000000000000000000000000000000000000000000000000000000815280610ebc600482016080906000815260406020820152601f60408201527f414131302073656e64657220616c726561647920636f6e73747275637465640060608201520190565b92909181615bf6575b50505050565b82515173ffffffffffffffffffffffffffffffffffffffff1693843b615e925773ffffffffffffffffffffffffffffffffffffffff60608551015190602060405180937f570e1a3600000000000000000000000000000000000000000000000000000000825281600081615c6e8b8b60048401612bec565b0392867f00000000000000000000000000000000000000000000000000000000000000001690f19182156116ee57600092615e71575b50808216968715615e035716809603615d95573b15615d2f57506114c86114c27fd51a9c61267aa6196961883ecf5ff2da6619c37dac0fa92122513fb32c032d2d93615cef93612b85565b602083810151935160a001516040805173ffffffffffffffffffffffffffffffffffffffff9485168152939091169183019190915290a338808080615bf0565b604080517f220266b600000000000000000000000000000000000000000000000000000000815260048101929092526024820152602060448201527f4141313520696e6974436f6465206d757374206372656174652073656e6465726064820152608490fd5b610ebc826040519182917f220266b600000000000000000000000000000000000000000000000000000000835260048301608091815260406020820152602060408201527f4141313420696e6974436f6465206d7573742072657475726e2073656e64657260608201520190565b610ebc846040519182917f220266b600000000000000000000000000000000000000000000000000000000835260048301608091815260406020820152601b60408201527f4141313320696e6974436f6465206661696c6564206f72204f4f47000000000060608201520190565b615e8b91925060203d6020116116e7576116d8818361056f565b9038615ca4565b604080517f220266b600000000000000000000000000000000000000000000000000000000815260048101929092526024820152601f60448201527f414131302073656e64657220616c726561647920636f6e7374727563746564006064820152608490fd5b81604051918237209056fea2646970667358221220ddd5ce4b692ec5f3e61c6b470806fc79a75d44260a03b35f560c6b208c19813e64736f6c6343000817003360808060405234610016576101f8908161001c8239f35b600080fdfe6080604052600436101561001257600080fd5b6000803560e01c63570e1a361461002857600080fd5b346100c95760207ffffffffffffffffffffffffffffffffffffffffffffffffffffffffffffffffc3601126100c95760043567ffffffffffffffff918282116100c957366023830112156100c95781600401359283116100c95736602484840101116100c9576100c561009e84602485016100fb565b60405173ffffffffffffffffffffffffffffffffffffffff90911681529081906020820190565b0390f35b80fd5b7f4e487b7100000000000000000000000000000000000000000000000000000000600052604160045260246000fd5b90806014116101b85767ffffffffffffffff917fffffffffffffffffffffffffffffffffffffffffffffffffffffffffffffffec82018381116101bd5760405193600b84017fffffffffffffffffffffffffffffffffffffffffffffffffffffffffffffffe0908116603f01168501908111858210176101bd57604052808452602084019036848401116101b8576020946000600c819682946014880187378301015251923560601c5af19060005191156101b257565b60009150565b600080fd5b6100cc56fea26469706673582212205d087120ca3751a1028618ec3730092f7b07f16ef9d169e1b916cb636f7aa2eb64736f6c63430008170033"
}