{
  "address": "0x68e6260E34C18ca188927768499C9d19dE44D01F",
  "abi": [
    {
      "inputs": [
        {
          "internalType": "uint256",
          "name": "preOpGas",
          "type": "uint256"
        },
        {
          "internalType": "uint256",
          "name": "paid",
          "type": "uint256"
        },
        {
          "internalType": "uint48",
          "name": "validAfter",
          "type": "uint48"
        },
        {
          "internalType": "uint48",
          "name": "validUntil",
          "type": "uint48"
        },
        {
          "internalType": "bool",
          "name": "targetSuccess",
          "type": "bool"
        },
        {
          "internalType": "bytes",
          "name": "targetResult",
          "type": "bytes"
        }
      ],
      "name": "ExecutionResult",
      "type": "error"
    },
    {
      "inputs": [
        {
          "internalType": "uint256",
          "name": "opIndex",
          "type": "uint256"
        },
        {
          "internalType": "string",
          "name": "reason",
          "type": "string"
        }
      ],
      "name": "FailedOp",
      "type": "error"
    },
    {
      "inputs": [
        {
          "internalType": "address",
          "name": "sender",
          "type": "address"
        }
      ],
      "name": "SenderAddressResult",
      "type": "error"
    },
    {
      "inputs": [
        {
          "internalType": "address",
          "name": "aggregator",
          "type": "address"
        }
      ],
      "name": "SignatureValidationFailed",
      "type": "error"
    },
    {
      "inputs": [
        {
          "components": [
            {
              "internalType": "uint256",
              "name": "preOpGas",
              "type": "uint256"
            },
            {
              "internalType": "uint256",
              "name": "prefund",
              "type": "uint256"
            },
            {
              "internalType": "bool",
              "name": "sigFailed",
              "type": "bool"
            },
            {
              "internalType": "uint48",
              "name": "validAfter",
              "type": "uint48"
            },
            {
              "internalType": "uint48",
              "name": "validUntil",
              "type": "uint48"
            },
            {
              "internalType": "bytes",
              "name": "paymasterContext",
              "type": "bytes"
            }
          ],
          "internalType": "struct IEntryPoint.ReturnInfo",
          "name": "returnInfo",
          "type": "tuple"
        },
        {
          "components": [
            {
              "internalType": "uint256",
              "name": "stake",
              "type": "uint256"
            },
            {
              "internalType": "uint256",
              "name": "unstakeDelaySec",
              "type": "uint256"
            }
          ],
          "internalType": "struct IStakeManager.StakeInfo",
          "name": "senderInfo",
          "type": "tuple"
        },
        {
          "components": [
            {
              "internalType": "uint256",
              "name": "stake",
              "type": "uint256"
            },
            {
              "internalType": "uint256",
              "name": "unstakeDelaySec",
              "type": "uint256"
            }
          ],
          "internalType": "struct IStakeManager.StakeInfo",
          "name": "factoryInfo",
          "type": "tuple"
        },
        {
          "components": [
            {
              "internalType": "uint256",
              "name": "stake",
              "type": "uint256"
            },
            {
              "internalType": "uint256",
              "name": "unstakeDelaySec",
              "type": "uint256"
            }
          ],
          "internalType": "struct IStakeManager.StakeInfo",
          "name": "paymasterInfo",
          "type": "tuple"
        }
      ],
      "name": "ValidationResult",
      "type": "error"
    },
    {
      "inputs": [
        {
          "components": [
            {
              "internalType": "uint256",
              "name": "preOpGas",
              "type": "uint256"
            },
            {
              "internalType": "uint256",
              "name": "prefund",
              "type": "uint256"
            },
            {
              "internalType": "bool",
              "name": "sigFailed",
              "type": "bool"
            },
            {
              "internalType": "uint48",
              "name": "validAfter",
              "type": "uint48"
            },
            {
              "internalType": "uint48",
              "name": "validUntil",
              "type": "uint48"
            },
            {
              "internalType": "bytes",
              "name": "paymasterContext",
              "type": "bytes"
            }
          ],
          "internalType": "struct IEntryPoint.ReturnInfo",
          "name": "returnInfo",
          "type": "tuple"
        },
        {
          "components": [
            {
              "internalType": "uint256",
              "name": "stake",
              "type": "uint256"
            },
            {
              "internalType": "uint256",
              "name": "unstakeDelaySec",
              "type": "uint256"
            }
          ],
          "internalType": "struct IStakeManager.StakeInfo",
          "name": "senderInfo",
          "type": "tuple"
        },
        {
          "components": [
            {
              "internalType": "uint256",
              "name": "stake",
              "type": "uint256"
            },
            {
              "internalType": "uint256",
              "name": "unstakeDelaySec",
              "type": "uint256"
            }
          ],
          "internalType": "struct IStakeManager.StakeInfo",
          "name": "factoryInfo",
          "type": "tuple"
        },
        {
          "components": [
            {
              "internalType": "uint256",
              "name": "stake",
              "type": "uint256"
            },
            {
              "internalType": "uint256",
              "name": "unstakeDelaySec",
              "type": "uint256"
            }
          ],
          "internalType": "struct IStakeManager.StakeInfo",
          "name": "paymasterInfo",
          "type": "tuple"
        },
        {
          "components": [
            {
              "internalType": "address",
              "name": "aggregator",
              "type": "address"
            },
            {
              "components": [
                {
                  "internalType": "uint256",
                  "name": "stake",
                  "type": "uint256"
                },
                {
                  "internalType": "uint256",
                  "name": "unstakeDelaySec",
                  "type": "uint256"
                }
              ],
              "internalType": "struct IStakeManager.StakeInfo",
              "name": "stakeInfo",
              "type": "tuple"
            }
          ],
          "internalType": "struct IEntryPoint.AggregatorStakeInfo",
          "name": "aggregatorInfo",
          "type": "tuple"
        }
      ],
      "name": "ValidationResultWithAggregation",
      "type": "error"
    },
    {
      "anonymous": false,
      "inputs": [
        {
          "indexed": true,
          "internalType": "bytes32",
          "name": "userOpHash",
          "type": "bytes32"
        },
        {
          "indexed": true,
          "internalType": "address",
          "name": "sender",
          "type": "address"
        },
        {
          "indexed": false,
          "internalType": "address",
          "name": "factory",
          "type": "address"
        },
        {
          "indexed": false,
          "internalType": "address",
          "name": "paymaster",
          "type": "address"
        }
      ],
      "name": "AccountDeployed",
      "type": "event"
    },
    {
      "anonymous": false,
      "inputs": [],
      "name": "BeforeExecution",
      "type": "event"
    },
    {
      "anonymous": false,
      "inputs": [
        {
          "indexed": true,
          "internalType": "address",
          "name": "account",
          "type": "address"
        },
        {
          "indexed": false,
          "internalType": "uint256",
          "name": "totalDeposit",
          "type": "uint256"
        }
      ],
      "name": "Deposited",
      "type": "event"
    },
    {
      "anonymous": false,
      "inputs": [
        {
          "indexed": true,
          "internalType": "address",
          "name": "aggregator",
          "type": "address"
        }
      ],
      "name": "SignatureAggregatorChanged",
      "type": "event"
    },
    {
      "anonymous": false,
      "inputs": [
        {
          "indexed": true,
          "internalType": "address",
          "name": "account",
          "type": "address"
        },
        {
          "indexed": false,
          "internalType": "uint256",
          "name": "totalStaked",
          "type": "uint256"
        },
        {
          "indexed": false,
          "internalType": "uint256",
          "name": "unstakeDelaySec",
          "type": "uint256"
        }
      ],
      "name": "StakeLocked",
      "type": "event"
    },
    {
      "anonymous": false,
      "inputs": [
        {
          "indexed": true,
          "internalType": "address",
          "name": "account",
          "type": "address"
        },
        {
          "indexed": false,
          "internalType": "uint256",
          "name": "withdrawTime",
          "type": "uint256"
        }
      ],
      "name": "StakeUnlocked",
      "type": "event"
    },
    {
      "anonymous": false,
      "inputs": [
        {
          "indexed": true,
          "internalType": "address",
          "name": "account",
          "type": "address"
        },
        {
          "indexed": false,
          "internalType": "address",
          "name": "withdrawAddress",
          "type": "address"
        },
        {
          "indexed": false,
          "internalType": "uint256",
          "name": "amount",
          "type": "uint256"
        }
      ],
      "name": "StakeWithdrawn",
      "type": "event"
    },
    {
      "anonymous": false,
      "inputs": [
        {
          "indexed": true,
          "internalType": "bytes32",
          "name": "userOpHash",
          "type": "bytes32"
        },
        {
          "indexed": true,
          "internalType": "address",
          "name": "sender",
          "type": "address"
        },
        {
          "indexed": true,
          "internalType": "address",
          "name": "paymaster",
          "type": "address"
        },
        {
          "indexed": false,
          "internalType": "uint256",
          "name": "nonce",
          "type": "uint256"
        },
        {
          "indexed": false,
          "internalType": "bool",
          "name": "success",
          "type": "bool"
        },
        {
          "indexed": false,
          "internalType": "uint256",
          "name": "actualGasCost",
          "type": "uint256"
        },
        {
          "indexed": false,
          "internalType": "uint256",
          "name": "actualGasUsed",
          "type": "uint256"
        }
      ],
      "name": "UserOperationEvent",
      "type": "event"
    },
    {
      "anonymous": false,
      "inputs": [
        {
          "indexed": true,
          "internalType": "bytes32",
          "name": "userOpHash",
          "type": "bytes32"
        },
        {
          "indexed": true,
          "internalType": "address",
          "name": "sender",
          "type": "address"
        },
        {
          "indexed": false,
          "internalType": "uint256",
          "name": "nonce",
          "type": "uint256"
        },
        {
          "indexed": false,
          "internalType": "bytes",
          "name": "revertReason",
          "type": "bytes"
        }
      ],
      "name": "UserOperationRevertReason",
      "type": "event"
    },
    {
      "anonymous": false,
      "inputs": [
        {
          "indexed": true,
          "internalType": "address",
          "name": "account",
          "type": "address"
        },
        {
          "indexed": false,
          "internalType": "address",
          "name": "withdrawAddress",
          "type": "address"
        },
        {
          "indexed": false,
          "internalType": "uint256",
          "name": "amount",
          "type": "uint256"
        }
      ],
      "name": "Withdrawn",
      "type": "event"
    },
    {
      "inputs": [],
      "name": "SIG_VALIDATION_FAILED",
      "outputs": [
        {
          "internalType": "uint256",
          "name": "",
          "type": "uint256"
        }
      ],
      "stateMutability": "view",
      "type": "function"
    },
    {
      "inputs": [
        {
          "internalType": "bytes",
          "name": "initCode",
          "type": "bytes"
        },
        {
          "internalType": "address",
          "name": "sender",
          "type": "address"
        },
        {
          "internalType": "bytes",
          "name": "paymasterAndData",
          "type": "bytes"
        }
      ],
      "name": "_validateSenderAndPaymaster",
      "outputs": [],
      "stateMutability": "view",
      "type": "function"
    },
    {
      "inputs": [
        {
          "internalType": "uint32",
          "name": "unstakeDelaySec",
          "type": "uint32"
        }
      ],
      "name": "addStake",
      "outputs": [],
      "stateMutability": "payable",
      "type": "function"
    },
    {
      "inputs": [
        {
          "internalType": "address",
          "name": "account",
          "type": "address"
        }
      ],
      "name": "balanceOf",
      "outputs": [
        {
          "internalType": "uint256",
          "name": "",
          "type": "uint256"
        }
      ],
      "stateMutability": "view",
      "type": "function"
    },
    {
      "inputs": [
        {
          "internalType": "address",
          "name": "account",
          "type": "address"
        }
      ],
      "name": "depositTo",
      "outputs": [],
      "stateMutability": "payable",
      "type": "function"
    },
    {
      "inputs": [
        {
          "internalType": "address",
          "name": "",
          "type": "address"
        }
      ],
      "name": "deposits",
      "outputs": [
        {
          "internalType": "uint112",
          "name": "deposit",
          "type": "uint112"
        },
        {
          "internalType": "bool",
          "name": "staked",
          "type": "bool"
        },
        {
          "internalType": "uint112",
          "name": "stake",
          "type": "uint112"
        },
        {
          "internalType": "uint32",
          "name": "unstakeDelaySec",
          "type": "uint32"
        },
        {
          "internalType": "uint48",
          "name": "withdrawTime",
          "type": "uint48"
        }
      ],
      "stateMutability": "view",
      "type": "function"
    },
    {
      "inputs": [
        {
          "internalType": "address",
          "name": "account",
          "type": "address"
        }
      ],
      "name": "getDepositInfo",
      "outputs": [
        {
          "components": [
            {
              "internalType": "uint112",
              "name": "deposit",
              "type": "uint112"
            },
            {
              "internalType": "bool",
              "name": "staked",
              "type": "bool"
            },
            {
              "internalType": "uint112",
              "name": "stake",
              "type": "uint112"
            },
            {
              "internalType": "uint32",
              "name": "unstakeDelaySec",
              "type": "uint32"
            },
            {
              "internalType": "uint48",
              "name": "withdrawTime",
              "type": "uint48"
            }
          ],
          "internalType": "struct IStakeManager.DepositInfo",
          "name": "info",
          "type": "tuple"
        }
      ],
      "stateMutability": "view",
      "type": "function"
    },
    {
      "inputs": [
        {
          "internalType": "address",
          "name": "sender",
          "type": "address"
        },
        {
          "internalType": "uint192",
          "name": "key",
          "type": "uint192"
        }
      ],
      "name": "getNonce",
      "outputs": [
        {
          "internalType": "uint256",
          "name": "nonce",
          "type": "uint256"
        }
      ],
      "stateMutability": "view",
      "type": "function"
    },
    {
      "inputs": [
        {
          "internalType": "bytes",
          "name": "initCode",
          "type": "bytes"
        }
      ],
      "name": "getSenderAddress",
      "outputs": [],
      "stateMutability": "nonpayable",
      "type": "function"
    },
    {
      "inputs": [
        {
          "components": [
            {
              "internalType": "address",
              "name": "sender",
              "type": "address"
            },
            {
              "internalType": "uint256",
              "name": "nonce",
              "type": "uint256"
            },
            {
              "internalType": "bytes",
              "name": "initCode",
              "type": "bytes"
            },
            {
              "internalType": "bytes",
              "name": "callData",
              "type": "bytes"
            },
            {
              "internalType": "uint256",
              "name": "callGasLimit",
              "type": "uint256"
            },
            {
              "internalType": "uint256",
              "name": "verificationGasLimit",
              "type": "uint256"
            },
            {
              "internalType": "uint256",
              "name": "preVerificationGas",
              "type": "uint256"
            },
            {
              "internalType": "uint256",
              "name": "maxFeePerGas",
              "type": "uint256"
            },
            {
              "internalType": "uint256",
              "name": "maxPriorityFeePerGas",
              "type": "uint256"
            },
            {
              "internalType": "bytes",
              "name": "paymasterAndData",
              "type": "bytes"
            },
            {
              "internalType": "bytes",
              "name": "signature",
              "type": "bytes"
            }
          ],
          "internalType": "struct UserOperation",
          "name": "userOp",
          "type": "tuple"
        }
      ],
      "name": "getUserOpHash",
      "outputs": [
        {
          "internalType": "bytes32",
          "name": "",
          "type": "bytes32"
        }
      ],
      "stateMutability": "view",
      "type": "function"
    },
    {
      "inputs": [
        {
          "components": [
            {
              "components": [
                {
                  "internalType": "address",
                  "name": "sender",
                  "type": "address"
                },
                {
                  "internalType": "uint256",
                  "name": "nonce",
                  "type": "uint256"
                },
                {
                  "internalType": "bytes",
                  "name": "initCode",
                  "type": "bytes"
                },
                {
                  "internalType": "bytes",
                  "name": "callData",
                  "type": "bytes"
                },
                {
                  "internalType": "uint256",
                  "name": "callGasLimit",
                  "type": "uint256"
                },
                {
                  "internalType": "uint256",
                  "name": "verificationGasLimit",
                  "type": "uint256"
                },
                {
                  "internalType": "uint256",
                  "name": "preVerificationGas",
                  "type": "uint256"
                },
                {
                  "internalType": "uint256",
                  "name": "maxFeePerGas",
                  "type": "uint256"
                },
                {
                  "internalType": "uint256",
                  "name": "maxPriorityFeePerGas",
                  "type": "uint256"
                },
                {
                  "internalType": "bytes",
                  "name": "paymasterAndData",
                  "type": "bytes"
                },
                {
                  "internalType": "bytes",
                  "name": "signature",
                  "type": "bytes"
                }
              ],
              "internalType": "struct UserOperation[]",
              "name": "userOps",
              "type": "tuple[]"
            },
            {
              "internalType": "contract IAggregator",
              "name": "aggregator",
              "type": "address"
            },
            {
              "internalType": "bytes",
              "name": "signature",
              "type": "bytes"
            }
          ],
          "internalType": "struct IEntryPoint.UserOpsPerAggregator[]",
          "name": "opsPerAggregator",
          "type": "tuple[]"
        },
        {
          "internalType": "address payable",
          "name": "beneficiary",
          "type": "address"
        }
      ],
      "name": "handleAggregatedOps",
      "outputs": [],
      "stateMutability": "nonpayable",
      "type": "function"
    },
    {
      "inputs": [
        {
          "components": [
            {
              "internalType": "address",
              "name": "sender",
              "type": "address"
            },
            {
              "internalType": "uint256",
              "name": "nonce",
              "type": "uint256"
            },
            {
              "internalType": "bytes",
              "name": "initCode",
              "type": "bytes"
            },
            {
              "internalType": "bytes",
              "name": "callData",
              "type": "bytes"
            },
            {
              "internalType": "uint256",
              "name": "callGasLimit",
              "type": "uint256"
            },
            {
              "internalType": "uint256",
              "name": "verificationGasLimit",
              "type": "uint256"
            },
            {
              "internalType": "uint256",
              "name": "preVerificationGas",
              "type": "uint256"
            },
            {
              "internalType": "uint256",
              "name": "maxFeePerGas",
              "type": "uint256"
            },
            {
              "internalType": "uint256",
              "name": "maxPriorityFeePerGas",
              "type": "uint256"
            },
            {
              "internalType": "bytes",
              "name": "paymasterAndData",
              "type": "bytes"
            },
            {
              "internalType": "bytes",
              "name": "signature",
              "type": "bytes"
            }
          ],
          "internalType": "struct UserOperation[]",
          "name": "ops",
          "type": "tuple[]"
        },
        {
          "internalType": "address payable",
          "name": "beneficiary",
          "type": "address"
        }
      ],
      "name": "handleOps",
      "outputs": [],
      "stateMutability": "nonpayable",
      "type": "function"
    },
    {
      "inputs": [
        {
          "internalType": "uint192",
          "name": "key",
          "type": "uint192"
        }
      ],
      "name": "incrementNonce",
      "outputs": [],
      "stateMutability": "nonpayable",
      "type": "function"
    },
    {
      "inputs": [
        {
          "internalType": "bytes",
          "name": "callData",
          "type": "bytes"
        },
        {
          "components": [
            {
              "components": [
                {
                  "internalType": "address",
                  "name": "sender",
                  "type": "address"
                },
                {
                  "internalType": "uint256",
                  "name": "nonce",
                  "type": "uint256"
                },
                {
                  "internalType": "uint256",
                  "name": "callGasLimit",
                  "type": "uint256"
                },
                {
                  "internalType": "uint256",
                  "name": "verificationGasLimit",
                  "type": "uint256"
                },
                {
                  "internalType": "uint256",
                  "name": "preVerificationGas",
                  "type": "uint256"
                },
                {
                  "internalType": "address",
                  "name": "paymaster",
                  "type": "address"
                },
                {
                  "internalType": "uint256",
                  "name": "maxFeePerGas",
                  "type": "uint256"
                },
                {
                  "internalType": "uint256",
                  "name": "maxPriorityFeePerGas",
                  "type": "uint256"
                }
              ],
              "internalType": "struct EntryPoint.MemoryUserOp",
              "name": "mUserOp",
              "type": "tuple"
            },
            {
              "internalType": "bytes32",
              "name": "userOpHash",
              "type": "bytes32"
            },
            {
              "internalType": "uint256",
              "name": "prefund",
              "type": "uint256"
            },
            {
              "internalType": "uint256",
              "name": "contextOffset",
              "type": "uint256"
            },
            {
              "internalType": "uint256",
              "name": "preOpGas",
              "type": "uint256"
            }
          ],
          "internalType": "struct EntryPoint.UserOpInfo",
          "name": "opInfo",
          "type": "tuple"
        },
        {
          "internalType": "bytes",
          "name": "context",
          "type": "bytes"
        }
      ],
      "name": "innerHandleOp",
      "outputs": [
        {
          "internalType": "uint256",
          "name": "actualGasCost",
          "type": "uint256"
        }
      ],
      "stateMutability": "nonpayable",
      "type": "function"
    },
    {
      "inputs": [
        {
          "internalType": "address",
          "name": "",
          "type": "address"
        },
        {
          "internalType": "uint192",
          "name": "",
          "type": "uint192"
        }
      ],
      "name": "nonceSequenceNumber",
      "outputs": [
        {
          "internalType": "uint256",
          "name": "",
          "type": "uint256"
        }
      ],
      "stateMutability": "view",
      "type": "function"
    },
    {
      "inputs": [
        {
          "components": [
            {
              "internalType": "address",
              "name": "sender",
              "type": "address"
            },
            {
              "internalType": "uint256",
              "name": "nonce",
              "type": "uint256"
            },
            {
              "internalType": "bytes",
              "name": "initCode",
              "type": "bytes"
            },
            {
              "internalType": "bytes",
              "name": "callData",
              "type": "bytes"
            },
            {
              "internalType": "uint256",
              "name": "callGasLimit",
              "type": "uint256"
            },
            {
              "internalType": "uint256",
              "name": "verificationGasLimit",
              "type": "uint256"
            },
            {
              "internalType": "uint256",
              "name": "preVerificationGas",
              "type": "uint256"
            },
            {
              "internalType": "uint256",
              "name": "maxFeePerGas",
              "type": "uint256"
            },
            {
              "internalType": "uint256",
              "name": "maxPriorityFeePerGas",
              "type": "uint256"
            },
            {
              "internalType": "bytes",
              "name": "paymasterAndData",
              "type": "bytes"
            },
            {
              "internalType": "bytes",
              "name": "signature",
              "type": "bytes"
            }
          ],
          "internalType": "struct UserOperation",
          "name": "op",
          "type": "tuple"
        },
        {
          "internalType": "address",
          "name": "target",
          "type": "address"
        },
        {
          "internalType": "bytes",
          "name": "targetCallData",
          "type": "bytes"
        }
      ],
      "name": "simulateHandleOp",
      "outputs": [],
      "stateMutability": "nonpayable",
      "type": "function"
    },
    {
      "inputs": [
        {
          "components": [
            {
              "internalType": "address",
              "name": "sender",
              "type": "address"
            },
            {
              "internalType": "uint256",
              "name": "nonce",
              "type": "uint256"
            },
            {
              "internalType": "bytes",
              "name": "initCode",
              "type": "bytes"
            },
            {
              "internalType": "bytes",
              "name": "callData",
              "type": "bytes"
            },
            {
              "internalType": "uint256",
              "name": "callGasLimit",
              "type": "uint256"
            },
            {
              "internalType": "uint256",
              "name": "verificationGasLimit",
              "type": "uint256"
            },
            {
              "internalType": "uint256",
              "name": "preVerificationGas",
              "type": "uint256"
            },
            {
              "internalType": "uint256",
              "name": "maxFeePerGas",
              "type": "uint256"
            },
            {
              "internalType": "uint256",
              "name": "maxPriorityFeePerGas",
              "type": "uint256"
            },
            {
              "internalType": "bytes",
              "name": "paymasterAndData",
              "type": "bytes"
            },
            {
              "internalType": "bytes",
              "name": "signature",
              "type": "bytes"
            }
          ],
          "internalType": "struct UserOperation",
          "name": "userOp",
          "type": "tuple"
        }
      ],
      "name": "simulateValidation",
      "outputs": [],
      "stateMutability": "nonpayable",
      "type": "function"
    },
    {
      "inputs": [],
      "name": "unlockStake",
      "outputs": [],
      "stateMutability": "nonpayable",
      "type": "function"
    },
    {
      "inputs": [
        {
          "internalType": "address payable",
          "name": "withdrawAddress",
          "type": "address"
        }
      ],
      "name": "withdrawStake",
      "outputs": [],
      "stateMutability": "nonpayable",
      "type": "function"
    },
    {
      "inputs": [
        {
          "internalType": "address payable",
          "name": "withdrawAddress",
          "type": "address"
        },
        {
          "internalType": "uint256",
          "name": "withdrawAmount",
          "type": "uint256"
        }
      ],
      "name": "withdrawTo",
      "outputs": [],
      "stateMutability": "nonpayable",
      "type": "function"
    },
    {
      "stateMutability": "payable",
      "type": "receive"
    }
  ],
  "transactionHash": "0x3681ff09d00d3af5283d530348cee7e4af5c8c11189951773569ea6dc6e37209",
  "args": [],
  "numDeployments": 4,
  "solcInputHash": "53c40a93e2c110e7e460e21b18cf0b74",
  "bytecode": "0x60a08060405234620000895760016002556102148181016001600160401b038111838210176200007357829162005ae0833903906000f080156200006757608052604051615a5190816200008f823960805181818161135301528181615476015261578b0152f35b6040513d6000823e3d90fd5b634e487b7160e01b600052604160045260246000fd5b600080fdfe60806040526004361015610023575b361561001957600080fd5b610021612d4f565b005b60003560e01c80630396cb60146101635780630bd28e3b1461015e5780631b2e01b8146101595780631d732756146101545780631fad948c1461014f578063205c28781461014a57806335567e1a146101455780634b1d7cf5146101405780635287ce121461013b57806370a08231146101365780638f41ec5a14610131578063957122ab1461012c5780639b249f6914610127578063a619353114610122578063b760faf91461011d578063bb9fe6bf14610118578063c23a5cea14610113578063d6383f941461010e578063ee219423146101095763fc7e286d0361000e57611b37565b61191f565b6117b8565b611620565b6114a3565b611465565b611445565b6112ad565b6110db565b6110a1565b61101d565b610ece565b610b89565b610ac5565b610927565b61084e565b61067c565b610415565b610334565b60207ffffffffffffffffffffffffffffffffffffffffffffffffffffffffffffffffc3601126103085760043563ffffffff8116808203610308576103037fa5ae833d0bb1dcd632d98a8b70973e8516812898e19bf27b70071ebc8dc52c01916102206101f03373ffffffffffffffffffffffffffffffffffffffff166000526000602052604060002090565b916101fc811515611bed565b610219610210600185015463ffffffff1690565b63ffffffff1690565b1115611c52565b54926102e56dffffffffffffffffffffffffffff946102a361024734888460781c16611ce6565b96610253881515611cf8565b61025f81891115611d5d565b6102838161026b610590565b941684906dffffffffffffffffffffffffffff169052565b6001602084015287166dffffffffffffffffffffffffffff166040830152565b63ffffffff83166060820152600060808201526102e03373ffffffffffffffffffffffffffffffffffffffff166000526000602052604060002090565b611dc2565b6040805194855263ffffffff90911660208501523393918291820190565b0390a2005b600080fd5b6024359077ffffffffffffffffffffffffffffffffffffffffffffffff8216820361030857565b346103085760207ffffffffffffffffffffffffffffffffffffffffffffffffffffffffffffffffc3601126103085760043577ffffffffffffffffffffffffffffffffffffffffffffffff81168103610308576103c29033600052600160205260406000209077ffffffffffffffffffffffffffffffffffffffffffffffff16600052602052604060002090565b6103cc8154611f26565b9055005b73ffffffffffffffffffffffffffffffffffffffff81160361030857565b602435906103fb826103d0565b565b60c435906103fb826103d0565b35906103fb826103d0565b346103085760407ffffffffffffffffffffffffffffffffffffffffffffffffffffffffffffffffc3601126103085760206104a9600435610455816103d0565b73ffffffffffffffffffffffffffffffffffffffff61047261030d565b91166000526001835260406000209077ffffffffffffffffffffffffffffffffffffffffffffffff16600052602052604060002090565b54604051908152f35b7f4e487b7100000000000000000000000000000000000000000000000000000000600052604160045260246000fd5b60a0810190811067ffffffffffffffff8211176104fd57604052565b6104b2565b610100810190811067ffffffffffffffff8211176104fd57604052565b67ffffffffffffffff81116104fd57604052565b6060810190811067ffffffffffffffff8211176104fd57604052565b90601f7fffffffffffffffffffffffffffffffffffffffffffffffffffffffffffffffe0910116810190811067ffffffffffffffff8211176104fd57604052565b604051906103fb826104e1565b6040519060c0820182811067ffffffffffffffff8211176104fd57604052565b604051906040820182811067ffffffffffffffff8211176104fd57604052565b67ffffffffffffffff81116104fd57601f017fffffffffffffffffffffffffffffffffffffffffffffffffffffffffffffffe01660200190565b929192610623826105dd565b91610631604051938461054f565b829481845281830111610308578281602093846000960137010152565b9181601f840112156103085782359167ffffffffffffffff8311610308576020838186019501011161030857565b34610308576101c07ffffffffffffffffffffffffffffffffffffffffffffffffffffffffffffffffc3601126103085767ffffffffffffffff6004358181116103085736602382011215610308576106de903690602481600401359101610617565b907fffffffffffffffffffffffffffffffffffffffffffffffffffffffffffffffdc36016101808112610308576101006040519161071b836104e1565b126103085760405161072c81610502565b6107346103ee565b815260443560208201526064356040820152608435606082015260a435608082015261075e6103fd565b60a082015260e43560c08201526101043560e082015281526101243560208201526101443560408201526101643560608201526101843560808201526101a435918211610308576107d2926107ba6107c293369060040161064e565b92909161204d565b6040519081529081906020820190565b0390f35b9060407ffffffffffffffffffffffffffffffffffffffffffffffffffffffffffffffffc8301126103085760043567ffffffffffffffff9283821161030857806023830112156103085781600401359384116103085760248460051b8301011161030857602401919060243561084b816103d0565b90565b346103085761085c366107d6565b6108679291926136df565b61087083612231565b60005b8481106108f057506000927fbb47ee3e183a558b1a2ff0874b079f3fc5478b7454eacf2bfc5af2ff5878f9728480a183915b8583106108c0576108b68585614188565b6100216001600255565b9091936001906108e66108d48789876122e6565b6108de88866122cd565b519088614035565b01940191906108a5565b8061091e6109176109056001948698966122cd565b51610911848a886122e6565b846139b9565b9083613bbf565b01929092610873565b346103085760407ffffffffffffffffffffffffffffffffffffffffffffffffffffffffffffffffc36011261030857600435610962816103d0565b6024359060009133835282602052604083206dffffffffffffffffffffffffffff81541692838311610a6757848373ffffffffffffffffffffffffffffffffffffffff829593610a0a84966109d16109be8798610a649c612326565b6dffffffffffffffffffffffffffff1690565b6dffffffffffffffffffffffffffff167fffffffffffffffffffffffffffffffffffff0000000000000000000000000000825416179055565b6040805173ffffffffffffffffffffffffffffffffffffffff831681526020810185905233917fd1c19fbcd4551a5edfb66d43d2e337c04837afda3482b42bdf569a8fccdae5fb91a2165af1610a5e612333565b50612363565b80f35b60646040517f08c379a000000000000000000000000000000000000000000000000000000000815260206004820152601960248201527f576974686472617720616d6f756e7420746f6f206c61726765000000000000006044820152fd5b346103085760407ffffffffffffffffffffffffffffffffffffffffffffffffffffffffffffffffc360112610308576020600435610b02816103d0565b73ffffffffffffffffffffffffffffffffffffffff610b1f61030d565b911660005260018252610b5a8160406000209077ffffffffffffffffffffffffffffffffffffffffffffffff16600052602052604060002090565b547fffffffffffffffffffffffffffffffffffffffffffffffff00000000000000006040519260401b16178152f35b3461030857610b97366107d6565b610b9f6136df565b6000805b838210610d7657610bb49150612231565b7fbb47ee3e183a558b1a2ff0874b079f3fc5478b7454eacf2bfc5af2ff5878f972600080a16000805b848110610ce157505060008093815b818110610c23576108b6868660007f575ff3acadd5ab348fe1855e217e0f3678f8d767d7494c9f9fefbee2e17cca4d8180a2614188565b610c87610c3182848a6123c8565b610c5c610c43610c436020840161245c565b73ffffffffffffffffffffffffffffffffffffffff1690565b7f575ff3acadd5ab348fe1855e217e0f3678f8d767d7494c9f9fefbee2e17cca4d600080a280612408565b906000915b808310610c9e57505050600101610bec565b90919497610cd8610cd2600192610ccc8c8b610cc582610cbf8e8b8d6122e6565b926122cd565b5191614035565b90611ce6565b99611f26565b95019190610c8c565b610cec8186886123c8565b6020610d04610cfb8380612408565b9290930161245c565b9173ffffffffffffffffffffffffffffffffffffffff60009316905b828410610d335750505050600101610bdd565b90919294610d6c81610d6785610d60610d4e6001968d6122cd565b51610d5a8c8b8a6122e6565b856139b9565b908b613dd7565b611f26565b9501929190610d20565b610d818285876123c8565b90610d8c8280612408565b92610d9c610c436020830161245c565b9173ffffffffffffffffffffffffffffffffffffffff8316610dc16001821415612466565b610ddd575b505050600191610dd591611ce6565b910190610ba3565b909592610df660409996939998959897888101906124cb565b92908a3b156103085789938b918a5193849283927fe3563a4f00000000000000000000000000000000000000000000000000000000845260049e8f850193610e3d94612692565b03815a93600094fa9081610eb5575b50610ea05786517f86a9f75000000000000000000000000000000000000000000000000000000000815273ffffffffffffffffffffffffffffffffffffffff8a16818a0190815281906020010390fd5b0390fd5b9497509295509093509181610dd56001610dc6565b80610ec2610ec89261051f565b80611096565b38610e4c565b346103085760207ffffffffffffffffffffffffffffffffffffffffffffffffffffffffffffffffc360112610308576107d273ffffffffffffffffffffffffffffffffffffffff600435610f21816103d0565b608060409283928351610f33816104e1565b600093818580935282602082015282878201528260608201520152168152806020522090610fc265ffffffffffff6001835194610f6f866104e1565b80546dffffffffffffffffffffffffffff8082168852607082901c60ff161515602089015260789190911c1685870152015463ffffffff8116606086015260201c16608084019065ffffffffffff169052565b5191829182919091608065ffffffffffff8160a08401956dffffffffffffffffffffffffffff808251168652602082015115156020870152604082015116604086015263ffffffff6060820151166060860152015116910152565b346103085760207ffffffffffffffffffffffffffffffffffffffffffffffffffffffffffffffffc3601126103085773ffffffffffffffffffffffffffffffffffffffff60043561106d816103d0565b16600052600060205260206dffffffffffffffffffffffffffff60406000205416604051908152f35b600091031261030857565b346103085760007ffffffffffffffffffffffffffffffffffffffffffffffffffffffffffffffffc36011261030857602060405160018152f35b346103085760607ffffffffffffffffffffffffffffffffffffffffffffffffffffffffffffffffc36011261030857600467ffffffffffffffff81358181116103085761112b903690840161064e565b90506024359161113a836103d0565b60443590811161030857611151903690850161064e565b9290911590816112a3575b5061123c5760148210156111ac575b610e9c836040519182917f08c379a0000000000000000000000000000000000000000000000000000000008352820160409060208152600060208201520190565b6111bc6111c8926111c292612762565b90612770565b60601c90565b3b156111d557388061116b565b610e9c906040519182917f08c379a0000000000000000000000000000000000000000000000000000000008352820160609060208152601b60208201527f41413330207061796d6173746572206e6f74206465706c6f796564000000000060408201520190565b610e9c836040519182917f08c379a0000000000000000000000000000000000000000000000000000000008352820160609060208152601960208201527f41413230206163636f756e74206e6f74206465706c6f7965640000000000000060408201520190565b90503b153861115c565b346103085760207ffffffffffffffffffffffffffffffffffffffffffffffffffffffffffffffffc3601126103085760043567ffffffffffffffff811161030857602061130161134c92369060040161064e565b73ffffffffffffffffffffffffffffffffffffffff929160405194859283927f570e1a36000000000000000000000000000000000000000000000000000000008452600484016127c9565b03816000857f0000000000000000000000000000000000000000000000000000000000000000165af19081156113e8576024926000926113b7575b50604051917f6ca7b806000000000000000000000000000000000000000000000000000000008352166004820152fd5b6113da91925060203d6020116113e1575b6113d2818361054f565b8101906127b4565b9038611387565b503d6113c8565b612756565b90816101609103126103085790565b60207ffffffffffffffffffffffffffffffffffffffffffffffffffffffffffffffffc820112610308576004359067ffffffffffffffff82116103085761084b916004016113ed565b3461030857602061145d611458366113fc565b6127da565b604051908152f35b60207ffffffffffffffffffffffffffffffffffffffffffffffffffffffffffffffffc3601126103085761002160043561149e816103d0565b61291e565b34610308576000807ffffffffffffffffffffffffffffffffffffffffffffffffffffffffffffffffc36011261161d573381528060205260408120600181019063ffffffff8254169081156115bf5761155c6115216115849361151361150e855460ff9060701c1690565b61298a565b65ffffffffffff42166129ef565b84547fffffffffffffffffffffffffffffffffffffffffffff000000000000ffffffff16602082901b69ffffffffffff000000001617909455565b7fffffffffffffffffffffffffffffffffff00ffffffffffffffffffffffffffff8154169055565b60405165ffffffffffff91909116815233907ffa9b3c14cc825c412c9ed81b3ba365a5b459439403f18829e572ed53a4180f0a90602090a280f35b60646040517f08c379a000000000000000000000000000000000000000000000000000000000815260206004820152600a60248201527f6e6f74207374616b6564000000000000000000000000000000000000000000006044820152fd5b80fd5b346103085760207ffffffffffffffffffffffffffffffffffffffffffffffffffffffffffffffffc3601126103085760043561165b816103d0565b610a6473ffffffffffffffffffffffffffffffffffffffff61169d3373ffffffffffffffffffffffffffffffffffffffff166000526000602052604060002090565b926117556116c06109be86546dffffffffffffffffffffffffffff9060781c1690565b946116cc861515612a09565b61172d6001820161170565ffffffffffff6116f1835465ffffffffffff9060201c1690565b166116fd811515612a6e565b421015612ad3565b80547fffffffffffffffffffffffffffffffffffffffffffff00000000000000000000169055565b7fffffff0000000000000000000000000000ffffffffffffffffffffffffffffff8154169055565b6040805173ffffffffffffffffffffffffffffffffffffffff831681526020810186905233917fb7c918e0e249f999e965cafeb6c664271b3f4317d296461500e71da39f0cbda391a2600080809581948294165af16117b2612333565b50612b38565b346103085760607ffffffffffffffffffffffffffffffffffffffffffffffffffffffffffffffffc3601126103085767ffffffffffffffff600435818111610308576118089036906004016113ed565b60243591611815836103d0565b60443590811161030857611830610e9c91369060040161064e565b6118386121ce565b6118418561439f565b61185461184e82876137b1565b906144bb565b9461186482600092438452613ed7565b96438252819360609573ffffffffffffffffffffffffffffffffffffffff83166118eb575b5050505060800151936118b860406118aa602084015165ffffffffffff1690565b92015165ffffffffffff1690565b906040519687967f8b7ac98000000000000000000000000000000000000000000000000000000000885260048801612bab565b839550839496506119056040949293945180948193612b9d565b03925af1906080611914612333565b929190388080611889565b346103085761192d366113fc565b6119356121ce565b61193e8261439f565b61194881836137b1565b825160a001519193916119759073ffffffffffffffffffffffffffffffffffffffff1661456d565b61456d565b90611999611970855173ffffffffffffffffffffffffffffffffffffffff90511690565b946119a2612be7565b506119b2604094858101906124cb565b9060148210611b2b576111c26111bc6119ce9361197093612762565b916119d8916144bb565b805173ffffffffffffffffffffffffffffffffffffffff169073ffffffffffffffffffffffffffffffffffffffff821660018114916080880151978781015191886020820151611a2d9065ffffffffffff1690565b91015165ffffffffffff16916060015192611a4661059d565b9a8b5260208b0152841515898b015265ffffffffffff1660608a015265ffffffffffff16608089015260a088015215159081611b22575b50611ab75750610e9c92519485947fe0cff05f00000000000000000000000000000000000000000000000000000000865260048601612cf5565b9190610e9c93611ac68461456d565b611aed611ad16105bd565b73ffffffffffffffffffffffffffffffffffffffff9096168652565b6020850152519586957ffaecb4e400000000000000000000000000000000000000000000000000000000875260048701612c63565b90501538611a7d565b50506119ce600061456d565b346103085760207ffffffffffffffffffffffffffffffffffffffffffffffffffffffffffffffffc3601126103085773ffffffffffffffffffffffffffffffffffffffff600435611b87816103d0565b16600052600060205260a0604060002065ffffffffffff81549160016dffffffffffffffffffffffffffff9101549060405193818116855260ff8160701c161515602086015260781c16604084015263ffffffff8116606084015260201c166080820152f35b15611bf457565b60646040517f08c379a000000000000000000000000000000000000000000000000000000000815260206004820152601a60248201527f6d757374207370656369667920756e7374616b652064656c61790000000000006044820152fd5b15611c5957565b60646040517f08c379a000000000000000000000000000000000000000000000000000000000815260206004820152601c60248201527f63616e6e6f7420646563726561736520756e7374616b652074696d65000000006044820152fd5b7f4e487b7100000000000000000000000000000000000000000000000000000000600052601160045260246000fd5b91908201809211611cf357565b611cb7565b15611cff57565b60646040517f08c379a000000000000000000000000000000000000000000000000000000000815260206004820152601260248201527f6e6f207374616b652073706563696669656400000000000000000000000000006044820152fd5b15611d6457565b60646040517f08c379a000000000000000000000000000000000000000000000000000000000815260206004820152600e60248201527f7374616b65206f766572666c6f770000000000000000000000000000000000006044820152fd5b9065ffffffffffff608060016103fb94611e226dffffffffffffffffffffffffffff86511682906dffffffffffffffffffffffffffff167fffffffffffffffffffffffffffffffffffff0000000000000000000000000000825416179055565b602085015115156eff000000000000000000000000000082549160701b16807fffffffffffffffffffffffffffffffffff00ffffffffffffffffffffffffffff83161783557fffffff000000000000000000000000000000ffffffffffffffffffffffffffff7cffffffffffffffffffffffffffff000000000000000000000000000000604089015160781b16921617178155019263ffffffff6060820151167fffffffffffffffffffffffffffffffffffffffffffffffffffffffff000000008554161784550151167fffffffffffffffffffffffffffffffffffffffffffff000000000000ffffffff69ffffffffffff0000000083549260201b169116179055565b7fffffffffffffffffffffffffffffffffffffffffffffffffffffffffffffffff8114611cf35760010190565b15611f5a57565b60646040517f08c379a000000000000000000000000000000000000000000000000000000000815260206004820152601760248201527f4141393220696e7465726e616c2063616c6c206f6e6c790000000000000000006044820152fd5b60005b838110611fcb5750506000910152565b8181015183820152602001611fbb565b907fffffffffffffffffffffffffffffffffffffffffffffffffffffffffffffffe0601f60209361201781518092818752878088019101611fb8565b0116010190565b90604061084b92600081528160208201520190611fdb565b60409061084b939281528160208201520190611fdb565b909291925a9361205e303314611f53565b8151946040860151955a611388606083015189010111806121ae575b6121845761084b9660009580516120ab575b505050906120a5915a9003608084015101943691610617565b91612f1b565b6120da916120d6916120d1855173ffffffffffffffffffffffffffffffffffffffff1690565b612d58565b1590565b6120e6575b808061208c565b6120a5929194506120f5612d6a565b908151612109575b505060019390916120df565b7f1c4fada7374c0a9ee8841fc38afe82932dc0f8e69012e927f061a8bae611a20173ffffffffffffffffffffffffffffffffffffffff60208701519261217a6020612168835173ffffffffffffffffffffffffffffffffffffffff1690565b92015195604051938493169683612036565b0390a338806120fd565b7fdeaddead0000000000000000000000000000000000000000000000000000000060005260206000fd5b50600061207a565b67ffffffffffffffff81116104fd5760051b60200190565b604051906121db826104e1565b6040516080836121ea83610502565b60009283815283602082015283604082015283606082015283838201528360a08201528360c08201528360e082015281528260208201528260408201528260608201520152565b9061223b826121b6565b612248604051918261054f565b8281527fffffffffffffffffffffffffffffffffffffffffffffffffffffffffffffffe061227682946121b6565b019060005b82811061228757505050565b6020906122926121ce565b8282850101520161227b565b7f4e487b7100000000000000000000000000000000000000000000000000000000600052603260045260246000fd5b80518210156122e15760209160051b010190565b61229e565b91908110156122e15760051b810135907ffffffffffffffffffffffffffffffffffffffffffffffffffffffffffffffea181360301821215610308570190565b91908203918211611cf357565b3d1561235e573d90612344826105dd565b91612352604051938461054f565b82523d6000602084013e565b606090565b1561236a57565b60646040517f08c379a000000000000000000000000000000000000000000000000000000000815260206004820152601260248201527f6661696c656420746f20776974686472617700000000000000000000000000006044820152fd5b91908110156122e15760051b810135907fffffffffffffffffffffffffffffffffffffffffffffffffffffffffffffffa181360301821215610308570190565b9035907fffffffffffffffffffffffffffffffffffffffffffffffffffffffffffffffe181360301821215610308570180359067ffffffffffffffff821161030857602001918160051b3603831361030857565b3561084b816103d0565b1561246d57565b60646040517f08c379a000000000000000000000000000000000000000000000000000000000815260206004820152601760248201527f4141393620696e76616c69642061676772656761746f720000000000000000006044820152fd5b9035907fffffffffffffffffffffffffffffffffffffffffffffffffffffffffffffffe181360301821215610308570180359067ffffffffffffffff82116103085760200191813603831361030857565b90357fffffffffffffffffffffffffffffffffffffffffffffffffffffffffffffffe18236030181121561030857016020813591019167ffffffffffffffff821161030857813603831361030857565b601f82602094937fffffffffffffffffffffffffffffffffffffffffffffffffffffffffffffffe0938186528686013760008582860101520116010190565b61084b916126736126246126096101606125e2856125c88861040a565b73ffffffffffffffffffffffffffffffffffffffff169052565b602086013560208601526125f9604087018761251c565b909180604088015286019161256c565b612616606086018661251c565b90858303606087015261256c565b6080840135608084015260a084013560a084015260c084013560c084015260e084013560e084015261010080850135908401526101206126668186018661251c565b918584039086015261256c565b91612684610140918281019061251c565b92909181850391015261256c565b949391929083604087016040885252606086019360608160051b88010194826000906000915b8483106126d75750505050505084602061084b9596850391015261256c565b9091929394977fffffffffffffffffffffffffffffffffffffffffffffffffffffffffffffffa08b820301855288357ffffffffffffffffffffffffffffffffffffffffffffffffffffffffffffffea184360301811215612752576001918461274092016125ab565b986020908101969501930191906126b8565b8280fd5b6040513d6000823e3d90fd5b906014116103085790601490565b7fffffffffffffffffffffffffffffffffffffffff00000000000000000000000090358181169392601481106127a557505050565b60140360031b82901b16169150565b90816020910312610308575161084b816103d0565b91602061084b93818152019161256c565b6127f06127ea60408301836124cb565b90615a10565b906128016127ea60608301836124cb565b906128b76128166127ea6101208401846124cb565b60405194859360208501956101008201359260e08301359260c08101359260a08201359260808301359273ffffffffffffffffffffffffffffffffffffffff60208201359135168c9693909a9998959261012098959273ffffffffffffffffffffffffffffffffffffffff6101408a019d168952602089015260408801526060870152608086015260a085015260c084015260e08301526101008201520152565b03916128e97fffffffffffffffffffffffffffffffffffffffffffffffffffffffffffffffe09384810183528261054f565b51902060408051602081019283523091810191909152466060820152608092830181529091612918908261054f565b51902090565b73ffffffffffffffffffffffffffffffffffffffff9061293e3482614279565b168060005260006020527f2da466a7b24304f47e87fa2e1e5a81b9831ce54fec19055ce277ca2f39ba42c460206dffffffffffffffffffffffffffff60406000205416604051908152a2565b1561299157565b60646040517f08c379a000000000000000000000000000000000000000000000000000000000815260206004820152601160248201527f616c726561647920756e7374616b696e670000000000000000000000000000006044820152fd5b91909165ffffffffffff80809416911601918211611cf357565b15612a1057565b60646040517f08c379a000000000000000000000000000000000000000000000000000000000815260206004820152601460248201527f4e6f207374616b6520746f2077697468647261770000000000000000000000006044820152fd5b15612a7557565b60646040517f08c379a000000000000000000000000000000000000000000000000000000000815260206004820152601d60248201527f6d7573742063616c6c20756e6c6f636b5374616b6528292066697273740000006044820152fd5b15612ada57565b60646040517f08c379a000000000000000000000000000000000000000000000000000000000815260206004820152601b60248201527f5374616b65207769746864726177616c206973206e6f742064756500000000006044820152fd5b15612b3f57565b60646040517f08c379a000000000000000000000000000000000000000000000000000000000815260206004820152601860248201527f6661696c656420746f207769746864726177207374616b6500000000000000006044820152fd5b908092918237016000815290565b92909361084b96959260c0958552602085015265ffffffffffff8092166040850152166060830152151560808201528160a08201520190611fdb565b604051906040820182811067ffffffffffffffff8211176104fd5760405260006020838281520152565b9060c060a061084b938051845260208101516020850152604081015115156040850152606081015165ffffffffffff809116606086015260808201511660808501520151918160a08201520190611fdb565b9294612cc46103fb95612cb2610100959998612ca0612c8c602097610140808c528b0190612c11565b9b878a019060208091805184520151910152565b80516060890152602001516080880152565b805160a08701526020015160c0860152565b73ffffffffffffffffffffffffffffffffffffffff81511660e0850152015191019060208091805184520151910152565b612d3e6103fb94612d2c612d1760a0959998969960e0865260e0860190612c11565b98602085019060208091805184520151910152565b80516060840152602001516080830152565b019060208091805184520151910152565b6103fb3361291e565b9060009283809360208451940192f190565b3d610800808211612d91575b50604051906020818301016040528082526000602083013e90565b905038612d76565b60031115612da357565b7f4e487b7100000000000000000000000000000000000000000000000000000000600052602160045260246000fd5b929190612df060409160028652606060208701526060860190611fdb565b930152565b939291906003811015612da357604091612df0918652606060208701526060860190611fdb565b60009060033d11612e2957565b905060046000803e60005160e01c90565b600060443d1061084b576040517ffffffffffffffffffffffffffffffffffffffffffffffffffffffffffffffffc91823d016004833e815167ffffffffffffffff918282113d602484011117612eb657818401948551938411612ebe573d85010160208487010111612eb6575061084b9291016020019061054f565b949350505050565b50949350505050565b906103fb603660405180947f4141353020706f73744f702072657665727465643a20000000000000000000006020830152612f0b8151809260208686019101611fb8565b810103601681018552018361054f565b909392915a94805191612f2d836145c2565b9260a0810195612f51875173ffffffffffffffffffffffffffffffffffffffff1690565b73ffffffffffffffffffffffffffffffffffffffff9381851691826130c657505050612f91825173ffffffffffffffffffffffffffffffffffffffff1690565b985b5a90030193840297604084019089825110613059577f49628fd1471006c1482da88028e9ce4dbb080b815c9b0344d39e5a8e6ec1419f94612fdd6020928c61305495510390614279565b612fe688612d99565b01519489602061302861300d865173ffffffffffffffffffffffffffffffffffffffff1690565b9a5173ffffffffffffffffffffffffffffffffffffffff1690565b940151604080519182529815602082015297880152606087015290821695909116939081906080820190565b0390a4565b6040517f220266b600000000000000000000000000000000000000000000000000000000815280610e9c600482016080906000815260406020820152602060408201527f414135312070726566756e642062656c6f772061637475616c476173436f737460608201520190565b9a9181516130d6575b5050612f93565b8784026130e28a612d99565b60028a1461315f576060860151823b156103085761313593600080948d604051978896879586937fa9a2340900000000000000000000000000000000000000000000000000000000855260048501612df5565b0393f180156113e85761314c575b505b38806130cf565b80610ec26131599261051f565b38613143565b6060860151823b15610308576131aa93600080948d604051978896879586937fa9a2340900000000000000000000000000000000000000000000000000000000855260048501612df5565b0393f1908161328f575b5061328a576131c1612e1c565b6308c379a014613239575b6040517f220266b600000000000000000000000000000000000000000000000000000000815280610e9c600482016080906000815260406020820152601260408201527f4141353020706f73744f7020726576657274000000000000000000000000000060608201520190565b613241612e3a565b8061324c57506131cc565b613258610e9c91612ec7565b6040519182917f220266b60000000000000000000000000000000000000000000000000000000083526004830161201e565b613145565b80610ec261329c9261051f565b386131b4565b929190925a936000918051916132b7836145c2565b9260a08101956132db875173ffffffffffffffffffffffffffffffffffffffff1690565b73ffffffffffffffffffffffffffffffffffffffff939084811690816133bd5750505061331c825173ffffffffffffffffffffffffffffffffffffffff1690565b985b5a90030193840297604084019089825110613059577f49628fd1471006c1482da88028e9ce4dbb080b815c9b0344d39e5a8e6ec1419f946133686020928c61305495510390614279565b01519489602061338f61300d865173ffffffffffffffffffffffffffffffffffffffff1690565b9401519785604051968796169a16988590949392606092608083019683521515602083015260408201520152565b9a9180516133cd575b505061331e565b6060850151600099509091803b15613451579189918983613420956040518097819682957fa9a234090000000000000000000000000000000000000000000000000000000084528c029060048401612dd2565b0393f1908161343e575b50613437576131c1612e1c565b38806133c6565b80610ec261344b9261051f565b3861342a565b8980fd5b9392915a90600092805190613469826145c2565b9360a083019661348d885173ffffffffffffffffffffffffffffffffffffffff1690565b73ffffffffffffffffffffffffffffffffffffffff95908681169081613583575050506134ce845173ffffffffffffffffffffffffffffffffffffffff1690565b915b5a9003019485029860408301908a82511061351d57507f49628fd1471006c1482da88028e9ce4dbb080b815c9b0344d39e5a8e6ec1419f949392613368613054938c602094510390614279565b604080517f220266b600000000000000000000000000000000000000000000000000000000815260048101929092526024820152602060448201527f414135312070726566756e642062656c6f772061637475616c476173436f73746064820152608490fd5b93918051613593575b50506134d0565b606087015160009a509091803b156136db57918a918a836135e6956040518097819682957fa9a234090000000000000000000000000000000000000000000000000000000084528c029060048401612dd2565b0393f190816136c8575b506136c1578a6135fe612e1c565b6308c379a01461366f575b604080517f220266b600000000000000000000000000000000000000000000000000000000815260048101929092526024820152601260448201527f4141353020706f73744f702072657665727400000000000000000000000000006064820152608490fd5b613677612e3a565b806136825750613609565b61368b90612ec7565b90610e9c6040519283927f220266b600000000000000000000000000000000000000000000000000000000845260048401612036565b388061358c565b80610ec26136d59261051f565b386135f0565b8a80fd5b60028054146136ee5760028055565b60646040517f08c379a000000000000000000000000000000000000000000000000000000000815260206004820152601f60248201527f5265656e7472616e637947756172643a207265656e7472616e742063616c6c006044820152fd5b1561375357565b60646040517f08c379a000000000000000000000000000000000000000000000000000000000815260206004820152601860248201527f41413934206761732076616c756573206f766572666c6f7700000000000000006044820152fd5b916000915a938151906137c4828261464f565b6137cd816127da565b602084015261380b6effffffffffffffffffffffffffffff60808401516060850151176040850151176101008401359060e08501351717111561374c565b61381482614711565b61381f8185846147d2565b97906138506120d6613845875173ffffffffffffffffffffffffffffffffffffffff1690565b602088015190614d15565b61394c5761385d43600052565b73ffffffffffffffffffffffffffffffffffffffff61389560a0606097015173ffffffffffffffffffffffffffffffffffffffff1690565b16613932575b505a810360a0840135106138c55760809360c092604087015260608601525a900391013501910152565b6040517f220266b600000000000000000000000000000000000000000000000000000000815280610e9c600482016080906000815260406020820152601e60408201527f41413430206f76657220766572696669636174696f6e4761734c696d6974000060608201520190565b909350816139439297508584614e99565b9590923861389b565b6040517f220266b600000000000000000000000000000000000000000000000000000000815280610e9c600482016080906000815260406020820152601a60408201527f4141323520696e76616c6964206163636f756e74206e6f6e636500000000000060608201520190565b9290916000925a82516139cc818461464f565b6139d5836127da565b6020850152613a136effffffffffffffffffffffffffffff60808301516060840151176040840151176101008601359060e08701351717111561374c565b613a1c81614711565b613a288186868b614afe565b9890613a596120d6613a4e865173ffffffffffffffffffffffffffffffffffffffff1690565b602087015190614d15565b613b5157613a6643600052565b73ffffffffffffffffffffffffffffffffffffffff613a9e60a0606096015173ffffffffffffffffffffffffffffffffffffffff1690565b16613b36575b505a840360a086013510613ad05750604085015260608401526080919060c0905a900391013501910152565b604080517f220266b600000000000000000000000000000000000000000000000000000000815260048101929092526024820152601e60448201527f41413430206f76657220766572696669636174696f6e4761734c696d697400006064820152608490fd5b90925081613b48929850868685615118565b96909138613aa4565b610e9c826040519182917f220266b600000000000000000000000000000000000000000000000000000000835260048301608091815260406020820152601a60408201527f4141323520696e76616c6964206163636f756e74206e6f6e636500000000000060608201520190565b9190613bca90615336565b73ffffffffffffffffffffffffffffffffffffffff92918316613d6957613cfb57613bf490615336565b9116613c8d57613c015750565b604080517f220266b600000000000000000000000000000000000000000000000000000000815260048101929092526024820152602160448201527f41413332207061796d61737465722065787069726564206f72206e6f7420647560648201527f6500000000000000000000000000000000000000000000000000000000000000608482015260a490fd5b610e9c826040519182917f220266b600000000000000000000000000000000000000000000000000000000835260048301608091815260406020820152601460408201527f41413334207369676e6174757265206572726f7200000000000000000000000060608201520190565b610e9c836040519182917f220266b600000000000000000000000000000000000000000000000000000000835260048301608091815260406020820152601760408201527f414132322065787069726564206f72206e6f742064756500000000000000000060608201520190565b610e9c846040519182917f220266b600000000000000000000000000000000000000000000000000000000835260048301608091815260406020820152601460408201527f41413234207369676e6174757265206572726f7200000000000000000000000060608201520190565b929190613de390615336565b909273ffffffffffffffffffffffffffffffffffffffff80809516911603613d6957613cfb57613bf490615336565b90816020910312610308575190565b90613e3b60809161084b96946101c080865285019161256c565b9360e0815173ffffffffffffffffffffffffffffffffffffffff80825116602087015260208201516040870152604082015160608701526060820151858701528482015160a087015260a08201511660c086015260c081015182860152015161010084015260208101516101208401526040810151610140840152606081015161016084015201516101808201526101a0818403910152611fdb565b905a91816020613ef060608301519360608101906124cb565b90613f298560405195869485947f1d73275600000000000000000000000000000000000000000000000000000000865260048601613e21565b03816000305af160009181614004575b50613ffd575060206000803e7fdeaddead0000000000000000000000000000000000000000000000000000000060005114613f9057613f8a613f7f61084b945a90612326565b608084015190611ce6565b916132a2565b6040517f220266b600000000000000000000000000000000000000000000000000000000815280610e9c600482016080906000815260406020820152600f60408201527f41413935206f7574206f6620676173000000000000000000000000000000000060608201520190565b9250505090565b61402791925060203d60201161402e575b61401f818361054f565b810190613e12565b9038613f39565b503d614015565b909291925a9380602061405160608301519460608101906124cb565b9061408a8660405195869485947f1d73275600000000000000000000000000000000000000000000000000000000865260048601613e21565b03816000305af160009181614167575b50614160575060206000803e7fdeaddead00000000000000000000000000000000000000000000000000000000600051146140f2576140ec6140e161084b95965a90612326565b608083015190611ce6565b92613455565b610e9c836040519182917f220266b600000000000000000000000000000000000000000000000000000000835260048301608091815260406020820152600f60408201527f41413935206f7574206f6620676173000000000000000000000000000000000060608201520190565b9450505050565b61418191925060203d60201161402e5761401f818361054f565b903861409a565b73ffffffffffffffffffffffffffffffffffffffff16801561421b57600080809381935af16141b5612333565b50156141bd57565b60646040517f08c379a000000000000000000000000000000000000000000000000000000000815260206004820152601f60248201527f41413931206661696c65642073656e6420746f2062656e6566696369617279006044820152fd5b60646040517f08c379a000000000000000000000000000000000000000000000000000000000815260206004820152601860248201527f4141393020696e76616c69642062656e656669636961727900000000000000006044820152fd5b73ffffffffffffffffffffffffffffffffffffffff16600052600060205260406000206dffffffffffffffffffffffffffff80825416928301809311611cf3578083116142fe576103fb92166dffffffffffffffffffffffffffff167fffffffffffffffffffffffffffffffffffff0000000000000000000000000000825416179055565b60646040517f08c379a000000000000000000000000000000000000000000000000000000000815260206004820152601060248201527f6465706f736974206f766572666c6f77000000000000000000000000000000006044820152fd5b9061438b73ffffffffffffffffffffffffffffffffffffffff9161084b9795969460608552606085019161256c565b94166020820152604081850391015261256c565b6143ac60408201826124cb565b6143c46143b88461245c565b936101208101906124cb565b9290303b15610308576000936144089160405196879586957f957122ab0000000000000000000000000000000000000000000000000000000087526004870161435c565b0381305afa9081614489575b506103fb576001614423612e1c565b6308c379a014614434575b6113e857565b61443c612e3a565b80614448575b5061442e565b8051600092501561444257610e9c906040519182917f220266b60000000000000000000000000000000000000000000000000000000083526004830161201e565b80610ec26144969261051f565b38614414565b604051906144a982610533565b60006040838281528260208201520152565b6144d06144d6916144ca61449c565b50615392565b91615392565b9073ffffffffffffffffffffffffffffffffffffffff9182825116928315614562575b65ffffffffffff92839182604081602085015116930151169383604081602084015116920151169080841061455a575b50808511614552575b506040519561454087610533565b16855216602084015216604082015290565b935038614532565b925038614529565b8151811693506144f9565b9073ffffffffffffffffffffffffffffffffffffffff61458b612be7565b9216600052600060205263ffffffff600160406000206dffffffffffffffffffffffffffff815460781c1685520154166020830152565b60e060c08201519101518082146145e6574801808210156145e1575090565b905090565b5090565b156145f157565b60646040517f08c379a000000000000000000000000000000000000000000000000000000000815260206004820152601d60248201527f4141393320696e76616c6964207061796d6173746572416e64446174610000006044820152fd5b6146c19061467961465f8261245c565b73ffffffffffffffffffffffffffffffffffffffff168452565b602081013560208401526080810135604084015260a0810135606084015260c0810135608084015260e081013560c084015261010081013560e08401526101208101906124cb565b908115614706576146eb6111c26111bc8460a0946146e660146103fb999810156145ea565b612762565b73ffffffffffffffffffffffffffffffffffffffff16910152565b505060a06000910152565b60a081015173ffffffffffffffffffffffffffffffffffffffff16156147535760c060035b60ff60408401519116606084015102016080830151019101510290565b60c06001614736565b614774604092959493956060835260608301906125ab565b9460208201520152565b906103fb602f60405180947f414132332072657665727465643a20000000000000000000000000000000000060208301526147c28151809260208686019101611fb8565b810103600f81018552018361054f565b90915a9161489f60208551956147fc875173ffffffffffffffffffffffffffffffffffffffff1690565b9361481461480d60408301836124cb565b90846153ed565b60a088015173ffffffffffffffffffffffffffffffffffffffff169061483943600052565b60009273ffffffffffffffffffffffffffffffffffffffff80931615998a614a90575b90856060600093015191015192604051978896879586937f3a871cdd0000000000000000000000000000000000000000000000000000000085526004850161475c565b0393881690f160009181614a6f575b50614952576148bb612e1c565b6308c379a014614933575b6040517f220266b600000000000000000000000000000000000000000000000000000000815280610e9c600482016080906000815260406020820152601660408201527f4141323320726576657274656420286f72204f4f47290000000000000000000060608201520190565b61493b612e3a565b8061494657506148c6565b613258610e9c9161477e565b93614960575b50505a900391565b61498a9073ffffffffffffffffffffffffffffffffffffffff166000526000602052604060002090565b6149a56109be82546dffffffffffffffffffffffffffff1690565b808311614a02576149fb926dffffffffffffffffffffffffffff9103166dffffffffffffffffffffffffffff167fffffffffffffffffffffffffffffffffffff0000000000000000000000000000825416179055565b3880614958565b6040517f220266b600000000000000000000000000000000000000000000000000000000815280610e9c600482016080906000815260406020820152601760408201527f41413231206469646e2774207061792070726566756e6400000000000000000060608201520190565b614a8991925060203d60201161402e5761401f818361054f565b90386148ae565b9350600090614ad96109be614ac58a73ffffffffffffffffffffffffffffffffffffffff166000526000602052604060002090565b546dffffffffffffffffffffffffffff1690565b8981118314614af35750856060835b96929350505061485c565b606087918b03614ae8565b93925a91614b416020855195614b28875173ffffffffffffffffffffffffffffffffffffffff1690565b93614814614b3960408301836124cb565b90848d6156ff565b0393881690f160009181614cf4575b50614beb5786614b5e612e1c565b6308c379a014614bcf575b604080517f220266b600000000000000000000000000000000000000000000000000000000815260048101929092526024820152601660448201527f4141323320726576657274656420286f72204f4f4729000000000000000000006064820152608490fd5b614bd7612e3a565b80614be25750614b69565b61368b9061477e565b94959293614bfd575b5050505a900391565b614c279073ffffffffffffffffffffffffffffffffffffffff166000526000602052604060002090565b91614c436109be84546dffffffffffffffffffffffffffff1690565b90818311614c8e575082547fffffffffffffffffffffffffffffffffffff0000000000000000000000000000169190036dffffffffffffffffffffffffffff16179055388080614bf4565b604080517f220266b600000000000000000000000000000000000000000000000000000000815260048101929092526024820152601760448201527f41413231206469646e2774207061792070726566756e640000000000000000006064820152608490fd5b614d0e91925060203d60201161402e5761401f818361054f565b9038614b50565b73ffffffffffffffffffffffffffffffffffffffff16600052600160205267ffffffffffffffff614d718260401c60406000209077ffffffffffffffffffffffffffffffffffffffffffffffff16600052602052604060002090565b91825492614d7e84611f26565b9055161490565b15614d8c57565b60646040517f08c379a000000000000000000000000000000000000000000000000000000000815260206004820152601f60248201527f4141343120746f6f206c6974746c6520766572696669636174696f6e476173006044820152fd5b919060408382031261030857825167ffffffffffffffff81116103085783019080601f8301121561030857815191614e21836105dd565b91614e2f604051938461054f565b8383526020848301011161030857602092614e4f91848085019101611fb8565b92015190565b906103fb602f60405180947f414133332072657665727465643a20000000000000000000000000000000000060208301526147c28151809260208686019101611fb8565b9190939293805192614ed260a0606086015195614eb7898811614d85565b015173ffffffffffffffffffffffffffffffffffffffff1690565b91614efd8373ffffffffffffffffffffffffffffffffffffffff166000526000602052604060002090565b94614f196109be87546dffffffffffffffffffffffffffff1690565b978589106150ab5773ffffffffffffffffffffffffffffffffffffffff602060009894614f908a966dffffffffffffffffffffffffffff8b614fc99f03166dffffffffffffffffffffffffffff167fffffffffffffffffffffffffffffffffffff0000000000000000000000000000825416179055565b0151946040519a8b98899788937ff465c77e0000000000000000000000000000000000000000000000000000000085526004850161475c565b0395169103f19182600091600094615084575b5061508057614fe9612e1c565b6308c379a014615061575b6040517f220266b600000000000000000000000000000000000000000000000000000000815280610e9c600482016080906000815260406020820152601660408201527f4141333320726576657274656420286f72204f4f47290000000000000000000060608201520190565b615069612e3a565b806150745750614ff4565b613258610e9c91614e55565b9190565b9093506150a491503d806000833e61509c818361054f565b810190614dea565b9238614fdc565b6040517f220266b600000000000000000000000000000000000000000000000000000000815280610e9c600482016080906000815260406020820152601e60408201527f41413331207061796d6173746572206465706f73697420746f6f206c6f77000060608201520190565b939094929194855161513660a0606083015192614eb7868511614d85565b926151618473ffffffffffffffffffffffffffffffffffffffff166000526000602052604060002090565b61517c6109be82546dffffffffffffffffffffffffffff1690565b8681106152c8579173ffffffffffffffffffffffffffffffffffffffff60206151f79a9b614f908a999897956dffffffffffffffffffffffffffff60009c8d9903166dffffffffffffffffffffffffffff167fffffffffffffffffffffffffffffffffffff0000000000000000000000000000825416179055565b0395169103f191826000916000946152a9575b506152a55783615218612e1c565b6308c379a014615289575b604080517f220266b600000000000000000000000000000000000000000000000000000000815260048101929092526024820152601660448201527f4141333320726576657274656420286f72204f4f4729000000000000000000006064820152608490fd5b615291612e3a565b8061529c5750615223565b61368b90614e55565b9250565b9093506152c191503d806000833e61509c818361054f565b923861520a565b610e9c896040519182917f220266b600000000000000000000000000000000000000000000000000000000835260048301608091815260406020820152601e60408201527f41413331207061796d6173746572206465706f73697420746f6f206c6f77000060608201520190565b80156153895761534590615392565b73ffffffffffffffffffffffffffffffffffffffff65ffffffffffff806040840151164211908115615379575b5091511691565b9050602083015116421038615372565b50600090600090565b61539a61449c565b5065ffffffffffff808260a01c1680156153e6575b604051926153bc84610533565b73ffffffffffffffffffffffffffffffffffffffff8116845260d01c602084015216604082015290565b50806153af565b9091806153f957505050565b81515173ffffffffffffffffffffffffffffffffffffffff1692833b6156925773ffffffffffffffffffffffffffffffffffffffff60608451015190602060405180937f570e1a36000000000000000000000000000000000000000000000000000000008252816000816154718a8a600484016127c9565b0392867f00000000000000000000000000000000000000000000000000000000000000001690f19182156113e857600092615671575b508082169586156156045716809503615597573b1561552a576111c26111bc7fd51a9c61267aa6196961883ecf5ff2da6619c37dac0fa92122513fb32c032d2d936154f193612762565b602083810151935160a001516040805173ffffffffffffffffffffffffffffffffffffffff9485168152939091169183019190915290a3565b6040517f220266b600000000000000000000000000000000000000000000000000000000815280610e9c600482016080906000815260406020820152602060408201527f4141313520696e6974436f6465206d757374206372656174652073656e64657260608201520190565b6040517f220266b600000000000000000000000000000000000000000000000000000000815280610e9c600482016080906000815260406020820152602060408201527f4141313420696e6974436f6465206d7573742072657475726e2073656e64657260608201520190565b6040517f220266b600000000000000000000000000000000000000000000000000000000815280610e9c600482016080906000815260406020820152601b60408201527f4141313320696e6974436f6465206661696c6564206f72204f4f47000000000060608201520190565b61568b91925060203d6020116113e1576113d2818361054f565b90386154a7565b6040517f220266b600000000000000000000000000000000000000000000000000000000815280610e9c600482016080906000815260406020820152601f60408201527f414131302073656e64657220616c726561647920636f6e73747275637465640060608201520190565b9290918161570e575b50505050565b82515173ffffffffffffffffffffffffffffffffffffffff1693843b6159aa5773ffffffffffffffffffffffffffffffffffffffff60608551015190602060405180937f570e1a36000000000000000000000000000000000000000000000000000000008252816000816157868b8b600484016127c9565b0392867f00000000000000000000000000000000000000000000000000000000000000001690f19182156113e857600092615989575b5080821696871561591b57168096036158ad573b1561584757506111c26111bc7fd51a9c61267aa6196961883ecf5ff2da6619c37dac0fa92122513fb32c032d2d9361580793612762565b602083810151935160a001516040805173ffffffffffffffffffffffffffffffffffffffff9485168152939091169183019190915290a338808080615708565b604080517f220266b600000000000000000000000000000000000000000000000000000000815260048101929092526024820152602060448201527f4141313520696e6974436f6465206d757374206372656174652073656e6465726064820152608490fd5b610e9c826040519182917f220266b600000000000000000000000000000000000000000000000000000000835260048301608091815260406020820152602060408201527f4141313420696e6974436f6465206d7573742072657475726e2073656e64657260608201520190565b610e9c846040519182917f220266b600000000000000000000000000000000000000000000000000000000835260048301608091815260406020820152601b60408201527f4141313320696e6974436f6465206661696c6564206f72204f4f47000000000060608201520190565b6159a391925060203d6020116113e1576113d2818361054f565b90386157bc565b604080517f220266b600000000000000000000000000000000000000000000000000000000815260048101929092526024820152601f60448201527f414131302073656e64657220616c726561647920636f6e7374727563746564006064820152608490fd5b81604051918237209056fea26469706673582212204e6556d2d00438a4d75433cd2dd337e1b915738fdcd70b54e933a10abdbcfd2164736f6c6343000817003360808060405234610016576101f8908161001c8239f35b600080fdfe6080604052600436101561001257600080fd5b6000803560e01c63570e1a361461002857600080fd5b346100c95760207ffffffffffffffffffffffffffffffffffffffffffffffffffffffffffffffffc3601126100c95760043567ffffffffffffffff918282116100c957366023830112156100c95781600401359283116100c95736602484840101116100c9576100c561009e84602485016100fb565b60405173ffffffffffffffffffffffffffffffffffffffff90911681529081906020820190565b0390f35b80fd5b7f4e487b7100000000000000000000000000000000000000000000000000000000600052604160045260246000fd5b90806014116101b85767ffffffffffffffff917fffffffffffffffffffffffffffffffffffffffffffffffffffffffffffffffec82018381116101bd5760405193600b84017fffffffffffffffffffffffffffffffffffffffffffffffffffffffffffffffe0908116603f01168501908111858210176101bd57604052808452602084019036848401116101b8576020946000600c819682946014880187378301015251923560601c5af19060005191156101b257565b60009150565b600080fd5b6100cc56fea26469706673582212205d087120ca3751a1028618ec3730092f7b07f16ef9d169e1b916cb636f7aa2eb64736f6c63430008170033"
}