{
  "address": "0x30B35DdFB426a49e0Ee7C520b1C04eD617f1c0d3",
  "abi": [
    {
      "inputs": [
        {
          "internalType": "uint256",
          "name": "preOpGas",
          "type": "uint256"
        },
        {
          "internalType": "uint256",
          "name": "paid",
          "type": "uint256"
        },
        {
          "internalType": "uint48",
          "name": "validAfter",
          "type": "uint48"
        },
        {
          "internalType": "uint48",
          "name": "validUntil",
          "type": "uint48"
        },
        {
          "internalType": "bool",
          "name": "targetSuccess",
          "type": "bool"
        },
        {
          "internalType": "bytes",
          "name": "targetResult",
          "type": "bytes"
        }
      ],
      "name": "ExecutionResult",
      "type": "error"
    },
    {
      "inputs": [
        {
          "internalType": "uint256",
          "name": "opIndex",
          "type": "uint256"
        },
        {
          "internalType": "string",
          "name": "reason",
          "type": "string"
        }
      ],
      "name": "FailedOp",
      "type": "error"
    },
    {
      "inputs": [
        {
          "internalType": "address",
          "name": "sender",
          "type": "address"
        }
      ],
      "name": "SenderAddressResult",
      "type": "error"
    },
    {
      "inputs": [
        {
          "internalType": "address",
          "name": "aggregator",
          "type": "address"
        }
      ],
      "name": "SignatureValidationFailed",
      "type": "error"
    },
    {
      "inputs": [
        {
          "components": [
            {
              "internalType": "uint256",
              "name": "preOpGas",
              "type": "uint256"
            },
            {
              "internalType": "uint256",
              "name": "prefund",
              "type": "uint256"
            },
            {
              "internalType": "bool",
              "name": "sigFailed",
              "type": "bool"
            },
            {
              "internalType": "uint48",
              "name": "validAfter",
              "type": "uint48"
            },
            {
              "internalType": "uint48",
              "name": "validUntil",
              "type": "uint48"
            },
            {
              "internalType": "bytes",
              "name": "paymasterContext",
              "type": "bytes"
            }
          ],
          "internalType": "struct IEntryPoint.ReturnInfo",
          "name": "returnInfo",
          "type": "tuple"
        },
        {
          "components": [
            {
              "internalType": "uint256",
              "name": "stake",
              "type": "uint256"
            },
            {
              "internalType": "uint256",
              "name": "unstakeDelaySec",
              "type": "uint256"
            }
          ],
          "internalType": "struct IStakeManager.StakeInfo",
          "name": "senderInfo",
          "type": "tuple"
        },
        {
          "components": [
            {
              "internalType": "uint256",
              "name": "stake",
              "type": "uint256"
            },
            {
              "internalType": "uint256",
              "name": "unstakeDelaySec",
              "type": "uint256"
            }
          ],
          "internalType": "struct IStakeManager.StakeInfo",
          "name": "factoryInfo",
          "type": "tuple"
        },
        {
          "components": [
            {
              "internalType": "uint256",
              "name": "stake",
              "type": "uint256"
            },
            {
              "internalType": "uint256",
              "name": "unstakeDelaySec",
              "type": "uint256"
            }
          ],
          "internalType": "struct IStakeManager.StakeInfo",
          "name": "paymasterInfo",
          "type": "tuple"
        }
      ],
      "name": "ValidationResult",
      "type": "error"
    },
    {
      "inputs": [
        {
          "components": [
            {
              "internalType": "uint256",
              "name": "preOpGas",
              "type": "uint256"
            },
            {
              "internalType": "uint256",
              "name": "prefund",
              "type": "uint256"
            },
            {
              "internalType": "bool",
              "name": "sigFailed",
              "type": "bool"
            },
            {
              "internalType": "uint48",
              "name": "validAfter",
              "type": "uint48"
            },
            {
              "internalType": "uint48",
              "name": "validUntil",
              "type": "uint48"
            },
            {
              "internalType": "bytes",
              "name": "paymasterContext",
              "type": "bytes"
            }
          ],
          "internalType": "struct IEntryPoint.ReturnInfo",
          "name": "returnInfo",
          "type": "tuple"
        },
        {
          "components": [
            {
              "internalType": "uint256",
              "name": "stake",
              "type": "uint256"
            },
            {
              "internalType": "uint256",
              "name": "unstakeDelaySec",
              "type": "uint256"
            }
          ],
          "internalType": "struct IStakeManager.StakeInfo",
          "name": "senderInfo",
          "type": "tuple"
        },
        {
          "components": [
            {
              "internalType": "uint256",
              "name": "stake",
              "type": "uint256"
            },
            {
              "internalType": "uint256",
              "name": "unstakeDelaySec",
              "type": "uint256"
            }
          ],
          "internalType": "struct IStakeManager.StakeInfo",
          "name": "factoryInfo",
          "type": "tuple"
        },
        {
          "components": [
            {
              "internalType": "uint256",
              "name": "stake",
              "type": "uint256"
            },
            {
              "internalType": "uint256",
              "name": "unstakeDelaySec",
              "type": "uint256"
            }
          ],
          "internalType": "struct IStakeManager.StakeInfo",
          "name": "paymasterInfo",
          "type": "tuple"
        },
        {
          "components": [
            {
              "internalType": "address",
              "name": "aggregator",
              "type": "address"
            },
            {
              "components": [
                {
                  "internalType": "uint256",
                  "name": "stake",
                  "type": "uint256"
                },
                {
                  "internalType": "uint256",
                  "name": "unstakeDelaySec",
                  "type": "uint256"
                }
              ],
              "internalType": "struct IStakeManager.StakeInfo",
              "name": "stakeInfo",
              "type": "tuple"
            }
          ],
          "internalType": "struct IEntryPoint.AggregatorStakeInfo",
          "name": "aggregatorInfo",
          "type": "tuple"
        }
      ],
      "name": "ValidationResultWithAggregation",
      "type": "error"
    },
    {
      "anonymous": false,
      "inputs": [
        {
          "indexed": true,
          "internalType": "bytes32",
          "name": "userOpHash",
          "type": "bytes32"
        },
        {
          "indexed": true,
          "internalType": "address",
          "name": "sender",
          "type": "address"
        },
        {
          "indexed": false,
          "internalType": "address",
          "name": "factory",
          "type": "address"
        },
        {
          "indexed": false,
          "internalType": "address",
          "name": "paymaster",
          "type": "address"
        }
      ],
      "name": "AccountDeployed",
      "type": "event"
    },
    {
      "anonymous": false,
      "inputs": [],
      "name": "BeforeExecution",
      "type": "event"
    },
    {
      "anonymous": false,
      "inputs": [
        {
          "indexed": true,
          "internalType": "address",
          "name": "account",
          "type": "address"
        },
        {
          "indexed": false,
          "internalType": "uint256",
          "name": "totalDeposit",
          "type": "uint256"
        }
      ],
      "name": "Deposited",
      "type": "event"
    },
    {
      "anonymous": false,
      "inputs": [
        {
          "indexed": true,
          "internalType": "address",
          "name": "aggregator",
          "type": "address"
        }
      ],
      "name": "SignatureAggregatorChanged",
      "type": "event"
    },
    {
      "anonymous": false,
      "inputs": [
        {
          "indexed": true,
          "internalType": "address",
          "name": "account",
          "type": "address"
        },
        {
          "indexed": false,
          "internalType": "uint256",
          "name": "totalStaked",
          "type": "uint256"
        },
        {
          "indexed": false,
          "internalType": "uint256",
          "name": "unstakeDelaySec",
          "type": "uint256"
        }
      ],
      "name": "StakeLocked",
      "type": "event"
    },
    {
      "anonymous": false,
      "inputs": [
        {
          "indexed": true,
          "internalType": "address",
          "name": "account",
          "type": "address"
        },
        {
          "indexed": false,
          "internalType": "uint256",
          "name": "withdrawTime",
          "type": "uint256"
        }
      ],
      "name": "StakeUnlocked",
      "type": "event"
    },
    {
      "anonymous": false,
      "inputs": [
        {
          "indexed": true,
          "internalType": "address",
          "name": "account",
          "type": "address"
        },
        {
          "indexed": false,
          "internalType": "address",
          "name": "withdrawAddress",
          "type": "address"
        },
        {
          "indexed": false,
          "internalType": "uint256",
          "name": "amount",
          "type": "uint256"
        }
      ],
      "name": "StakeWithdrawn",
      "type": "event"
    },
    {
      "anonymous": false,
      "inputs": [
        {
          "indexed": true,
          "internalType": "bytes32",
          "name": "userOpHash",
          "type": "bytes32"
        },
        {
          "indexed": true,
          "internalType": "address",
          "name": "sender",
          "type": "address"
        },
        {
          "indexed": true,
          "internalType": "address",
          "name": "paymaster",
          "type": "address"
        },
        {
          "indexed": false,
          "internalType": "uint256",
          "name": "nonce",
          "type": "uint256"
        },
        {
          "indexed": false,
          "internalType": "bool",
          "name": "success",
          "type": "bool"
        },
        {
          "indexed": false,
          "internalType": "uint256",
          "name": "actualGasCost",
          "type": "uint256"
        },
        {
          "indexed": false,
          "internalType": "uint256",
          "name": "actualGasUsed",
          "type": "uint256"
        }
      ],
      "name": "UserOperationEvent",
      "type": "event"
    },
    {
      "anonymous": false,
      "inputs": [
        {
          "indexed": true,
          "internalType": "bytes32",
          "name": "userOpHash",
          "type": "bytes32"
        },
        {
          "indexed": true,
          "internalType": "address",
          "name": "sender",
          "type": "address"
        },
        {
          "indexed": false,
          "internalType": "uint256",
          "name": "nonce",
          "type": "uint256"
        },
        {
          "indexed": false,
          "internalType": "bytes",
          "name": "revertReason",
          "type": "bytes"
        }
      ],
      "name": "UserOperationRevertReason",
      "type": "event"
    },
    {
      "anonymous": false,
      "inputs": [
        {
          "indexed": true,
          "internalType": "address",
          "name": "account",
          "type": "address"
        },
        {
          "indexed": false,
          "internalType": "address",
          "name": "withdrawAddress",
          "type": "address"
        },
        {
          "indexed": false,
          "internalType": "uint256",
          "name": "amount",
          "type": "uint256"
        }
      ],
      "name": "Withdrawn",
      "type": "event"
    },
    {
      "inputs": [],
      "name": "IX_READ_SIGNATURE_NS",
      "outputs": [
        {
          "internalType": "bytes32",
          "name": "",
          "type": "bytes32"
        }
      ],
      "stateMutability": "view",
      "type": "function"
    },
    {
      "inputs": [],
      "name": "SIG_VALIDATION_FAILED",
      "outputs": [
        {
          "internalType": "uint256",
          "name": "",
          "type": "uint256"
        }
      ],
      "stateMutability": "view",
      "type": "function"
    },
    {
      "inputs": [
        {
          "internalType": "bytes",
          "name": "initCode",
          "type": "bytes"
        },
        {
          "internalType": "address",
          "name": "sender",
          "type": "address"
        },
        {
          "internalType": "bytes",
          "name": "paymasterAndData",
          "type": "bytes"
        }
      ],
      "name": "_validateSenderAndPaymaster",
      "outputs": [],
      "stateMutability": "view",
      "type": "function"
    },
    {
      "inputs": [
        {
          "internalType": "uint32",
          "name": "unstakeDelaySec",
          "type": "uint32"
        }
      ],
      "name": "addStake",
      "outputs": [],
      "stateMutability": "payable",
      "type": "function"
    },
    {
      "inputs": [
        {
          "internalType": "address",
          "name": "account",
          "type": "address"
        }
      ],
      "name": "balanceOf",
      "outputs": [
        {
          "internalType": "uint256",
          "name": "",
          "type": "uint256"
        }
      ],
      "stateMutability": "view",
      "type": "function"
    },
    {
      "inputs": [
        {
          "internalType": "address",
          "name": "account",
          "type": "address"
        }
      ],
      "name": "depositTo",
      "outputs": [],
      "stateMutability": "payable",
      "type": "function"
    },
    {
      "inputs": [
        {
          "internalType": "address",
          "name": "",
          "type": "address"
        }
      ],
      "name": "deposits",
      "outputs": [
        {
          "internalType": "uint112",
          "name": "deposit",
          "type": "uint112"
        },
        {
          "internalType": "bool",
          "name": "staked",
          "type": "bool"
        },
        {
          "internalType": "uint112",
          "name": "stake",
          "type": "uint112"
        },
        {
          "internalType": "uint32",
          "name": "unstakeDelaySec",
          "type": "uint32"
        },
        {
          "internalType": "uint48",
          "name": "withdrawTime",
          "type": "uint48"
        }
      ],
      "stateMutability": "view",
      "type": "function"
    },
    {
      "inputs": [
        {
          "internalType": "address",
          "name": "account",
          "type": "address"
        }
      ],
      "name": "getDepositInfo",
      "outputs": [
        {
          "components": [
            {
              "internalType": "uint112",
              "name": "deposit",
              "type": "uint112"
            },
            {
              "internalType": "bool",
              "name": "staked",
              "type": "bool"
            },
            {
              "internalType": "uint112",
              "name": "stake",
              "type": "uint112"
            },
            {
              "internalType": "uint32",
              "name": "unstakeDelaySec",
              "type": "uint32"
            },
            {
              "internalType": "uint48",
              "name": "withdrawTime",
              "type": "uint48"
            }
          ],
          "internalType": "struct IStakeManager.DepositInfo",
          "name": "info",
          "type": "tuple"
        }
      ],
      "stateMutability": "view",
      "type": "function"
    },
    {
      "inputs": [
        {
          "internalType": "address",
          "name": "sender",
          "type": "address"
        },
        {
          "internalType": "uint192",
          "name": "key",
          "type": "uint192"
        }
      ],
      "name": "getNonce",
      "outputs": [
        {
          "internalType": "uint256",
          "name": "nonce",
          "type": "uint256"
        }
      ],
      "stateMutability": "view",
      "type": "function"
    },
    {
      "inputs": [
        {
          "internalType": "bytes",
          "name": "initCode",
          "type": "bytes"
        }
      ],
      "name": "getSenderAddress",
      "outputs": [],
      "stateMutability": "nonpayable",
      "type": "function"
    },
    {
      "inputs": [
        {
          "components": [
            {
              "internalType": "address",
              "name": "sender",
              "type": "address"
            },
            {
              "internalType": "uint256",
              "name": "nonce",
              "type": "uint256"
            },
            {
              "internalType": "bytes",
              "name": "initCode",
              "type": "bytes"
            },
            {
              "internalType": "bytes",
              "name": "callData",
              "type": "bytes"
            },
            {
              "internalType": "uint256",
              "name": "callGasLimit",
              "type": "uint256"
            },
            {
              "internalType": "uint256",
              "name": "verificationGasLimit",
              "type": "uint256"
            },
            {
              "internalType": "uint256",
              "name": "preVerificationGas",
              "type": "uint256"
            },
            {
              "internalType": "uint256",
              "name": "maxFeePerGas",
              "type": "uint256"
            },
            {
              "internalType": "uint256",
              "name": "maxPriorityFeePerGas",
              "type": "uint256"
            },
            {
              "internalType": "bytes",
              "name": "paymasterAndData",
              "type": "bytes"
            },
            {
              "internalType": "bytes",
              "name": "signature",
              "type": "bytes"
            }
          ],
          "internalType": "struct UserOperation",
          "name": "userOp",
          "type": "tuple"
        }
      ],
      "name": "getUserOpHash",
      "outputs": [
        {
          "internalType": "bytes32",
          "name": "",
          "type": "bytes32"
        }
      ],
      "stateMutability": "view",
      "type": "function"
    },
    {
      "inputs": [
        {
          "components": [
            {
              "components": [
                {
                  "internalType": "address",
                  "name": "sender",
                  "type": "address"
                },
                {
                  "internalType": "uint256",
                  "name": "nonce",
                  "type": "uint256"
                },
                {
                  "internalType": "bytes",
                  "name": "initCode",
                  "type": "bytes"
                },
                {
                  "internalType": "bytes",
                  "name": "callData",
                  "type": "bytes"
                },
                {
                  "internalType": "uint256",
                  "name": "callGasLimit",
                  "type": "uint256"
                },
                {
                  "internalType": "uint256",
                  "name": "verificationGasLimit",
                  "type": "uint256"
                },
                {
                  "internalType": "uint256",
                  "name": "preVerificationGas",
                  "type": "uint256"
                },
                {
                  "internalType": "uint256",
                  "name": "maxFeePerGas",
                  "type": "uint256"
                },
                {
                  "internalType": "uint256",
                  "name": "maxPriorityFeePerGas",
                  "type": "uint256"
                },
                {
                  "internalType": "bytes",
                  "name": "paymasterAndData",
                  "type": "bytes"
                },
                {
                  "internalType": "bytes",
                  "name": "signature",
                  "type": "bytes"
                }
              ],
              "internalType": "struct UserOperation[]",
              "name": "userOps",
              "type": "tuple[]"
            },
            {
              "internalType": "contract IAggregator",
              "name": "aggregator",
              "type": "address"
            },
            {
              "internalType": "bytes",
              "name": "signature",
              "type": "bytes"
            }
          ],
          "internalType": "struct IEntryPoint.UserOpsPerAggregator[]",
          "name": "opsPerAggregator",
          "type": "tuple[]"
        },
        {
          "internalType": "address payable",
          "name": "beneficiary",
          "type": "address"
        }
      ],
      "name": "handleAggregatedOps",
      "outputs": [],
      "stateMutability": "nonpayable",
      "type": "function"
    },
    {
      "inputs": [
        {
          "components": [
            {
              "internalType": "address",
              "name": "sender",
              "type": "address"
            },
            {
              "internalType": "uint256",
              "name": "nonce",
              "type": "uint256"
            },
            {
              "internalType": "bytes",
              "name": "initCode",
              "type": "bytes"
            },
            {
              "internalType": "bytes",
              "name": "callData",
              "type": "bytes"
            },
            {
              "internalType": "uint256",
              "name": "callGasLimit",
              "type": "uint256"
            },
            {
              "internalType": "uint256",
              "name": "verificationGasLimit",
              "type": "uint256"
            },
            {
              "internalType": "uint256",
              "name": "preVerificationGas",
              "type": "uint256"
            },
            {
              "internalType": "uint256",
              "name": "maxFeePerGas",
              "type": "uint256"
            },
            {
              "internalType": "uint256",
              "name": "maxPriorityFeePerGas",
              "type": "uint256"
            },
            {
              "internalType": "bytes",
              "name": "paymasterAndData",
              "type": "bytes"
            },
            {
              "internalType": "bytes",
              "name": "signature",
              "type": "bytes"
            }
          ],
          "internalType": "struct UserOperation[]",
          "name": "ops",
          "type": "tuple[]"
        },
        {
          "internalType": "address payable",
          "name": "beneficiary",
          "type": "address"
        }
      ],
      "name": "handleOps",
      "outputs": [],
      "stateMutability": "nonpayable",
      "type": "function"
    },
    {
      "inputs": [
        {
          "internalType": "uint192",
          "name": "key",
          "type": "uint192"
        }
      ],
      "name": "incrementNonce",
      "outputs": [],
      "stateMutability": "nonpayable",
      "type": "function"
    },
    {
      "inputs": [
        {
          "internalType": "bytes",
          "name": "callData",
          "type": "bytes"
        },
        {
          "components": [
            {
              "components": [
                {
                  "internalType": "address",
                  "name": "sender",
                  "type": "address"
                },
                {
                  "internalType": "uint256",
                  "name": "nonce",
                  "type": "uint256"
                },
                {
                  "internalType": "uint256",
                  "name": "callGasLimit",
                  "type": "uint256"
                },
                {
                  "internalType": "uint256",
                  "name": "verificationGasLimit",
                  "type": "uint256"
                },
                {
                  "internalType": "uint256",
                  "name": "preVerificationGas",
                  "type": "uint256"
                },
                {
                  "internalType": "address",
                  "name": "paymaster",
                  "type": "address"
                },
                {
                  "internalType": "uint256",
                  "name": "maxFeePerGas",
                  "type": "uint256"
                },
                {
                  "internalType": "uint256",
                  "name": "maxPriorityFeePerGas",
                  "type": "uint256"
                }
              ],
              "internalType": "struct EntryPoint.MemoryUserOp",
              "name": "mUserOp",
              "type": "tuple"
            },
            {
              "internalType": "bytes32",
              "name": "userOpHash",
              "type": "bytes32"
            },
            {
              "internalType": "uint256",
              "name": "prefund",
              "type": "uint256"
            },
            {
              "internalType": "uint256",
              "name": "contextOffset",
              "type": "uint256"
            },
            {
              "internalType": "uint256",
              "name": "preOpGas",
              "type": "uint256"
            }
          ],
          "internalType": "struct EntryPoint.UserOpInfo",
          "name": "opInfo",
          "type": "tuple"
        },
        {
          "internalType": "bytes",
          "name": "context",
          "type": "bytes"
        }
      ],
      "name": "innerHandleOp",
      "outputs": [
        {
          "internalType": "uint256",
          "name": "actualGasCost",
          "type": "uint256"
        }
      ],
      "stateMutability": "nonpayable",
      "type": "function"
    },
    {
      "inputs": [
        {
          "internalType": "address",
          "name": "",
          "type": "address"
        },
        {
          "internalType": "uint192",
          "name": "",
          "type": "uint192"
        }
      ],
      "name": "nonceSequenceNumber",
      "outputs": [
        {
          "internalType": "uint256",
          "name": "",
          "type": "uint256"
        }
      ],
      "stateMutability": "view",
      "type": "function"
    },
    {
      "inputs": [
        {
          "components": [
            {
              "internalType": "address",
              "name": "sender",
              "type": "address"
            },
            {
              "internalType": "uint256",
              "name": "nonce",
              "type": "uint256"
            },
            {
              "internalType": "bytes",
              "name": "initCode",
              "type": "bytes"
            },
            {
              "internalType": "bytes",
              "name": "callData",
              "type": "bytes"
            },
            {
              "internalType": "uint256",
              "name": "callGasLimit",
              "type": "uint256"
            },
            {
              "internalType": "uint256",
              "name": "verificationGasLimit",
              "type": "uint256"
            },
            {
              "internalType": "uint256",
              "name": "preVerificationGas",
              "type": "uint256"
            },
            {
              "internalType": "uint256",
              "name": "maxFeePerGas",
              "type": "uint256"
            },
            {
              "internalType": "uint256",
              "name": "maxPriorityFeePerGas",
              "type": "uint256"
            },
            {
              "internalType": "bytes",
              "name": "paymasterAndData",
              "type": "bytes"
            },
            {
              "internalType": "bytes",
              "name": "signature",
              "type": "bytes"
            }
          ],
          "internalType": "struct UserOperation",
          "name": "op",
          "type": "tuple"
        },
        {
          "internalType": "address",
          "name": "target",
          "type": "address"
        },
        {
          "internalType": "bytes",
          "name": "targetCallData",
          "type": "bytes"
        }
      ],
      "name": "simulateHandleOp",
      "outputs": [],
      "stateMutability": "nonpayable",
      "type": "function"
    },
    {
      "inputs": [
        {
          "components": [
            {
              "internalType": "address",
              "name": "sender",
              "type": "address"
            },
            {
              "internalType": "uint256",
              "name": "nonce",
              "type": "uint256"
            },
            {
              "internalType": "bytes",
              "name": "initCode",
              "type": "bytes"
            },
            {
              "internalType": "bytes",
              "name": "callData",
              "type": "bytes"
            },
            {
              "internalType": "uint256",
              "name": "callGasLimit",
              "type": "uint256"
            },
            {
              "internalType": "uint256",
              "name": "verificationGasLimit",
              "type": "uint256"
            },
            {
              "internalType": "uint256",
              "name": "preVerificationGas",
              "type": "uint256"
            },
            {
              "internalType": "uint256",
              "name": "maxFeePerGas",
              "type": "uint256"
            },
            {
              "internalType": "uint256",
              "name": "maxPriorityFeePerGas",
              "type": "uint256"
            },
            {
              "internalType": "bytes",
              "name": "paymasterAndData",
              "type": "bytes"
            },
            {
              "internalType": "bytes",
              "name": "signature",
              "type": "bytes"
            }
          ],
          "internalType": "struct UserOperation",
          "name": "op",
          "type": "tuple"
        }
      ],
      "name": "simulateReadOp",
      "outputs": [],
      "stateMutability": "nonpayable",
      "type": "function"
    },
    {
      "inputs": [
        {
          "components": [
            {
              "internalType": "address",
              "name": "sender",
              "type": "address"
            },
            {
              "internalType": "uint256",
              "name": "nonce",
              "type": "uint256"
            },
            {
              "internalType": "bytes",
              "name": "initCode",
              "type": "bytes"
            },
            {
              "internalType": "bytes",
              "name": "callData",
              "type": "bytes"
            },
            {
              "internalType": "uint256",
              "name": "callGasLimit",
              "type": "uint256"
            },
            {
              "internalType": "uint256",
              "name": "verificationGasLimit",
              "type": "uint256"
            },
            {
              "internalType": "uint256",
              "name": "preVerificationGas",
              "type": "uint256"
            },
            {
              "internalType": "uint256",
              "name": "maxFeePerGas",
              "type": "uint256"
            },
            {
              "internalType": "uint256",
              "name": "maxPriorityFeePerGas",
              "type": "uint256"
            },
            {
              "internalType": "bytes",
              "name": "paymasterAndData",
              "type": "bytes"
            },
            {
              "internalType": "bytes",
              "name": "signature",
              "type": "bytes"
            }
          ],
          "internalType": "struct UserOperation",
          "name": "userOp",
          "type": "tuple"
        }
      ],
      "name": "simulateValidation",
      "outputs": [],
      "stateMutability": "nonpayable",
      "type": "function"
    },
    {
      "inputs": [],
      "name": "unlockStake",
      "outputs": [],
      "stateMutability": "nonpayable",
      "type": "function"
    },
    {
      "inputs": [
        {
          "internalType": "address payable",
          "name": "withdrawAddress",
          "type": "address"
        }
      ],
      "name": "withdrawStake",
      "outputs": [],
      "stateMutability": "nonpayable",
      "type": "function"
    },
    {
      "inputs": [
        {
          "internalType": "address payable",
          "name": "withdrawAddress",
          "type": "address"
        },
        {
          "internalType": "uint256",
          "name": "withdrawAmount",
          "type": "uint256"
        }
      ],
      "name": "withdrawTo",
      "outputs": [],
      "stateMutability": "nonpayable",
      "type": "function"
    },
    {
      "stateMutability": "payable",
      "type": "receive"
    }
  ],
  "transactionHash": "0xaf69d48fdffb9da9123e3148f968431499f278716589b5faca19960e8e244edb",
  "args": [],
  "numDeployments": 6,
  "solcInputHash": "93532d825b23b1427f17c03ebac4c227",
  "bytecode": "0x60a08060405234620000895760016002556102148181016001600160401b038111838210176200007357829162005ee4833903906000f080156200006757608052604051615e5590816200008f82396080518181816116480152818161587a0152615b8f0152f35b6040513d6000823e3d90fd5b634e487b7160e01b600052604160045260246000fd5b600080fdfe60806040526004361015610023575b361561001957600080fd5b610021613153565b005b60003560e01c80630396cb60146101835780630bd28e3b1461017e5780631b2e01b8146101795780631d732756146101745780631fad948c1461016f578063205c28781461016a57806335567e1a146101655780634b1d7cf5146101605780635287ce121461015b57806364530a4d1461015657806370a08231146101515780638f41ec5a1461014c57806390a64d3914610147578063957122ab146101425780639b249f691461013d578063a619353114610138578063b760faf914610133578063bb9fe6bf1461012e578063c23a5cea14610129578063d6383f9414610124578063ee2194231461011f5763fc7e286d0361000e57611dce565b611bb6565b611a55565b6118bd565b611740565b611702565b6116e2565b6115a2565b6113d0565b6111ac565b61111a565b6110a1565b611048565b610eee565b610ba9565b610ae5565b610947565b61086e565b61069c565b610435565b610354565b60207ffffffffffffffffffffffffffffffffffffffffffffffffffffffffffffffffc3601126103285760043563ffffffff8116808203610328576103237fa5ae833d0bb1dcd632d98a8b70973e8516812898e19bf27b70071ebc8dc52c01916102406102103373ffffffffffffffffffffffffffffffffffffffff166000526000602052604060002090565b9161021c811515611e84565b610239610230600185015463ffffffff1690565b63ffffffff1690565b1115611ee9565b54926103056dffffffffffffffffffffffffffff946102c361026734888460781c16611f7d565b96610273881515611f8f565b61027f81891115611ff4565b6102a38161028b6105b0565b941684906dffffffffffffffffffffffffffff169052565b6001602084015287166dffffffffffffffffffffffffffff166040830152565b63ffffffff83166060820152600060808201526103003373ffffffffffffffffffffffffffffffffffffffff166000526000602052604060002090565b612059565b6040805194855263ffffffff90911660208501523393918291820190565b0390a2005b600080fd5b6024359077ffffffffffffffffffffffffffffffffffffffffffffffff8216820361032857565b346103285760207ffffffffffffffffffffffffffffffffffffffffffffffffffffffffffffffffc3601126103285760043577ffffffffffffffffffffffffffffffffffffffffffffffff81168103610328576103e29033600052600160205260406000209077ffffffffffffffffffffffffffffffffffffffffffffffff16600052602052604060002090565b6103ec81546121bd565b9055005b73ffffffffffffffffffffffffffffffffffffffff81160361032857565b6024359061041b826103f0565b565b60c4359061041b826103f0565b359061041b826103f0565b346103285760407ffffffffffffffffffffffffffffffffffffffffffffffffffffffffffffffffc3601126103285760206104c9600435610475816103f0565b73ffffffffffffffffffffffffffffffffffffffff61049261032d565b91166000526001835260406000209077ffffffffffffffffffffffffffffffffffffffffffffffff16600052602052604060002090565b54604051908152f35b7f4e487b7100000000000000000000000000000000000000000000000000000000600052604160045260246000fd5b60a0810190811067ffffffffffffffff82111761051d57604052565b6104d2565b610100810190811067ffffffffffffffff82111761051d57604052565b67ffffffffffffffff811161051d57604052565b6060810190811067ffffffffffffffff82111761051d57604052565b90601f7fffffffffffffffffffffffffffffffffffffffffffffffffffffffffffffffe0910116810190811067ffffffffffffffff82111761051d57604052565b6040519061041b82610501565b6040519060c0820182811067ffffffffffffffff82111761051d57604052565b604051906040820182811067ffffffffffffffff82111761051d57604052565b67ffffffffffffffff811161051d57601f017fffffffffffffffffffffffffffffffffffffffffffffffffffffffffffffffe01660200190565b929192610643826105fd565b91610651604051938461056f565b829481845281830111610328578281602093846000960137010152565b9181601f840112156103285782359167ffffffffffffffff8311610328576020838186019501011161032857565b34610328576101c07ffffffffffffffffffffffffffffffffffffffffffffffffffffffffffffffffc3601126103285767ffffffffffffffff6004358181116103285736602382011215610328576106fe903690602481600401359101610637565b907fffffffffffffffffffffffffffffffffffffffffffffffffffffffffffffffdc36016101808112610328576101006040519161073b83610501565b126103285760405161074c81610522565b61075461040e565b815260443560208201526064356040820152608435606082015260a435608082015261077e61041d565b60a082015260e43560c08201526101043560e082015281526101243560208201526101443560408201526101643560608201526101843560808201526101a435918211610328576107f2926107da6107e293369060040161066e565b9290916122e4565b6040519081529081906020820190565b0390f35b9060407ffffffffffffffffffffffffffffffffffffffffffffffffffffffffffffffffc8301126103285760043567ffffffffffffffff9283821161032857806023830112156103285781600401359384116103285760248460051b8301011161032857602401919060243561086b816103f0565b90565b346103285761087c366107f6565b610887929192613ae3565b610890836124c8565b60005b84811061091057506000927fbb47ee3e183a558b1a2ff0874b079f3fc5478b7454eacf2bfc5af2ff5878f9728480a183915b8583106108e0576108d6858561458c565b6100216001600255565b9091936001906109066108f487898761257d565b6108fe8886612564565b519088614439565b01940191906108c5565b8061093e610937610925600194869896612564565b51610931848a8861257d565b84613dbd565b9083613fc3565b01929092610893565b346103285760407ffffffffffffffffffffffffffffffffffffffffffffffffffffffffffffffffc36011261032857600435610982816103f0565b6024359060009133835282602052604083206dffffffffffffffffffffffffffff81541692838311610a8757848373ffffffffffffffffffffffffffffffffffffffff829593610a2a84966109f16109de8798610a849c6125bd565b6dffffffffffffffffffffffffffff1690565b6dffffffffffffffffffffffffffff167fffffffffffffffffffffffffffffffffffff0000000000000000000000000000825416179055565b6040805173ffffffffffffffffffffffffffffffffffffffff831681526020810185905233917fd1c19fbcd4551a5edfb66d43d2e337c04837afda3482b42bdf569a8fccdae5fb91a2165af1610a7e6125ca565b506125fa565b80f35b60646040517f08c379a000000000000000000000000000000000000000000000000000000000815260206004820152601960248201527f576974686472617720616d6f756e7420746f6f206c61726765000000000000006044820152fd5b346103285760407ffffffffffffffffffffffffffffffffffffffffffffffffffffffffffffffffc360112610328576020600435610b22816103f0565b73ffffffffffffffffffffffffffffffffffffffff610b3f61032d565b911660005260018252610b7a8160406000209077ffffffffffffffffffffffffffffffffffffffffffffffff16600052602052604060002090565b547fffffffffffffffffffffffffffffffffffffffffffffffff00000000000000006040519260401b16178152f35b3461032857610bb7366107f6565b610bbf613ae3565b6000805b838210610d9657610bd491506124c8565b7fbb47ee3e183a558b1a2ff0874b079f3fc5478b7454eacf2bfc5af2ff5878f972600080a16000805b848110610d0157505060008093815b818110610c43576108d6868660007f575ff3acadd5ab348fe1855e217e0f3678f8d767d7494c9f9fefbee2e17cca4d8180a261458c565b610ca7610c5182848a61265f565b610c7c610c63610c63602084016126f3565b73ffffffffffffffffffffffffffffffffffffffff1690565b7f575ff3acadd5ab348fe1855e217e0f3678f8d767d7494c9f9fefbee2e17cca4d600080a28061269f565b906000915b808310610cbe57505050600101610c0c565b90919497610cf8610cf2600192610cec8c8b610ce582610cdf8e8b8d61257d565b92612564565b5191614439565b90611f7d565b996121bd565b95019190610cac565b610d0c81868861265f565b6020610d24610d1b838061269f565b929093016126f3565b9173ffffffffffffffffffffffffffffffffffffffff60009316905b828410610d535750505050600101610bfd565b90919294610d8c81610d8785610d80610d6e6001968d612564565b51610d7a8c8b8a61257d565b85613dbd565b908b6141db565b6121bd565b9501929190610d40565b610da182858761265f565b90610dac828061269f565b92610dbc610c63602083016126f3565b9173ffffffffffffffffffffffffffffffffffffffff8316610de160018214156126fd565b610dfd575b505050600191610df591611f7d565b910190610bc3565b909592610e166040999693999895989788810190612762565b92908a3b156103285789938b918a5193849283927fe3563a4f00000000000000000000000000000000000000000000000000000000845260049e8f850193610e5d94612929565b03815a93600094fa9081610ed5575b50610ec05786517f86a9f75000000000000000000000000000000000000000000000000000000000815273ffffffffffffffffffffffffffffffffffffffff8a16818a0190815281906020010390fd5b0390fd5b9497509295509093509181610df56001610de6565b80610ee2610ee89261053f565b8061103d565b38610e6c565b346103285760207ffffffffffffffffffffffffffffffffffffffffffffffffffffffffffffffffc360112610328576107f273ffffffffffffffffffffffffffffffffffffffff600435610f41816103f0565b608060409283928351610f5381610501565b600093818580935282602082015282878201528260608201520152168152806020522090610fe265ffffffffffff6001835194610f8f86610501565b80546dffffffffffffffffffffffffffff8082168852607082901c60ff161515602089015260789190911c1685870152015463ffffffff8116606086015260201c16608084019065ffffffffffff169052565b5191829182919091608065ffffffffffff8160a08401956dffffffffffffffffffffffffffff808251168652602082015115156020870152604082015116604086015263ffffffff6060820151166060860152015116910152565b600091031261032857565b346103285760007ffffffffffffffffffffffffffffffffffffffffffffffffffffffffffffffffc3601126103285760206040517f840dcac6dc88059c8901dd3a1056912496226aaca1c944db291f91c79a3b15378152f35b346103285760207ffffffffffffffffffffffffffffffffffffffffffffffffffffffffffffffffc3601126103285773ffffffffffffffffffffffffffffffffffffffff6004356110f1816103f0565b16600052600060205260206dffffffffffffffffffffffffffff60406000205416604051908152f35b346103285760007ffffffffffffffffffffffffffffffffffffffffffffffffffffffffffffffffc36011261032857602060405160018152f35b90816101609103126103285790565b60207ffffffffffffffffffffffffffffffffffffffffffffffffffffffffffffffffc820112610328576004359067ffffffffffffffff82116103285761086b91600401611154565b34610328576111ba36611163565b6111c2612465565b90610ebc60008061126d6112678651966111dc88886146e2565b6111e587612bec565b6040516112508161122460208201948560409181527f840dcac6dc88059c8901dd3a1056912496226aaca1c944db291f91c79a3b153760208201520190565b037fffffffffffffffffffffffffffffffffffffffffffffffffffffffffffffffe0810183528261056f565b5190206020820152611261876147e7565b86613bb5565b90614903565b9360808260208701976112946112898a5165ffffffffffff1690565b65ffffffffffff1690565b421015806113ac575b6112a6906129f9565b6112e373ffffffffffffffffffffffffffffffffffffffff6112dc8a5173ffffffffffffffffffffffffffffffffffffffff1690565b1615612a5e565b61132e61132760608601926113046112fb8589612762565b90501515612ac3565b61130d43600052565b5173ffffffffffffffffffffffffffffffffffffffff1690565b9185612762565b939061133f60405180968193612b28565b03940135f192611379604061136b6113556125ca565b9361135f43600052565b5165ffffffffffff1690565b94015165ffffffffffff1690565b936040519485947f8b7ac98000000000000000000000000000000000000000000000000000000000865260048601612b36565b506112a66113c661128960408b015165ffffffffffff1690565b421115905061129d565b346103285760607ffffffffffffffffffffffffffffffffffffffffffffffffffffffffffffffffc36011261032857600467ffffffffffffffff813581811161032857611420903690840161066e565b90506024359161142f836103f0565b60443590811161032857611446903690850161066e565b929091159081611598575b506115315760148210156114a1575b610ebc836040519182917f08c379a0000000000000000000000000000000000000000000000000000000008352820160409060208152600060208201520190565b6114b16114bd926114b792612b74565b90612b82565b60601c90565b3b156114ca573880611460565b610ebc906040519182917f08c379a0000000000000000000000000000000000000000000000000000000008352820160609060208152601b60208201527f41413330207061796d6173746572206e6f74206465706c6f796564000000000060408201520190565b610ebc836040519182917f08c379a0000000000000000000000000000000000000000000000000000000008352820160609060208152601960208201527f41413230206163636f756e74206e6f74206465706c6f7965640000000000000060408201520190565b90503b1538611451565b346103285760207ffffffffffffffffffffffffffffffffffffffffffffffffffffffffffffffffc3601126103285760043567ffffffffffffffff81116103285760206115f661164192369060040161066e565b73ffffffffffffffffffffffffffffffffffffffff929160405194859283927f570e1a3600000000000000000000000000000000000000000000000000000000845260048401612bdb565b03816000857f0000000000000000000000000000000000000000000000000000000000000000165af19081156116dd576024926000926116ac575b50604051917f6ca7b806000000000000000000000000000000000000000000000000000000008352166004820152fd5b6116cf91925060203d6020116116d6575b6116c7818361056f565b810190612bc6565b903861167c565b503d6116bd565b6129ed565b346103285760206116fa6116f536611163565b612bec565b604051908152f35b60207ffffffffffffffffffffffffffffffffffffffffffffffffffffffffffffffffc3601126103285761002160043561173b816103f0565b612d30565b34610328576000807ffffffffffffffffffffffffffffffffffffffffffffffffffffffffffffffffc3601126118ba573381528060205260408120600181019063ffffffff82541690811561185c576117f96117be611821936117b06117ab855460ff9060701c1690565b612d9c565b65ffffffffffff4216612e01565b84547fffffffffffffffffffffffffffffffffffffffffffff000000000000ffffffff16602082901b69ffffffffffff000000001617909455565b7fffffffffffffffffffffffffffffffffff00ffffffffffffffffffffffffffff8154169055565b60405165ffffffffffff91909116815233907ffa9b3c14cc825c412c9ed81b3ba365a5b459439403f18829e572ed53a4180f0a90602090a280f35b60646040517f08c379a000000000000000000000000000000000000000000000000000000000815260206004820152600a60248201527f6e6f74207374616b6564000000000000000000000000000000000000000000006044820152fd5b80fd5b346103285760207ffffffffffffffffffffffffffffffffffffffffffffffffffffffffffffffffc360112610328576004356118f8816103f0565b610a8473ffffffffffffffffffffffffffffffffffffffff61193a3373ffffffffffffffffffffffffffffffffffffffff166000526000602052604060002090565b926119f261195d6109de86546dffffffffffffffffffffffffffff9060781c1690565b94611969861515612e1b565b6119ca600182016119a265ffffffffffff61198e835465ffffffffffff9060201c1690565b1661199a811515612e80565b421015612ee5565b80547fffffffffffffffffffffffffffffffffffffffffffff00000000000000000000169055565b7fffffff0000000000000000000000000000ffffffffffffffffffffffffffffff8154169055565b6040805173ffffffffffffffffffffffffffffffffffffffff831681526020810186905233917fb7c918e0e249f999e965cafeb6c664271b3f4317d296461500e71da39f0cbda391a2600080809581948294165af1611a4f6125ca565b50612f4a565b346103285760607ffffffffffffffffffffffffffffffffffffffffffffffffffffffffffffffffc3601126103285767ffffffffffffffff60043581811161032857611aa5903690600401611154565b60243591611ab2836103f0565b60443590811161032857611acd610ebc91369060040161066e565b611ad5612465565b611ade856147e7565b611aeb6112678287613bb5565b94611afb826000924384526142db565b96438252819360609573ffffffffffffffffffffffffffffffffffffffff8316611b82575b505050506080015193611b4f6040611b41602084015165ffffffffffff1690565b92015165ffffffffffff1690565b906040519687967f8b7ac98000000000000000000000000000000000000000000000000000000000885260048801612faf565b83955083949650611b9c6040949293945180948193612b28565b03925af1906080611bab6125ca565b929190388080611b20565b3461032857611bc436611163565b611bcc612465565b611bd5826147e7565b611bdf8183613bb5565b825160a00151919391611c0c9073ffffffffffffffffffffffffffffffffffffffff16614a98565b614a98565b90611c30611c07855173ffffffffffffffffffffffffffffffffffffffff90511690565b94611c39612feb565b50611c4960409485810190612762565b9060148210611dc2576114b76114b1611c6593611c0793612b74565b91611c6f91614903565b805173ffffffffffffffffffffffffffffffffffffffff169073ffffffffffffffffffffffffffffffffffffffff821660018114916080880151978781015191886020820151611cc49065ffffffffffff1690565b91015165ffffffffffff16916060015192611cdd6105bd565b9a8b5260208b0152841515898b015265ffffffffffff1660608a015265ffffffffffff16608089015260a088015215159081611db9575b50611d4e5750610ebc92519485947fe0cff05f000000000000000000000000000000000000000000000000000000008652600486016130f9565b9190610ebc93611d5d84614a98565b611d84611d686105dd565b73ffffffffffffffffffffffffffffffffffffffff9096168652565b6020850152519586957ffaecb4e400000000000000000000000000000000000000000000000000000000875260048701613067565b90501538611d14565b5050611c656000614a98565b346103285760207ffffffffffffffffffffffffffffffffffffffffffffffffffffffffffffffffc3601126103285773ffffffffffffffffffffffffffffffffffffffff600435611e1e816103f0565b16600052600060205260a0604060002065ffffffffffff81549160016dffffffffffffffffffffffffffff9101549060405193818116855260ff8160701c161515602086015260781c16604084015263ffffffff8116606084015260201c166080820152f35b15611e8b57565b60646040517f08c379a000000000000000000000000000000000000000000000000000000000815260206004820152601a60248201527f6d757374207370656369667920756e7374616b652064656c61790000000000006044820152fd5b15611ef057565b60646040517f08c379a000000000000000000000000000000000000000000000000000000000815260206004820152601c60248201527f63616e6e6f7420646563726561736520756e7374616b652074696d65000000006044820152fd5b7f4e487b7100000000000000000000000000000000000000000000000000000000600052601160045260246000fd5b91908201809211611f8a57565b611f4e565b15611f9657565b60646040517f08c379a000000000000000000000000000000000000000000000000000000000815260206004820152601260248201527f6e6f207374616b652073706563696669656400000000000000000000000000006044820152fd5b15611ffb57565b60646040517f08c379a000000000000000000000000000000000000000000000000000000000815260206004820152600e60248201527f7374616b65206f766572666c6f770000000000000000000000000000000000006044820152fd5b9065ffffffffffff6080600161041b946120b96dffffffffffffffffffffffffffff86511682906dffffffffffffffffffffffffffff167fffffffffffffffffffffffffffffffffffff0000000000000000000000000000825416179055565b602085015115156eff000000000000000000000000000082549160701b16807fffffffffffffffffffffffffffffffffff00ffffffffffffffffffffffffffff83161783557fffffff000000000000000000000000000000ffffffffffffffffffffffffffff7cffffffffffffffffffffffffffff000000000000000000000000000000604089015160781b16921617178155019263ffffffff6060820151167fffffffffffffffffffffffffffffffffffffffffffffffffffffffff000000008554161784550151167fffffffffffffffffffffffffffffffffffffffffffff000000000000ffffffff69ffffffffffff0000000083549260201b169116179055565b7fffffffffffffffffffffffffffffffffffffffffffffffffffffffffffffffff8114611f8a5760010190565b156121f157565b60646040517f08c379a000000000000000000000000000000000000000000000000000000000815260206004820152601760248201527f4141393220696e7465726e616c2063616c6c206f6e6c790000000000000000006044820152fd5b60005b8381106122625750506000910152565b8181015183820152602001612252565b907fffffffffffffffffffffffffffffffffffffffffffffffffffffffffffffffe0601f6020936122ae8151809281875287808801910161224f565b0116010190565b90604061086b92600081528160208201520190612272565b60409061086b939281528160208201520190612272565b909291925a936122f53033146121ea565b8151946040860151955a61138860608301518901011180612445575b61241b5761086b966000958051612342575b5050509061233c915a9003608084015101943691610637565b9161331f565b6123719161236d91612368855173ffffffffffffffffffffffffffffffffffffffff1690565b61315c565b1590565b61237d575b8080612323565b61233c9291945061238c61316e565b9081516123a0575b50506001939091612376565b7f1c4fada7374c0a9ee8841fc38afe82932dc0f8e69012e927f061a8bae611a20173ffffffffffffffffffffffffffffffffffffffff60208701519261241160206123ff835173ffffffffffffffffffffffffffffffffffffffff1690565b920151956040519384931696836122cd565b0390a33880612394565b7fdeaddead0000000000000000000000000000000000000000000000000000000060005260206000fd5b506000612311565b67ffffffffffffffff811161051d5760051b60200190565b6040519061247282610501565b60405160808361248183610522565b60009283815283602082015283604082015283606082015283838201528360a08201528360c08201528360e082015281528260208201528260408201528260608201520152565b906124d28261244d565b6124df604051918261056f565b8281527fffffffffffffffffffffffffffffffffffffffffffffffffffffffffffffffe061250d829461244d565b019060005b82811061251e57505050565b602090612529612465565b82828501015201612512565b7f4e487b7100000000000000000000000000000000000000000000000000000000600052603260045260246000fd5b80518210156125785760209160051b010190565b612535565b91908110156125785760051b810135907ffffffffffffffffffffffffffffffffffffffffffffffffffffffffffffffea181360301821215610328570190565b91908203918211611f8a57565b3d156125f5573d906125db826105fd565b916125e9604051938461056f565b82523d6000602084013e565b606090565b1561260157565b60646040517f08c379a000000000000000000000000000000000000000000000000000000000815260206004820152601260248201527f6661696c656420746f20776974686472617700000000000000000000000000006044820152fd5b91908110156125785760051b810135907fffffffffffffffffffffffffffffffffffffffffffffffffffffffffffffffa181360301821215610328570190565b9035907fffffffffffffffffffffffffffffffffffffffffffffffffffffffffffffffe181360301821215610328570180359067ffffffffffffffff821161032857602001918160051b3603831361032857565b3561086b816103f0565b1561270457565b60646040517f08c379a000000000000000000000000000000000000000000000000000000000815260206004820152601760248201527f4141393620696e76616c69642061676772656761746f720000000000000000006044820152fd5b9035907fffffffffffffffffffffffffffffffffffffffffffffffffffffffffffffffe181360301821215610328570180359067ffffffffffffffff82116103285760200191813603831361032857565b90357fffffffffffffffffffffffffffffffffffffffffffffffffffffffffffffffe18236030181121561032857016020813591019167ffffffffffffffff821161032857813603831361032857565b601f82602094937fffffffffffffffffffffffffffffffffffffffffffffffffffffffffffffffe0938186528686013760008582860101520116010190565b61086b9161290a6128bb6128a06101606128798561285f8861042a565b73ffffffffffffffffffffffffffffffffffffffff169052565b6020860135602086015261289060408701876127b3565b9091806040880152860191612803565b6128ad60608601866127b3565b908583036060870152612803565b6080840135608084015260a084013560a084015260c084013560c084015260e084013560e084015261010080850135908401526101206128fd818601866127b3565b9185840390860152612803565b9161291b61014091828101906127b3565b929091818503910152612803565b949391929083604087016040885252606086019360608160051b88010194826000906000915b84831061296e5750505050505084602061086b95968503910152612803565b9091929394977fffffffffffffffffffffffffffffffffffffffffffffffffffffffffffffffa08b820301855288357ffffffffffffffffffffffffffffffffffffffffffffffffffffffffffffffea1843603018112156129e957600191846129d79201612842565b9860209081019695019301919061294f565b8280fd5b6040513d6000823e3d90fd5b15612a0057565b60646040517f08c379a000000000000000000000000000000000000000000000000000000000815260206004820152601960248201527f49582d45503130205369676e61747572652065787069726564000000000000006044820152fd5b15612a6557565b60646040517f08c379a000000000000000000000000000000000000000000000000000000000815260206004820152601960248201527f49582d4550313120496e76616c6964207369676e6174757265000000000000006044820152fd5b15612aca57565b60646040517f08c379a000000000000000000000000000000000000000000000000000000000815260206004820152601d60248201527f49582d455031322043616c6c20646174612069732072657175697265640000006044820152fd5b908092918237016000815290565b909261086b949360c093600084526000602085015265ffffffffffff8092166040850152166060830152151560808201528160a08201520190612272565b906014116103285790601490565b7fffffffffffffffffffffffffffffffffffffffff0000000000000000000000009035818116939260148110612bb757505050565b60140360031b82901b16169150565b90816020910312610328575161086b816103f0565b91602061086b938181520191612803565b612c02612bfc6040830183612762565b90615e14565b90612c13612bfc6060830183612762565b90612cc9612c28612bfc610120840184612762565b60405194859360208501956101008201359260e08301359260c08101359260a08201359260808301359273ffffffffffffffffffffffffffffffffffffffff60208201359135168c9693909a9998959261012098959273ffffffffffffffffffffffffffffffffffffffff6101408a019d168952602089015260408801526060870152608086015260a085015260c084015260e08301526101008201520152565b0391612cfb7fffffffffffffffffffffffffffffffffffffffffffffffffffffffffffffffe09384810183528261056f565b51902060408051602081019283523091810191909152466060820152608092830181529091612d2a908261056f565b51902090565b73ffffffffffffffffffffffffffffffffffffffff90612d5034826149b5565b168060005260006020527f2da466a7b24304f47e87fa2e1e5a81b9831ce54fec19055ce277ca2f39ba42c460206dffffffffffffffffffffffffffff60406000205416604051908152a2565b15612da357565b60646040517f08c379a000000000000000000000000000000000000000000000000000000000815260206004820152601160248201527f616c726561647920756e7374616b696e670000000000000000000000000000006044820152fd5b91909165ffffffffffff80809416911601918211611f8a57565b15612e2257565b60646040517f08c379a000000000000000000000000000000000000000000000000000000000815260206004820152601460248201527f4e6f207374616b6520746f2077697468647261770000000000000000000000006044820152fd5b15612e8757565b60646040517f08c379a000000000000000000000000000000000000000000000000000000000815260206004820152601d60248201527f6d7573742063616c6c20756e6c6f636b5374616b6528292066697273740000006044820152fd5b15612eec57565b60646040517f08c379a000000000000000000000000000000000000000000000000000000000815260206004820152601b60248201527f5374616b65207769746864726177616c206973206e6f742064756500000000006044820152fd5b15612f5157565b60646040517f08c379a000000000000000000000000000000000000000000000000000000000815260206004820152601860248201527f6661696c656420746f207769746864726177207374616b6500000000000000006044820152fd5b92909361086b96959260c0958552602085015265ffffffffffff8092166040850152166060830152151560808201528160a08201520190612272565b604051906040820182811067ffffffffffffffff82111761051d5760405260006020838281520152565b9060c060a061086b938051845260208101516020850152604081015115156040850152606081015165ffffffffffff809116606086015260808201511660808501520151918160a08201520190612272565b92946130c861041b956130b66101009599986130a4613090602097610140808c528b0190613015565b9b878a019060208091805184520151910152565b80516060890152602001516080880152565b805160a08701526020015160c0860152565b73ffffffffffffffffffffffffffffffffffffffff81511660e0850152015191019060208091805184520151910152565b61314261041b9461313061311b60a0959998969960e0865260e0860190613015565b98602085019060208091805184520151910152565b80516060840152602001516080830152565b019060208091805184520151910152565b61041b33612d30565b9060009283809360208451940192f190565b3d610800808211613195575b50604051906020818301016040528082526000602083013e90565b90503861317a565b600311156131a757565b7f4e487b7100000000000000000000000000000000000000000000000000000000600052602160045260246000fd5b9291906131f460409160028652606060208701526060860190612272565b930152565b9392919060038110156131a7576040916131f4918652606060208701526060860190612272565b60009060033d1161322d57565b905060046000803e60005160e01c90565b600060443d1061086b576040517ffffffffffffffffffffffffffffffffffffffffffffffffffffffffffffffffc91823d016004833e815167ffffffffffffffff918282113d6024840111176132ba578184019485519384116132c2573d850101602084870101116132ba575061086b9291016020019061056f565b949350505050565b50949350505050565b9061041b603660405180947f4141353020706f73744f702072657665727465643a2000000000000000000000602083015261330f815180926020868601910161224f565b810103601681018552018361056f565b909392915a9480519161333183614aed565b9260a0810195613355875173ffffffffffffffffffffffffffffffffffffffff1690565b73ffffffffffffffffffffffffffffffffffffffff9381851691826134ca57505050613395825173ffffffffffffffffffffffffffffffffffffffff1690565b985b5a9003019384029760408401908982511061345d577f49628fd1471006c1482da88028e9ce4dbb080b815c9b0344d39e5a8e6ec1419f946133e16020928c613458955103906149b5565b6133ea8861319d565b01519489602061342c613411865173ffffffffffffffffffffffffffffffffffffffff1690565b9a5173ffffffffffffffffffffffffffffffffffffffff1690565b940151604080519182529815602082015297880152606087015290821695909116939081906080820190565b0390a4565b6040517f220266b600000000000000000000000000000000000000000000000000000000815280610ebc600482016080906000815260406020820152602060408201527f414135312070726566756e642062656c6f772061637475616c476173436f737460608201520190565b9a9181516134da575b5050613397565b8784026134e68a61319d565b60028a14613563576060860151823b156103285761353993600080948d604051978896879586937fa9a23409000000000000000000000000000000000000000000000000000000008552600485016131f9565b0393f180156116dd57613550575b505b38806134d3565b80610ee261355d9261053f565b38613547565b6060860151823b15610328576135ae93600080948d604051978896879586937fa9a23409000000000000000000000000000000000000000000000000000000008552600485016131f9565b0393f19081613693575b5061368e576135c5613220565b6308c379a01461363d575b6040517f220266b600000000000000000000000000000000000000000000000000000000815280610ebc600482016080906000815260406020820152601260408201527f4141353020706f73744f7020726576657274000000000000000000000000000060608201520190565b61364561323e565b8061365057506135d0565b61365c610ebc916132cb565b6040519182917f220266b6000000000000000000000000000000000000000000000000000000008352600483016122b5565b613549565b80610ee26136a09261053f565b386135b8565b929190925a936000918051916136bb83614aed565b9260a08101956136df875173ffffffffffffffffffffffffffffffffffffffff1690565b73ffffffffffffffffffffffffffffffffffffffff939084811690816137c157505050613720825173ffffffffffffffffffffffffffffffffffffffff1690565b985b5a9003019384029760408401908982511061345d577f49628fd1471006c1482da88028e9ce4dbb080b815c9b0344d39e5a8e6ec1419f9461376c6020928c613458955103906149b5565b015194896020613793613411865173ffffffffffffffffffffffffffffffffffffffff1690565b9401519785604051968796169a16988590949392606092608083019683521515602083015260408201520152565b9a9180516137d1575b5050613722565b6060850151600099509091803b15613855579189918983613824956040518097819682957fa9a234090000000000000000000000000000000000000000000000000000000084528c0290600484016131d6565b0393f19081613842575b5061383b576135c5613220565b38806137ca565b80610ee261384f9261053f565b3861382e565b8980fd5b9392915a9060009280519061386d82614aed565b9360a0830196613891885173ffffffffffffffffffffffffffffffffffffffff1690565b73ffffffffffffffffffffffffffffffffffffffff95908681169081613987575050506138d2845173ffffffffffffffffffffffffffffffffffffffff1690565b915b5a9003019485029860408301908a82511061392157507f49628fd1471006c1482da88028e9ce4dbb080b815c9b0344d39e5a8e6ec1419f94939261376c613458938c6020945103906149b5565b604080517f220266b600000000000000000000000000000000000000000000000000000000815260048101929092526024820152602060448201527f414135312070726566756e642062656c6f772061637475616c476173436f73746064820152608490fd5b93918051613997575b50506138d4565b606087015160009a509091803b15613adf57918a918a836139ea956040518097819682957fa9a234090000000000000000000000000000000000000000000000000000000084528c0290600484016131d6565b0393f19081613acc575b50613ac5578a613a02613220565b6308c379a014613a73575b604080517f220266b600000000000000000000000000000000000000000000000000000000815260048101929092526024820152601260448201527f4141353020706f73744f702072657665727400000000000000000000000000006064820152608490fd5b613a7b61323e565b80613a865750613a0d565b613a8f906132cb565b90610ebc6040519283927f220266b6000000000000000000000000000000000000000000000000000000008452600484016122cd565b3880613990565b80610ee2613ad99261053f565b386139f4565b8a80fd5b6002805414613af25760028055565b60646040517f08c379a000000000000000000000000000000000000000000000000000000000815260206004820152601f60248201527f5265656e7472616e637947756172643a207265656e7472616e742063616c6c006044820152fd5b15613b5757565b60646040517f08c379a000000000000000000000000000000000000000000000000000000000815260206004820152601860248201527f41413934206761732076616c756573206f766572666c6f7700000000000000006044820152fd5b916000915a93815190613bc882826146e2565b613bd181612bec565b6020840152613c0f6effffffffffffffffffffffffffffff60808401516060850151176040850151176101008401359060e085013517171115613b50565b613c1882614b15565b613c23818584614bd6565b9790613c5461236d613c49875173ffffffffffffffffffffffffffffffffffffffff1690565b602088015190615119565b613d5057613c6143600052565b73ffffffffffffffffffffffffffffffffffffffff613c9960a0606097015173ffffffffffffffffffffffffffffffffffffffff1690565b16613d36575b505a810360a084013510613cc95760809360c092604087015260608601525a900391013501910152565b6040517f220266b600000000000000000000000000000000000000000000000000000000815280610ebc600482016080906000815260406020820152601e60408201527f41413430206f76657220766572696669636174696f6e4761734c696d6974000060608201520190565b90935081613d47929750858461529d565b95909238613c9f565b6040517f220266b600000000000000000000000000000000000000000000000000000000815280610ebc600482016080906000815260406020820152601a60408201527f4141323520696e76616c6964206163636f756e74206e6f6e636500000000000060608201520190565b9290916000925a8251613dd081846146e2565b613dd983612bec565b6020850152613e176effffffffffffffffffffffffffffff60808301516060840151176040840151176101008601359060e087013517171115613b50565b613e2081614b15565b613e2c8186868b614f02565b9890613e5d61236d613e52865173ffffffffffffffffffffffffffffffffffffffff1690565b602087015190615119565b613f5557613e6a43600052565b73ffffffffffffffffffffffffffffffffffffffff613ea260a0606096015173ffffffffffffffffffffffffffffffffffffffff1690565b16613f3a575b505a840360a086013510613ed45750604085015260608401526080919060c0905a900391013501910152565b604080517f220266b600000000000000000000000000000000000000000000000000000000815260048101929092526024820152601e60448201527f41413430206f76657220766572696669636174696f6e4761734c696d697400006064820152608490fd5b90925081613f4c92985086868561551c565b96909138613ea8565b610ebc826040519182917f220266b600000000000000000000000000000000000000000000000000000000835260048301608091815260406020820152601a60408201527f4141323520696e76616c6964206163636f756e74206e6f6e636500000000000060608201520190565b9190613fce9061573a565b73ffffffffffffffffffffffffffffffffffffffff9291831661416d576140ff57613ff89061573a565b9116614091576140055750565b604080517f220266b600000000000000000000000000000000000000000000000000000000815260048101929092526024820152602160448201527f41413332207061796d61737465722065787069726564206f72206e6f7420647560648201527f6500000000000000000000000000000000000000000000000000000000000000608482015260a490fd5b610ebc826040519182917f220266b600000000000000000000000000000000000000000000000000000000835260048301608091815260406020820152601460408201527f41413334207369676e6174757265206572726f7200000000000000000000000060608201520190565b610ebc836040519182917f220266b600000000000000000000000000000000000000000000000000000000835260048301608091815260406020820152601760408201527f414132322065787069726564206f72206e6f742064756500000000000000000060608201520190565b610ebc846040519182917f220266b600000000000000000000000000000000000000000000000000000000835260048301608091815260406020820152601460408201527f41413234207369676e6174757265206572726f7200000000000000000000000060608201520190565b9291906141e79061573a565b909273ffffffffffffffffffffffffffffffffffffffff8080951691160361416d576140ff57613ff89061573a565b90816020910312610328575190565b9061423f60809161086b96946101c0808652850191612803565b9360e0815173ffffffffffffffffffffffffffffffffffffffff80825116602087015260208201516040870152604082015160608701526060820151858701528482015160a087015260a08201511660c086015260c081015182860152015161010084015260208101516101208401526040810151610140840152606081015161016084015201516101808201526101a0818403910152612272565b905a918160206142f46060830151936060810190612762565b9061432d8560405195869485947f1d73275600000000000000000000000000000000000000000000000000000000865260048601614225565b03816000305af160009181614408575b50614401575060206000803e7fdeaddead00000000000000000000000000000000000000000000000000000000600051146143945761438e61438361086b945a906125bd565b608084015190611f7d565b916136a6565b6040517f220266b600000000000000000000000000000000000000000000000000000000815280610ebc600482016080906000815260406020820152600f60408201527f41413935206f7574206f6620676173000000000000000000000000000000000060608201520190565b9250505090565b61442b91925060203d602011614432575b614423818361056f565b810190614216565b903861433d565b503d614419565b909291925a938060206144556060830151946060810190612762565b9061448e8660405195869485947f1d73275600000000000000000000000000000000000000000000000000000000865260048601614225565b03816000305af16000918161456b575b50614564575060206000803e7fdeaddead00000000000000000000000000000000000000000000000000000000600051146144f6576144f06144e561086b95965a906125bd565b608083015190611f7d565b92613859565b610ebc836040519182917f220266b600000000000000000000000000000000000000000000000000000000835260048301608091815260406020820152600f60408201527f41413935206f7574206f6620676173000000000000000000000000000000000060608201520190565b9450505050565b61458591925060203d60201161443257614423818361056f565b903861449e565b73ffffffffffffffffffffffffffffffffffffffff16801561461f57600080809381935af16145b96125ca565b50156145c157565b60646040517f08c379a000000000000000000000000000000000000000000000000000000000815260206004820152601f60248201527f41413931206661696c65642073656e6420746f2062656e6566696369617279006044820152fd5b60646040517f08c379a000000000000000000000000000000000000000000000000000000000815260206004820152601860248201527f4141393020696e76616c69642062656e656669636961727900000000000000006044820152fd5b1561468457565b60646040517f08c379a000000000000000000000000000000000000000000000000000000000815260206004820152601d60248201527f4141393320696e76616c6964207061796d6173746572416e64446174610000006044820152fd5b6147549061470c6146f2826126f3565b73ffffffffffffffffffffffffffffffffffffffff168452565b602081013560208401526080810135604084015260a0810135606084015260c0810135608084015260e081013560c084015261010081013560e0840152610120810190612762565b9081156147995761477e6114b76114b18460a094614779601461041b9998101561467d565b612b74565b73ffffffffffffffffffffffffffffffffffffffff16910152565b505060a06000910152565b906147d373ffffffffffffffffffffffffffffffffffffffff9161086b97959694606085526060850191612803565b941660208201526040818503910152612803565b6147f46040820182612762565b61480c614800846126f3565b93610120810190612762565b9290303b15610328576000936148509160405196879586957f957122ab000000000000000000000000000000000000000000000000000000008752600487016147a4565b0381305afa90816148d1575b5061041b57600161486b613220565b6308c379a01461487c575b6116dd57565b61488461323e565b80614890575b50614876565b8051600092501561488a57610ebc906040519182917f220266b6000000000000000000000000000000000000000000000000000000008352600483016122b5565b80610ee26148de9261053f565b3861485c565b604051906148f182610553565b60006040838281528260208201520152565b61491861491e916149126148e4565b50615796565b91615796565b9073ffffffffffffffffffffffffffffffffffffffff91828251169283156149aa575b65ffffffffffff9283918260408160208501511693015116938360408160208401511692015116908084106149a2575b5080851161499a575b506040519561498887610553565b16855216602084015216604082015290565b93503861497a565b925038614971565b815181169350614941565b73ffffffffffffffffffffffffffffffffffffffff16600052600060205260406000206dffffffffffffffffffffffffffff80825416928301809311611f8a57808311614a3a5761041b92166dffffffffffffffffffffffffffff167fffffffffffffffffffffffffffffffffffff0000000000000000000000000000825416179055565b60646040517f08c379a000000000000000000000000000000000000000000000000000000000815260206004820152601060248201527f6465706f736974206f766572666c6f77000000000000000000000000000000006044820152fd5b9073ffffffffffffffffffffffffffffffffffffffff614ab6612feb565b9216600052600060205263ffffffff600160406000206dffffffffffffffffffffffffffff815460781c1685520154166020830152565b60e060c0820151910151808214614b1157480180821015614b0c575090565b905090565b5090565b60a081015173ffffffffffffffffffffffffffffffffffffffff1615614b575760c060035b60ff60408401519116606084015102016080830151019101510290565b60c06001614b3a565b614b7860409295949395606083526060830190612842565b9460208201520152565b9061041b602f60405180947f414132332072657665727465643a2000000000000000000000000000000000006020830152614bc6815180926020868601910161224f565b810103600f81018552018361056f565b90915a91614ca36020855195614c00875173ffffffffffffffffffffffffffffffffffffffff1690565b93614c18614c116040830183612762565b90846157f1565b60a088015173ffffffffffffffffffffffffffffffffffffffff1690614c3d43600052565b60009273ffffffffffffffffffffffffffffffffffffffff80931615998a614e94575b90856060600093015191015192604051978896879586937f3a871cdd00000000000000000000000000000000000000000000000000000000855260048501614b60565b0393881690f160009181614e73575b50614d5657614cbf613220565b6308c379a014614d37575b6040517f220266b600000000000000000000000000000000000000000000000000000000815280610ebc600482016080906000815260406020820152601660408201527f4141323320726576657274656420286f72204f4f47290000000000000000000060608201520190565b614d3f61323e565b80614d4a5750614cca565b61365c610ebc91614b82565b93614d64575b50505a900391565b614d8e9073ffffffffffffffffffffffffffffffffffffffff166000526000602052604060002090565b614da96109de82546dffffffffffffffffffffffffffff1690565b808311614e0657614dff926dffffffffffffffffffffffffffff9103166dffffffffffffffffffffffffffff167fffffffffffffffffffffffffffffffffffff0000000000000000000000000000825416179055565b3880614d5c565b6040517f220266b600000000000000000000000000000000000000000000000000000000815280610ebc600482016080906000815260406020820152601760408201527f41413231206469646e2774207061792070726566756e6400000000000000000060608201520190565b614e8d91925060203d60201161443257614423818361056f565b9038614cb2565b9350600090614edd6109de614ec98a73ffffffffffffffffffffffffffffffffffffffff166000526000602052604060002090565b546dffffffffffffffffffffffffffff1690565b8981118314614ef75750856060835b969293505050614c60565b606087918b03614eec565b93925a91614f456020855195614f2c875173ffffffffffffffffffffffffffffffffffffffff1690565b93614c18614f3d6040830183612762565b90848d615b03565b0393881690f1600091816150f8575b50614fef5786614f62613220565b6308c379a014614fd3575b604080517f220266b600000000000000000000000000000000000000000000000000000000815260048101929092526024820152601660448201527f4141323320726576657274656420286f72204f4f4729000000000000000000006064820152608490fd5b614fdb61323e565b80614fe65750614f6d565b613a8f90614b82565b94959293615001575b5050505a900391565b61502b9073ffffffffffffffffffffffffffffffffffffffff166000526000602052604060002090565b916150476109de84546dffffffffffffffffffffffffffff1690565b90818311615092575082547fffffffffffffffffffffffffffffffffffff0000000000000000000000000000169190036dffffffffffffffffffffffffffff16179055388080614ff8565b604080517f220266b600000000000000000000000000000000000000000000000000000000815260048101929092526024820152601760448201527f41413231206469646e2774207061792070726566756e640000000000000000006064820152608490fd5b61511291925060203d60201161443257614423818361056f565b9038614f54565b73ffffffffffffffffffffffffffffffffffffffff16600052600160205267ffffffffffffffff6151758260401c60406000209077ffffffffffffffffffffffffffffffffffffffffffffffff16600052602052604060002090565b91825492615182846121bd565b9055161490565b1561519057565b60646040517f08c379a000000000000000000000000000000000000000000000000000000000815260206004820152601f60248201527f4141343120746f6f206c6974746c6520766572696669636174696f6e476173006044820152fd5b919060408382031261032857825167ffffffffffffffff81116103285783019080601f8301121561032857815191615225836105fd565b91615233604051938461056f565b83835260208483010111610328576020926152539184808501910161224f565b92015190565b9061041b602f60405180947f414133332072657665727465643a2000000000000000000000000000000000006020830152614bc6815180926020868601910161224f565b91909392938051926152d660a06060860151956152bb898811615189565b015173ffffffffffffffffffffffffffffffffffffffff1690565b916153018373ffffffffffffffffffffffffffffffffffffffff166000526000602052604060002090565b9461531d6109de87546dffffffffffffffffffffffffffff1690565b978589106154af5773ffffffffffffffffffffffffffffffffffffffff6020600098946153948a966dffffffffffffffffffffffffffff8b6153cd9f03166dffffffffffffffffffffffffffff167fffffffffffffffffffffffffffffffffffff0000000000000000000000000000825416179055565b0151946040519a8b98899788937ff465c77e00000000000000000000000000000000000000000000000000000000855260048501614b60565b0395169103f19182600091600094615488575b50615484576153ed613220565b6308c379a014615465575b6040517f220266b600000000000000000000000000000000000000000000000000000000815280610ebc600482016080906000815260406020820152601660408201527f4141333320726576657274656420286f72204f4f47290000000000000000000060608201520190565b61546d61323e565b8061547857506153f8565b61365c610ebc91615259565b9190565b9093506154a891503d806000833e6154a0818361056f565b8101906151ee565b92386153e0565b6040517f220266b600000000000000000000000000000000000000000000000000000000815280610ebc600482016080906000815260406020820152601e60408201527f41413331207061796d6173746572206465706f73697420746f6f206c6f77000060608201520190565b939094929194855161553a60a06060830151926152bb868511615189565b926155658473ffffffffffffffffffffffffffffffffffffffff166000526000602052604060002090565b6155806109de82546dffffffffffffffffffffffffffff1690565b8681106156cc579173ffffffffffffffffffffffffffffffffffffffff60206155fb9a9b6153948a999897956dffffffffffffffffffffffffffff60009c8d9903166dffffffffffffffffffffffffffff167fffffffffffffffffffffffffffffffffffff0000000000000000000000000000825416179055565b0395169103f191826000916000946156ad575b506156a9578361561c613220565b6308c379a01461568d575b604080517f220266b600000000000000000000000000000000000000000000000000000000815260048101929092526024820152601660448201527f4141333320726576657274656420286f72204f4f4729000000000000000000006064820152608490fd5b61569561323e565b806156a05750615627565b613a8f90615259565b9250565b9093506156c591503d806000833e6154a0818361056f565b923861560e565b610ebc896040519182917f220266b600000000000000000000000000000000000000000000000000000000835260048301608091815260406020820152601e60408201527f41413331207061796d6173746572206465706f73697420746f6f206c6f77000060608201520190565b801561578d5761574990615796565b73ffffffffffffffffffffffffffffffffffffffff65ffffffffffff80604084015116421190811561577d575b5091511691565b9050602083015116421038615776565b50600090600090565b61579e6148e4565b5065ffffffffffff808260a01c1680156157ea575b604051926157c084610553565b73ffffffffffffffffffffffffffffffffffffffff8116845260d01c602084015216604082015290565b50806157b3565b9091806157fd57505050565b81515173ffffffffffffffffffffffffffffffffffffffff1692833b615a965773ffffffffffffffffffffffffffffffffffffffff60608451015190602060405180937f570e1a36000000000000000000000000000000000000000000000000000000008252816000816158758a8a60048401612bdb565b0392867f00000000000000000000000000000000000000000000000000000000000000001690f19182156116dd57600092615a75575b50808216958615615a08571680950361599b573b1561592e576114b76114b17fd51a9c61267aa6196961883ecf5ff2da6619c37dac0fa92122513fb32c032d2d936158f593612b74565b602083810151935160a001516040805173ffffffffffffffffffffffffffffffffffffffff9485168152939091169183019190915290a3565b6040517f220266b600000000000000000000000000000000000000000000000000000000815280610ebc600482016080906000815260406020820152602060408201527f4141313520696e6974436f6465206d757374206372656174652073656e64657260608201520190565b6040517f220266b600000000000000000000000000000000000000000000000000000000815280610ebc600482016080906000815260406020820152602060408201527f4141313420696e6974436f6465206d7573742072657475726e2073656e64657260608201520190565b6040517f220266b600000000000000000000000000000000000000000000000000000000815280610ebc600482016080906000815260406020820152601b60408201527f4141313320696e6974436f6465206661696c6564206f72204f4f47000000000060608201520190565b615a8f91925060203d6020116116d6576116c7818361056f565b90386158ab565b6040517f220266b600000000000000000000000000000000000000000000000000000000815280610ebc600482016080906000815260406020820152601f60408201527f414131302073656e64657220616c726561647920636f6e73747275637465640060608201520190565b92909181615b12575b50505050565b82515173ffffffffffffffffffffffffffffffffffffffff1693843b615dae5773ffffffffffffffffffffffffffffffffffffffff60608551015190602060405180937f570e1a3600000000000000000000000000000000000000000000000000000000825281600081615b8a8b8b60048401612bdb565b0392867f00000000000000000000000000000000000000000000000000000000000000001690f19182156116dd57600092615d8d575b50808216968715615d1f5716809603615cb1573b15615c4b57506114b76114b17fd51a9c61267aa6196961883ecf5ff2da6619c37dac0fa92122513fb32c032d2d93615c0b93612b74565b602083810151935160a001516040805173ffffffffffffffffffffffffffffffffffffffff9485168152939091169183019190915290a338808080615b0c565b604080517f220266b600000000000000000000000000000000000000000000000000000000815260048101929092526024820152602060448201527f4141313520696e6974436f6465206d757374206372656174652073656e6465726064820152608490fd5b610ebc826040519182917f220266b600000000000000000000000000000000000000000000000000000000835260048301608091815260406020820152602060408201527f4141313420696e6974436f6465206d7573742072657475726e2073656e64657260608201520190565b610ebc846040519182917f220266b600000000000000000000000000000000000000000000000000000000835260048301608091815260406020820152601b60408201527f4141313320696e6974436f6465206661696c6564206f72204f4f47000000000060608201520190565b615da791925060203d6020116116d6576116c7818361056f565b9038615bc0565b604080517f220266b600000000000000000000000000000000000000000000000000000000815260048101929092526024820152601f60448201527f414131302073656e64657220616c726561647920636f6e7374727563746564006064820152608490fd5b81604051918237209056fea2646970667358221220dcb1c1981a3c09a5614794b2694bab0e272ecbe5ce88c55ca9d3b89aebc230df64736f6c6343000817003360808060405234610016576101f8908161001c8239f35b600080fdfe6080604052600436101561001257600080fd5b6000803560e01c63570e1a361461002857600080fd5b346100c95760207ffffffffffffffffffffffffffffffffffffffffffffffffffffffffffffffffc3601126100c95760043567ffffffffffffffff918282116100c957366023830112156100c95781600401359283116100c95736602484840101116100c9576100c561009e84602485016100fb565b60405173ffffffffffffffffffffffffffffffffffffffff90911681529081906020820190565b0390f35b80fd5b7f4e487b7100000000000000000000000000000000000000000000000000000000600052604160045260246000fd5b90806014116101b85767ffffffffffffffff917fffffffffffffffffffffffffffffffffffffffffffffffffffffffffffffffec82018381116101bd5760405193600b84017fffffffffffffffffffffffffffffffffffffffffffffffffffffffffffffffe0908116603f01168501908111858210176101bd57604052808452602084019036848401116101b8576020946000600c819682946014880187378301015251923560601c5af19060005191156101b257565b60009150565b600080fd5b6100cc56fea26469706673582212205d087120ca3751a1028618ec3730092f7b07f16ef9d169e1b916cb636f7aa2eb64736f6c63430008170033"
}