{
  "address": "0x749ed6301f56AdD8F0b7A6C42Ee51314d332d093",
  "abi": [
    {
      "inputs": [
        {
          "internalType": "contract IEntryPoint",
          "name": "_entryPoint",
          "type": "address"
        },
        {
          "internalType": "address",
          "name": "_owner",
          "type": "address"
        }
      ],
      "stateMutability": "nonpayable",
      "type": "constructor"
    },
    {
      "anonymous": false,
      "inputs": [
        {
          "indexed": true,
          "internalType": "address",
          "name": "account",
          "type": "address"
        },
        {
          "indexed": true,
          "internalType": "contract IERC20",
          "name": "token",
          "type": "address"
        },
        {
          "indexed": false,
          "internalType": "uint256",
          "name": "debt",
          "type": "uint256"
        }
      ],
      "name": "AccountDebt",
      "type": "event"
    },
    {
      "anonymous": false,
      "inputs": [
        {
          "indexed": true,
          "internalType": "address",
          "name": "factory",
          "type": "address"
        }
      ],
      "name": "DistrustAccountFactory",
      "type": "event"
    },
    {
      "anonymous": false,
      "inputs": [
        {
          "indexed": true,
          "internalType": "contract IERC20",
          "name": "token",
          "type": "address"
        },
        {
          "components": [
            {
              "internalType": "uint256",
              "name": "flat",
              "type": "uint256"
            },
            {
              "internalType": "uint112",
              "name": "proportionalNumerator",
              "type": "uint112"
            },
            {
              "internalType": "uint112",
              "name": "proportionalDenominator",
              "type": "uint112"
            }
          ],
          "indexed": false,
          "internalType": "struct LuminexFeeCalculator.FeeConfig",
          "name": "config",
          "type": "tuple"
        }
      ],
      "name": "FeeConfigSet",
      "type": "event"
    },
    {
      "anonymous": false,
      "inputs": [
        {
          "indexed": true,
          "internalType": "contract IERC20",
          "name": "token",
          "type": "address"
        }
      ],
      "name": "FeeConfigUnset",
      "type": "event"
    },
    {
      "anonymous": false,
      "inputs": [
        {
          "indexed": true,
          "internalType": "address",
          "name": "previousOwner",
          "type": "address"
        },
        {
          "indexed": true,
          "internalType": "address",
          "name": "newOwner",
          "type": "address"
        }
      ],
      "name": "OwnershipTransferred",
      "type": "event"
    },
    {
      "anonymous": false,
      "inputs": [
        {
          "indexed": true,
          "internalType": "address",
          "name": "factory",
          "type": "address"
        }
      ],
      "name": "TrustAccountFactory",
      "type": "event"
    },
    {
      "inputs": [],
      "name": "COST_OF_POST",
      "outputs": [
        {
          "internalType": "uint256",
          "name": "",
          "type": "uint256"
        }
      ],
      "stateMutability": "view",
      "type": "function"
    },
    {
      "inputs": [
        {
          "internalType": "uint32",
          "name": "unstakeDelaySec",
          "type": "uint32"
        }
      ],
      "name": "addStake",
      "outputs": [],
      "stateMutability": "payable",
      "type": "function"
    },
    {
      "inputs": [
        {
          "internalType": "address",
          "name": "",
          "type": "address"
        },
        {
          "internalType": "contract IERC20",
          "name": "",
          "type": "address"
        }
      ],
      "name": "debt",
      "outputs": [
        {
          "internalType": "uint256",
          "name": "",
          "type": "uint256"
        }
      ],
      "stateMutability": "view",
      "type": "function"
    },
    {
      "inputs": [],
      "name": "deposit",
      "outputs": [],
      "stateMutability": "payable",
      "type": "function"
    },
    {
      "inputs": [],
      "name": "entryPoint",
      "outputs": [
        {
          "internalType": "contract IEntryPoint",
          "name": "",
          "type": "address"
        }
      ],
      "stateMutability": "view",
      "type": "function"
    },
    {
      "inputs": [
        {
          "internalType": "contract IERC20",
          "name": "",
          "type": "address"
        }
      ],
      "name": "feeConfigs",
      "outputs": [
        {
          "internalType": "uint256",
          "name": "flat",
          "type": "uint256"
        },
        {
          "internalType": "uint112",
          "name": "proportionalNumerator",
          "type": "uint112"
        },
        {
          "internalType": "uint112",
          "name": "proportionalDenominator",
          "type": "uint112"
        }
      ],
      "stateMutability": "view",
      "type": "function"
    },
    {
      "inputs": [],
      "name": "getDeposit",
      "outputs": [
        {
          "internalType": "uint256",
          "name": "",
          "type": "uint256"
        }
      ],
      "stateMutability": "view",
      "type": "function"
    },
    {
      "inputs": [
        {
          "internalType": "contract IERC20",
          "name": "token",
          "type": "address"
        },
        {
          "internalType": "uint256",
          "name": "amount",
          "type": "uint256"
        }
      ],
      "name": "getTokenValueOfGas",
      "outputs": [
        {
          "internalType": "uint256",
          "name": "value",
          "type": "uint256"
        }
      ],
      "stateMutability": "view",
      "type": "function"
    },
    {
      "inputs": [],
      "name": "owner",
      "outputs": [
        {
          "internalType": "address",
          "name": "",
          "type": "address"
        }
      ],
      "stateMutability": "view",
      "type": "function"
    },
    {
      "inputs": [
        {
          "internalType": "enum IPaymaster.PostOpMode",
          "name": "mode",
          "type": "uint8"
        },
        {
          "internalType": "bytes",
          "name": "context",
          "type": "bytes"
        },
        {
          "internalType": "uint256",
          "name": "actualGasCost",
          "type": "uint256"
        }
      ],
      "name": "postOp",
      "outputs": [],
      "stateMutability": "nonpayable",
      "type": "function"
    },
    {
      "inputs": [],
      "name": "renounceOwnership",
      "outputs": [],
      "stateMutability": "nonpayable",
      "type": "function"
    },
    {
      "inputs": [
        {
          "internalType": "contract IERC20",
          "name": "token",
          "type": "address"
        },
        {
          "components": [
            {
              "internalType": "uint256",
              "name": "flat",
              "type": "uint256"
            },
            {
              "internalType": "uint112",
              "name": "proportionalNumerator",
              "type": "uint112"
            },
            {
              "internalType": "uint112",
              "name": "proportionalDenominator",
              "type": "uint112"
            }
          ],
          "internalType": "struct LuminexFeeCalculator.FeeConfig",
          "name": "config",
          "type": "tuple"
        }
      ],
      "name": "setFee",
      "outputs": [],
      "stateMutability": "nonpayable",
      "type": "function"
    },
    {
      "inputs": [
        {
          "internalType": "contract IERC20",
          "name": "token",
          "type": "address"
        },
        {
          "internalType": "address payable",
          "name": "to",
          "type": "address"
        }
      ],
      "name": "skim",
      "outputs": [],
      "stateMutability": "nonpayable",
      "type": "function"
    },
    {
      "inputs": [
        {
          "internalType": "address payable",
          "name": "to",
          "type": "address"
        }
      ],
      "name": "skim",
      "outputs": [],
      "stateMutability": "nonpayable",
      "type": "function"
    },
    {
      "inputs": [
        {
          "internalType": "address",
          "name": "newOwner",
          "type": "address"
        }
      ],
      "name": "transferOwnership",
      "outputs": [],
      "stateMutability": "nonpayable",
      "type": "function"
    },
    {
      "inputs": [],
      "name": "unlockStake",
      "outputs": [],
      "stateMutability": "nonpayable",
      "type": "function"
    },
    {
      "inputs": [
        {
          "internalType": "contract IERC20",
          "name": "token",
          "type": "address"
        }
      ],
      "name": "unsetFee",
      "outputs": [],
      "stateMutability": "nonpayable",
      "type": "function"
    },
    {
      "inputs": [
        {
          "components": [
            {
              "internalType": "address",
              "name": "sender",
              "type": "address"
            },
            {
              "internalType": "uint256",
              "name": "nonce",
              "type": "uint256"
            },
            {
              "internalType": "bytes",
              "name": "initCode",
              "type": "bytes"
            },
            {
              "internalType": "bytes",
              "name": "callData",
              "type": "bytes"
            },
            {
              "internalType": "uint256",
              "name": "callGasLimit",
              "type": "uint256"
            },
            {
              "internalType": "uint256",
              "name": "verificationGasLimit",
              "type": "uint256"
            },
            {
              "internalType": "uint256",
              "name": "preVerificationGas",
              "type": "uint256"
            },
            {
              "internalType": "uint256",
              "name": "maxFeePerGas",
              "type": "uint256"
            },
            {
              "internalType": "uint256",
              "name": "maxPriorityFeePerGas",
              "type": "uint256"
            },
            {
              "internalType": "bytes",
              "name": "paymasterAndData",
              "type": "bytes"
            },
            {
              "internalType": "bytes",
              "name": "signature",
              "type": "bytes"
            }
          ],
          "internalType": "struct UserOperation",
          "name": "userOp",
          "type": "tuple"
        },
        {
          "internalType": "bytes32",
          "name": "userOpHash",
          "type": "bytes32"
        },
        {
          "internalType": "uint256",
          "name": "maxCost",
          "type": "uint256"
        }
      ],
      "name": "validatePaymasterUserOp",
      "outputs": [
        {
          "internalType": "bytes",
          "name": "context",
          "type": "bytes"
        },
        {
          "internalType": "uint256",
          "name": "validationData",
          "type": "uint256"
        }
      ],
      "stateMutability": "nonpayable",
      "type": "function"
    },
    {
      "inputs": [
        {
          "internalType": "address payable",
          "name": "withdrawAddress",
          "type": "address"
        }
      ],
      "name": "withdrawStake",
      "outputs": [],
      "stateMutability": "nonpayable",
      "type": "function"
    },
    {
      "inputs": [
        {
          "internalType": "address payable",
          "name": "withdrawAddress",
          "type": "address"
        },
        {
          "internalType": "uint256",
          "name": "amount",
          "type": "uint256"
        }
      ],
      "name": "withdrawTo",
      "outputs": [],
      "stateMutability": "nonpayable",
      "type": "function"
    }
  ],
  "transactionHash": "0x3157bbcc543f25ce7e61a4fdaba668c44442e92392bd4d44c52c09213ed7362a",
  "args": [
    "0x30B35DdFB426a49e0Ee7C520b1C04eD617f1c0d3",
    "0x9D3FEF5d6909Db1d3473849D33D052574f78FdCf"
  ],
  "numDeployments": 10,
  "solcInputHash": "ed26a0d822dd26abf5e4d9c9c658a631",
  "bytecode": "0x60a06040523480156200001157600080fd5b5060405162001d5138038062001d518339810160408190526200003491620000c8565b8162000040336200005f565b6001600160a01b031660805262000057816200005f565b505062000107565b600080546001600160a01b038381166001600160a01b0319831681178455604051919092169283917f8be0079c531659141344cd1fd0a4f28419497f9722a3daafe3b4186f6b6457e09190a35050565b6001600160a01b0381168114620000c557600080fd5b50565b60008060408385031215620000dc57600080fd5b8251620000e981620000af565b6020840151909250620000fc81620000af565b809150509250929050565b608051611bfd620001546000396000818161035b015281816104b10152818161057b0152818161097f01528181610a9001528181610b2001528181610bd30152610ea70152611bfd6000f3fe60806040526004361061015f5760003560e01c8063a9a23409116100c0578063c399ec8811610074578063d449300d11610059578063d449300d146103ef578063f2fde38b14610427578063f465c77e1461044757600080fd5b8063c399ec88146103d2578063d0e30db0146103e757600080fd5b8063bb9fe6bf116100a5578063bb9fe6bf1461037d578063bc25cf7714610392578063c23a5cea146103b257600080fd5b8063a9a2340914610329578063b0d691fe1461034957600080fd5b8063715018a611610117578063796d4371116100fc578063796d4371146102a75780638da5cb5b146102bd57806397e2d5721461030957600080fd5b8063715018a6146102725780637765e5221461028757600080fd5b806322e22d451161014857806322e22d45146101995780633a546589146101cc578063712b772f1461025257600080fd5b80630396cb6014610164578063205c287814610179575b600080fd5b61017761017236600461167d565b610475565b005b34801561018557600080fd5b506101776101943660046116cc565b610527565b3480156101a557600080fd5b506101b96101b43660046116cc565b6105bf565b6040519081526020015b60405180910390f35b3480156101d857600080fd5b506102266101e73660046116f8565b600160208190526000918252604090912080549101546dffffffffffffffffffffffffffff808216916e01000000000000000000000000000090041683565b604080519384526dffffffffffffffffffffffffffff92831660208501529116908201526060016101c3565b34801561025e57600080fd5b5061017761026d366004611715565b6106ee565b34801561027e57600080fd5b506101776107ac565b34801561029357600080fd5b506101776102a23660046116f8565b6107c0565b3480156102b357600080fd5b506101b9613a9881565b3480156102c957600080fd5b5060005473ffffffffffffffffffffffffffffffffffffffff165b60405173ffffffffffffffffffffffffffffffffffffffff90911681526020016101c3565b34801561031557600080fd5b5061017761032436600461174e565b610844565b34801561033557600080fd5b506101776103443660046117ad565b61095b565b34801561035557600080fd5b506102e47f000000000000000000000000000000000000000000000000000000000000000081565b34801561038957600080fd5b50610177610975565b34801561039e57600080fd5b506101776103ad3660046116f8565b6109f9565b3480156103be57600080fd5b506101776103cd3660046116f8565b610a43565b3480156103de57600080fd5b506101b9610aef565b610177610ba5565b3480156103fb57600080fd5b506101b961040a366004611715565b600260209081526000928352604080842090915290825290205481565b34801561043357600080fd5b506101776104423660046116f8565b610c2d565b34801561045357600080fd5b5061046761046236600461183c565b610ce4565b6040516101c39291906118fe565b61047d610d07565b6040517f0396cb6000000000000000000000000000000000000000000000000000000000815263ffffffff821660048201527f000000000000000000000000000000000000000000000000000000000000000073ffffffffffffffffffffffffffffffffffffffff1690630396cb609034906024016000604051808303818588803b15801561050b57600080fd5b505af115801561051f573d6000803e3d6000fd5b505050505050565b61052f610d07565b6040517f205c287800000000000000000000000000000000000000000000000000000000815273ffffffffffffffffffffffffffffffffffffffff8381166004830152602482018390527f0000000000000000000000000000000000000000000000000000000000000000169063205c287890604401600060405180830381600087803b15801561050b57600080fd5b73ffffffffffffffffffffffffffffffffffffffff821660009081526001602081815260408084208151606081018352815481529301546dffffffffffffffffffffffffffff808216938501939093526e0100000000000000000000000000009004909116908201819052610695576040517f08c379a000000000000000000000000000000000000000000000000000000000815260206004820152601a60248201527f49582d46433120546f6b656e206e6f7420737570706f7274656400000000000060448201526064015b60405180910390fd5b600081604001516dffffffffffffffffffffffffffff1682602001516dffffffffffffffffffffffffffff16856106cc919061194f565b6106d6919061196c565b82519091506106e590826119a7565b95945050505050565b6106f6610d07565b6040517f70a082310000000000000000000000000000000000000000000000000000000081523060048201526107a890829073ffffffffffffffffffffffffffffffffffffffff8516906370a0823190602401602060405180830381865afa158015610766573d6000803e3d6000fd5b505050506040513d601f19601f8201168201806040525081019061078a91906119ba565b73ffffffffffffffffffffffffffffffffffffffff85169190610d88565b5050565b6107b4610d07565b6107be6000610e1a565b565b6107c8610d07565b73ffffffffffffffffffffffffffffffffffffffff8116600081815260016020819052604080832083815590910180547fffffffff00000000000000000000000000000000000000000000000000000000169055517fae78cf61e8a731bdc67715c95e8750aa98a6e3e381ad45d762166e87f5710c879190a250565b61084c610d07565b600061085e60608301604084016119ef565b6dffffffffffffffffffffffffffff16116108d5576040517f08c379a000000000000000000000000000000000000000000000000000000000815260206004820181905260248201527f44656e6f6d696e61746f722073686f756c64206174206c656173742062652031604482015260640161068c565b73ffffffffffffffffffffffffffffffffffffffff8216600090815260016020526040902081906109068282611a0c565b9050508173ffffffffffffffffffffffffffffffffffffffff167ffa05db4a472056e7dd1bc992ffb452cf8cb9dce16af8017a8814ca9b2c89e1958260405161094f9190611a94565b60405180910390a25050565b610963610e8f565b61096f84848484610f2e565b50505050565b61097d610d07565b7f000000000000000000000000000000000000000000000000000000000000000073ffffffffffffffffffffffffffffffffffffffff1663bb9fe6bf6040518163ffffffff1660e01b8152600401600060405180830381600087803b1580156109e557600080fd5b505af115801561096f573d6000803e3d6000fd5b610a01610d07565b60405173ffffffffffffffffffffffffffffffffffffffff8216904780156108fc02916000818181858888f193505050501580156107a8573d6000803e3d6000fd5b610a4b610d07565b6040517fc23a5cea00000000000000000000000000000000000000000000000000000000815273ffffffffffffffffffffffffffffffffffffffff82811660048301527f0000000000000000000000000000000000000000000000000000000000000000169063c23a5cea90602401600060405180830381600087803b158015610ad457600080fd5b505af1158015610ae8573d6000803e3d6000fd5b5050505050565b6040517f70a082310000000000000000000000000000000000000000000000000000000081523060048201526000907f000000000000000000000000000000000000000000000000000000000000000073ffffffffffffffffffffffffffffffffffffffff16906370a0823190602401602060405180830381865afa158015610b7c573d6000803e3d6000fd5b505050506040513d601f19601f82011682018060405250810190610ba091906119ba565b905090565b6040517fb760faf90000000000000000000000000000000000000000000000000000000081523060048201527f000000000000000000000000000000000000000000000000000000000000000073ffffffffffffffffffffffffffffffffffffffff169063b760faf99034906024016000604051808303818588803b158015610ad457600080fd5b610c35610d07565b73ffffffffffffffffffffffffffffffffffffffff8116610cd8576040517f08c379a000000000000000000000000000000000000000000000000000000000815260206004820152602660248201527f4f776e61626c653a206e6577206f776e657220697320746865207a65726f206160448201527f6464726573730000000000000000000000000000000000000000000000000000606482015260840161068c565b610ce181610e1a565b50565b60606000610cf0610e8f565b610cfb85858561107b565b91509150935093915050565b60005473ffffffffffffffffffffffffffffffffffffffff1633146107be576040517f08c379a000000000000000000000000000000000000000000000000000000000815260206004820181905260248201527f4f776e61626c653a2063616c6c6572206973206e6f7420746865206f776e6572604482015260640161068c565b6040805173ffffffffffffffffffffffffffffffffffffffff8416602482015260448082018490528251808303909101815260649091019091526020810180517bffffffffffffffffffffffffffffffffffffffffffffffffffffffff167fa9059cbb00000000000000000000000000000000000000000000000000000000179052610e159084906112f1565b505050565b6000805473ffffffffffffffffffffffffffffffffffffffff8381167fffffffffffffffffffffffff0000000000000000000000000000000000000000831681178455604051919092169283917f8be0079c531659141344cd1fd0a4f28419497f9722a3daafe3b4186f6b6457e09190a35050565b3373ffffffffffffffffffffffffffffffffffffffff7f000000000000000000000000000000000000000000000000000000000000000016146107be576040517f08c379a000000000000000000000000000000000000000000000000000000000815260206004820152601560248201527f53656e646572206e6f7420456e747279506f696e740000000000000000000000604482015260640161068c565b600080610f3d84860186611715565b73ffffffffffffffffffffffffffffffffffffffff808316600090815260026020908152604080832093851683529290529081205492945090925090610f89836101b4613a98886119a7565b610f9391906119a7565b6040517f23b872dd00000000000000000000000000000000000000000000000000000000815273ffffffffffffffffffffffffffffffffffffffff858116600483015230602483015260448201839052919250908316906323b872dd906064016020604051808303816000875af192505050801561104c575060408051601f3d9081017fffffffffffffffffffffffffffffffffffffffffffffffffffffffffffffffe016820190925261104991810190611ae0565b60015b6110605761105b838383611400565b611072565b8061107057611070848484611400565b505b50505050505050565b60606000808061108f610120880188611b02565b61109d916014908290611b6e565b8101906110aa91906116cc565b73ffffffffffffffffffffffffffffffffffffffff82166000908152600160208190526040909120015491935091506e01000000000000000000000000000090046dffffffffffffffffffffffffffff16611161576040517f08c379a000000000000000000000000000000000000000000000000000000000815260206004820152601560248201527f49582d5450313020746f6b656e20756e6b6e6f776e0000000000000000000000604482015260640161068c565b600060028161117360208b018b6116f8565b73ffffffffffffffffffffffffffffffffffffffff908116825260208083019390935260409182016000908120918716815292529020546111b484886105bf565b6111be91906119a7565b90508181111561122a576040517f08c379a000000000000000000000000000000000000000000000000000000000815260206004820152601560248201527f49582d545031312061626f7665206d6178207061790000000000000000000000604482015260640161068c565b613a988860a0013511611299576040517f08c379a000000000000000000000000000000000000000000000000000000000815260206004820152601d60248201527f49582d54503132206e6f7420656e6f75676820666f7220706f73744f70000000604482015260640161068c565b600093506112aa60208901896116f8565b6040805173ffffffffffffffffffffffffffffffffffffffff9283166020820152918516908201526060016040516020818303038152906040529450505050935093915050565b6000611353826040518060400160405280602081526020017f5361666545524332303a206c6f772d6c6576656c2063616c6c206661696c65648152508573ffffffffffffffffffffffffffffffffffffffff1661146e9092919063ffffffff16565b90508051600014806113745750808060200190518101906113749190611ae0565b610e15576040517f08c379a000000000000000000000000000000000000000000000000000000000815260206004820152602a60248201527f5361666545524332303a204552433230206f7065726174696f6e20646964206e60448201527f6f74207375636365656400000000000000000000000000000000000000000000606482015260840161068c565b73ffffffffffffffffffffffffffffffffffffffff83811660008181526002602090815260408083209487168084529482529182902085905590518481527fcaa220db0564bc842e2511b01888e58b9dffd44ad8011498e046c93dd9c18337910160405180910390a3505050565b606061147d8484600085611485565b949350505050565b606082471015611517576040517f08c379a000000000000000000000000000000000000000000000000000000000815260206004820152602660248201527f416464726573733a20696e73756666696369656e742062616c616e636520666f60448201527f722063616c6c0000000000000000000000000000000000000000000000000000606482015260840161068c565b6000808673ffffffffffffffffffffffffffffffffffffffff1685876040516115409190611b98565b60006040518083038185875af1925050503d806000811461157d576040519150601f19603f3d011682016040523d82523d6000602084013e611582565b606091505b50915091506115938783838761159e565b979650505050505050565b6060831561163457825160000361162d5773ffffffffffffffffffffffffffffffffffffffff85163b61162d576040517f08c379a000000000000000000000000000000000000000000000000000000000815260206004820152601d60248201527f416464726573733a2063616c6c20746f206e6f6e2d636f6e7472616374000000604482015260640161068c565b508161147d565b61147d83838151156116495781518083602001fd5b806040517f08c379a000000000000000000000000000000000000000000000000000000000815260040161068c9190611bb4565b60006020828403121561168f57600080fd5b813563ffffffff811681146116a357600080fd5b9392505050565b73ffffffffffffffffffffffffffffffffffffffff81168114610ce157600080fd5b600080604083850312156116df57600080fd5b82356116ea816116aa565b946020939093013593505050565b60006020828403121561170a57600080fd5b81356116a3816116aa565b6000806040838503121561172857600080fd5b8235611733816116aa565b91506020830135611743816116aa565b809150509250929050565b600080828403608081121561176257600080fd5b833561176d816116aa565b925060607fffffffffffffffffffffffffffffffffffffffffffffffffffffffffffffffe08201121561179f57600080fd5b506020830190509250929050565b600080600080606085870312156117c357600080fd5b8435600381106117d257600080fd5b9350602085013567ffffffffffffffff808211156117ef57600080fd5b818701915087601f83011261180357600080fd5b81358181111561181257600080fd5b88602082850101111561182457600080fd5b95986020929092019750949560400135945092505050565b60008060006060848603121561185157600080fd5b833567ffffffffffffffff81111561186857600080fd5b8401610160818703121561187b57600080fd5b95602085013595506040909401359392505050565b60005b838110156118ab578181015183820152602001611893565b50506000910152565b600081518084526118cc816020860160208601611890565b601f017fffffffffffffffffffffffffffffffffffffffffffffffffffffffffffffffe0169290920160200192915050565b60408152600061191160408301856118b4565b90508260208301529392505050565b7f4e487b7100000000000000000000000000000000000000000000000000000000600052601160045260246000fd5b808202811582820484141761196657611966611920565b92915050565b6000826119a2577f4e487b7100000000000000000000000000000000000000000000000000000000600052601260045260246000fd5b500490565b8082018082111561196657611966611920565b6000602082840312156119cc57600080fd5b5051919050565b6dffffffffffffffffffffffffffff81168114610ce157600080fd5b600060208284031215611a0157600080fd5b81356116a3816119d3565b81358155600181016020830135611a22816119d3565b81546040850135611a32816119d3565b7bffffffffffffffffffffffffffff00000000000000000000000000008160701b166dffffffffffffffffffffffffffff84167fffffffff00000000000000000000000000000000000000000000000000000000841617178455505050505050565b81358152606081016020830135611aaa816119d3565b6dffffffffffffffffffffffffffff9081166020840152604084013590611ad0826119d3565b8082166040850152505092915050565b600060208284031215611af257600080fd5b815180151581146116a357600080fd5b60008083357fffffffffffffffffffffffffffffffffffffffffffffffffffffffffffffffe1843603018112611b3757600080fd5b83018035915067ffffffffffffffff821115611b5257600080fd5b602001915036819003821315611b6757600080fd5b9250929050565b60008085851115611b7e57600080fd5b83861115611b8b57600080fd5b5050820193919092039150565b60008251611baa818460208701611890565b9190910192915050565b6020815260006116a360208301846118b456fea26469706673582212205060e829072dfcc3fb2836fbb589d37a7b67e8488df77482bc16e15bd8a89b8164736f6c63430008170033",
  "devdoc": {
    "kind": "dev",
    "methods": {
      "addStake(uint32)": {
        "params": {
          "unstakeDelaySec": "- the unstake delay for this paymaster. Can only be increased."
        }
      },
      "owner()": {
        "details": "Returns the address of the current owner."
      },
      "postOp(uint8,bytes,uint256)": {
        "params": {
          "actualGasCost": "- actual gas used so far (without this postOp call).",
          "context": "- the context value returned by validatePaymasterUserOp",
          "mode": "enum with the following options:      opSucceeded - user operation succeeded.      opReverted  - user op reverted. still has to pay for gas.      postOpReverted - user op succeeded, but caused postOp (in mode=opSucceeded) to revert.                       Now this is the 2nd call, after user's op was deliberately reverted."
        }
      },
      "renounceOwnership()": {
        "details": "Leaves the contract without owner. It will not be possible to call `onlyOwner` functions. Can only be called by the current owner. NOTE: Renouncing ownership will leave the contract without an owner, thereby disabling any functionality that is only available to the owner."
      },
      "transferOwnership(address)": {
        "details": "Transfers ownership of the contract to a new account (`newOwner`). Can only be called by the current owner."
      },
      "validatePaymasterUserOp((address,uint256,bytes,bytes,uint256,uint256,uint256,uint256,uint256,bytes,bytes),bytes32,uint256)": {
        "params": {
          "maxCost": "the maximum cost of this transaction (based on maximum gas and gas price from userOp)",
          "userOp": "the user operation",
          "userOpHash": "hash of the user's request data."
        },
        "returns": {
          "context": "value to send to a postOp      zero length to signify postOp is not required.",
          "validationData": "signature and time-range of this operation, encoded the same as the return value of validateUserOperation      <20-byte> sigAuthorizer - 0 for valid signature, 1 to mark signature failure,         otherwise, an address of an \"authorizer\" contract.      <6-byte> validUntil - last timestamp this operation is valid. 0 for \"indefinite\"      <6-byte> validAfter - first timestamp this operation is valid      Note that the validation code cannot use block.timestamp (or block.number) directly."
        }
      },
      "withdrawStake(address)": {
        "params": {
          "withdrawAddress": "the address to send withdrawn value."
        }
      },
      "withdrawTo(address,uint256)": {
        "params": {
          "amount": "to withdraw",
          "withdrawAddress": "target to send to"
        }
      }
    },
    "version": 1
  },
  "userdoc": {
    "kind": "user",
    "methods": {
      "addStake(uint32)": {
        "notice": "add stake for this paymaster. This method can also carry eth value to add to the current stake."
      },
      "deposit()": {
        "notice": "add a deposit for this paymaster, used for paying for transaction fees"
      },
      "getDeposit()": {
        "notice": "return current paymaster's deposit on the entryPoint."
      },
      "postOp(uint8,bytes,uint256)": {
        "notice": "post-operation handler. Must verify sender is the entryPoint"
      },
      "unlockStake()": {
        "notice": "unlock the stake, in order to withdraw it. The paymaster can't serve requests once unlocked, until it calls addStake again"
      },
      "validatePaymasterUserOp((address,uint256,bytes,bytes,uint256,uint256,uint256,uint256,uint256,bytes,bytes),bytes32,uint256)": {
        "notice": "payment validation: check if paymaster agrees to pay. Must verify sender is the entryPoint. Revert to reject this request. Note that bundlers will reject this method if it changes the state, unless the paymaster is trusted (whitelisted) The paymaster pre-pays using its deposit, and receive back a refund after the postOp method returns."
      },
      "withdrawStake(address)": {
        "notice": "withdraw the entire paymaster's stake. stake must be unlocked first (and then wait for the unstakeDelay to be over)"
      },
      "withdrawTo(address,uint256)": {
        "notice": "withdraw value from the deposit"
      }
    },
    "notice": "A sample paymaster that uses external service to decide whether to pay for the UserOp. The paymaster trusts an external signer to sign the transaction. The calling user must pass the UserOp to that external signer first, which performs whatever off-chain verification before signing the UserOp. Note that this signature is NOT a replacement for the account-specific signature: - the paymaster checks a signature to agree to PAY for GAS. - the account checks a signature to prove identity and account ownership.",
    "version": 1
  },
  "storageLayout": {
    "storage": [
      {
        "astId": 7,
        "contract": "contracts/illuminex/LuminexTokenPaymaster.sol:LuminexTokenPaymaster",
        "label": "_owner",
        "offset": 0,
        "slot": "0",
        "type": "t_address"
      },
      {
        "astId": 1440,
        "contract": "contracts/illuminex/LuminexTokenPaymaster.sol:LuminexTokenPaymaster",
        "label": "feeConfigs",
        "offset": 0,
        "slot": "1",
        "type": "t_mapping(t_contract(IERC20)190,t_struct(FeeConfig)1434_storage)"
      },
      {
        "astId": 1594,
        "contract": "contracts/illuminex/LuminexTokenPaymaster.sol:LuminexTokenPaymaster",
        "label": "debt",
        "offset": 0,
        "slot": "2",
        "type": "t_mapping(t_address,t_mapping(t_contract(IERC20)190,t_uint256))"
      }
    ],
    "types": {
      "t_address": {
        "encoding": "inplace",
        "label": "address",
        "numberOfBytes": "20"
      },
      "t_contract(IERC20)190": {
        "encoding": "inplace",
        "label": "contract IERC20",
        "numberOfBytes": "20"
      },
      "t_mapping(t_address,t_mapping(t_contract(IERC20)190,t_uint256))": {
        "encoding": "mapping",
        "key": "t_address",
        "label": "mapping(address => mapping(contract IERC20 => uint256))",
        "numberOfBytes": "32",
        "value": "t_mapping(t_contract(IERC20)190,t_uint256)"
      },
      "t_mapping(t_contract(IERC20)190,t_struct(FeeConfig)1434_storage)": {
        "encoding": "mapping",
        "key": "t_contract(IERC20)190",
        "label": "mapping(contract IERC20 => struct LuminexFeeCalculator.FeeConfig)",
        "numberOfBytes": "32",
        "value": "t_struct(FeeConfig)1434_storage"
      },
      "t_mapping(t_contract(IERC20)190,t_uint256)": {
        "encoding": "mapping",
        "key": "t_contract(IERC20)190",
        "label": "mapping(contract IERC20 => uint256)",
        "numberOfBytes": "32",
        "value": "t_uint256"
      },
      "t_struct(FeeConfig)1434_storage": {
        "encoding": "inplace",
        "label": "struct LuminexFeeCalculator.FeeConfig",
        "members": [
          {
            "astId": 1429,
            "contract": "contracts/illuminex/LuminexTokenPaymaster.sol:LuminexTokenPaymaster",
            "label": "flat",
            "offset": 0,
            "slot": "0",
            "type": "t_uint256"
          },
          {
            "astId": 1431,
            "contract": "contracts/illuminex/LuminexTokenPaymaster.sol:LuminexTokenPaymaster",
            "label": "proportionalNumerator",
            "offset": 0,
            "slot": "1",
            "type": "t_uint112"
          },
          {
            "astId": 1433,
            "contract": "contracts/illuminex/LuminexTokenPaymaster.sol:LuminexTokenPaymaster",
            "label": "proportionalDenominator",
            "offset": 14,
            "slot": "1",
            "type": "t_uint112"
          }
        ],
        "numberOfBytes": "64"
      },
      "t_uint112": {
        "encoding": "inplace",
        "label": "uint112",
        "numberOfBytes": "14"
      },
      "t_uint256": {
        "encoding": "inplace",
        "label": "uint256",
        "numberOfBytes": "32"
      }
    }
  }
}