{
  "address": "0x0F99f037c41f29Dd0F04Eb2E63CA63e065fc2c11",
  "abi": [
    {
      "inputs": [
        {
          "internalType": "contract IEntryPoint",
          "name": "_entryPoint",
          "type": "address"
        }
      ],
      "stateMutability": "nonpayable",
      "type": "constructor"
    },
    {
      "anonymous": false,
      "inputs": [
        {
          "indexed": true,
          "internalType": "uint256",
          "name": "newKeyIndex",
          "type": "uint256"
        }
      ],
      "name": "ActualRingKeyRenewed",
      "type": "event"
    },
    {
      "inputs": [],
      "name": "accountImplementation",
      "outputs": [
        {
          "internalType": "contract LuminexAccount",
          "name": "",
          "type": "address"
        }
      ],
      "stateMutability": "view",
      "type": "function"
    },
    {
      "inputs": [
        {
          "internalType": "address",
          "name": "accountOwner",
          "type": "address"
        },
        {
          "internalType": "bytes32",
          "name": "salt",
          "type": "bytes32"
        }
      ],
      "name": "createAccount",
      "outputs": [
        {
          "internalType": "contract LuminexAccount",
          "name": "ret",
          "type": "address"
        }
      ],
      "stateMutability": "nonpayable",
      "type": "function"
    },
    {
      "inputs": [
        {
          "internalType": "bytes",
          "name": "_encrypted",
          "type": "bytes"
        }
      ],
      "name": "decryptForMe",
      "outputs": [
        {
          "internalType": "bytes",
          "name": "payload",
          "type": "bytes"
        }
      ],
      "stateMutability": "view",
      "type": "function"
    },
    {
      "inputs": [
        {
          "internalType": "address",
          "name": "_account",
          "type": "address"
        }
      ],
      "name": "deployedAccounts",
      "outputs": [
        {
          "internalType": "bool",
          "name": "created",
          "type": "bool"
        }
      ],
      "stateMutability": "view",
      "type": "function"
    },
    {
      "inputs": [
        {
          "internalType": "address",
          "name": "_receiver",
          "type": "address"
        },
        {
          "internalType": "bytes",
          "name": "_payload",
          "type": "bytes"
        }
      ],
      "name": "encryptFor",
      "outputs": [
        {
          "internalType": "bytes",
          "name": "encrypted",
          "type": "bytes"
        }
      ],
      "stateMutability": "view",
      "type": "function"
    },
    {
      "inputs": [
        {
          "internalType": "address",
          "name": "accountOwner",
          "type": "address"
        },
        {
          "internalType": "bytes32",
          "name": "salt",
          "type": "bytes32"
        }
      ],
      "name": "getAddress",
      "outputs": [
        {
          "internalType": "address",
          "name": "",
          "type": "address"
        }
      ],
      "stateMutability": "view",
      "type": "function"
    },
    {
      "inputs": [],
      "name": "rewards",
      "outputs": [
        {
          "internalType": "address payable",
          "name": "",
          "type": "address"
        }
      ],
      "stateMutability": "view",
      "type": "function"
    },
    {
      "inputs": [
        {
          "internalType": "address",
          "name": "_accountOwner",
          "type": "address"
        },
        {
          "internalType": "bytes32",
          "name": "_salt",
          "type": "bytes32"
        },
        {
          "internalType": "bytes",
          "name": "_call",
          "type": "bytes"
        }
      ],
      "name": "simulateCall",
      "outputs": [
        {
          "internalType": "bool",
          "name": "success",
          "type": "bool"
        },
        {
          "internalType": "bytes",
          "name": "result",
          "type": "bytes"
        }
      ],
      "stateMutability": "nonpayable",
      "type": "function"
    }
  ],
  "args": [
    "0x68e6260E34C18ca188927768499C9d19dE44D01F"
  ],
  "numDeployments": 6,
  "solcInputHash": "88e43962935dd4093621b3fdbabbfc3c",
  "bytecode": "0x60e06040523480156200001157600080fd5b5060405162003e2b38038062003e2b8339810160408190526200003491620002c2565b604080514360208201520160408051601f198184030181528282528051602091820120838301909252601583527f4c756d696e65784163636f756e74466163746f72790000000000000000000000908301529062000092826200011a565b80604051602001620000a591906200031a565b60408051601f19818403018152908290528051602090910120608052839250309150620000d290620002b4565b6001600160a01b03928316815291166020820152604001604051809103906000f08015801562000106573d6000803e3d6000fd5b506001600160a01b031660a052506200039c565b60006200014c6020836040516020016200013691815260200190565b60408051601f19818403018152919052620001bf565b620001579062000338565b60008054600180820183558280527f290decd9548b62a8d60345a988386fc84ba6bc95484008f6362f93160ef3e56382018490554290556040519293509182917fba51ee78d86a6bfb4931687fe76872852628ed43b8791a302edda3510d88670d91a2505050565b60606000807301000000000000000000000000000000000000016001600160a01b03168585604051602001620001f792919062000360565b60408051601f198184030181529082905262000213916200031a565b600060405180830381855afa9150503d806000811462000250576040519150601f19603f3d011682016040523d82523d6000602084013e62000255565b606091505b509150915081620002ac5760405162461bcd60e51b815260206004820152601360248201527f72616e646f6d42797465733a206661696c656400000000000000000000000000604482015260640160405180910390fd5b949350505050565b6123f78062001a3483390190565b600060208284031215620002d557600080fd5b81516001600160a01b0381168114620002ed57600080fd5b9392505050565b60005b8381101562000311578181015183820152602001620002f7565b50506000910152565b600082516200032e818460208701620002f4565b9190910192915050565b805160208083015191908110156200035a576000198160200360031b1b821691505b50919050565b828152604060208201526000825180604084015262000387816060850160208701620002f4565b601f01601f1916919091016060019392505050565b60805160a05160c05161164d620003e760003960006101a1015260008181609e0152818161035b01526105990152600081816107810152818161088701526108db015261164d6000f3fe60806040523480156200001157600080fd5b5060043610620000935760003560e01c80639697d18811620000625780639697d188146200014e5780639ec5a894146200019b578063d01ac93d14620001c3578063f14ddffc14620001da57600080fd5b806311464fbe14620000985780631bdeb33a14620000ea5780633eac234d14620001105780637ac4ed641462000137575b600080fd5b620000c07f000000000000000000000000000000000000000000000000000000000000000081565b60405173ffffffffffffffffffffffffffffffffffffffff90911681526020015b60405180910390f35b62000101620000fb36600462000ce6565b620001f1565b604051620000e1919062000dac565b620001276200012136600462000e0d565b62000261565b604051620000e192919062000e6d565b620000c06200014836600462000e8a565b620002f1565b6200018a6200015f36600462000eb7565b73ffffffffffffffffffffffffffffffffffffffff1660009081526002602052604090205460ff1690565b6040519015158152602001620000e1565b620000c07f000000000000000000000000000000000000000000000000000000000000000081565b62000101620001d436600462000ed5565b62000468565b620000c0620001eb36600462000e8a565b6200053a565b60606000806200020184620006c6565b915091508085856040516020016200021c9392919062000f1b565b604051602081830303815290604052805190602001208183604051602001620002489392919062000f6f565b6040516020818303038152906040529250505092915050565b6000606060006200027387876200053a565b90508073ffffffffffffffffffffffffffffffffffffffff1685856040516200029e92919062000f99565b6000604051808303816000865af19150503d8060008114620002dd576040519150601f19603f3d011682016040523d82523d6000602084013e620002e2565b606091505b50909890975095505050505050565b60006200045f82604051806020016200030a9062000bcc565b7fffffffffffffffffffffffffffffffffffffffffffffffffffffffffffffffe082820381018352601f90910116604081905273ffffffffffffffffffffffffffffffffffffffff871660248201527f000000000000000000000000000000000000000000000000000000000000000090604401604080517fffffffffffffffffffffffffffffffffffffffffffffffffffffffffffffffe0818403018152918152602080830180517bffffffffffffffffffffffffffffffffffffffffffffffffffffffff167fc4d66de8000000000000000000000000000000000000000000000000000000001790529051620004059392910162000fa9565b604080517fffffffffffffffffffffffffffffffffffffffffffffffffffffffffffffffe08184030181529082905262000443929160200162000fda565b60405160208183030381529060405280519060200120620007d0565b90505b92915050565b6060600080806200047c858701876200100d565b9250925092506200048e8282620007df565b93506000823386604051602001620004a99392919062000f1b565b60405160208183030381529060405280519060200120905080841462000530576040517f08c379a000000000000000000000000000000000000000000000000000000000815260206004820152601660248201527f49582d414631302057726f6e672072656365697665720000000000000000000060448201526064015b60405180910390fd5b5050505092915050565b600080620005498484620002f1565b905073ffffffffffffffffffffffffffffffffffffffff81163b8015620005735750905062000462565b60405173ffffffffffffffffffffffffffffffffffffffff8616602482015260009085907f000000000000000000000000000000000000000000000000000000000000000090604401604080517fffffffffffffffffffffffffffffffffffffffffffffffffffffffffffffffe08184030181529181526020820180517bffffffffffffffffffffffffffffffffffffffffffffffffffffffff167fc4d66de800000000000000000000000000000000000000000000000000000000179052516200063e9062000bcc565b6200064b92919062000fa9565b8190604051809103906000f59050801580156200066c573d6000803e3d6000fd5b5073ffffffffffffffffffffffffffffffffffffffff8116600090815260026020526040902080547fffffffffffffffffffffffffffffffffffffffffffffffffffffffffffffff00166001179055935050505092915050565b600080546060919062000736576040517f08c379a000000000000000000000000000000000000000000000000000000000815260206004820152601360248201527f4e6f2072696e67206b6579732073657420757000000000000000000000000000604482015260640162000527565b600054620007479060019062001061565b905060006200075682620008d6565b9050620007c8600083815481106200077257620007726200109c565b906000526020600020015482867f0000000000000000000000000000000000000000000000000000000000000000604051602001620007b391815260200190565b60405160208183030381529060405262000932565b925050915091565b60006200045f83833062000a6f565b60005460609083106200084f576040517f08c379a000000000000000000000000000000000000000000000000000000000815260206004820152601160248201527f4e6f2072696e67206b657920666f756e64000000000000000000000000000000604482015260640162000527565b60006200085c84620008d6565b9050620008ce600085815481106200087857620008786200109c565b906000526020600020015482857f0000000000000000000000000000000000000000000000000000000000000000604051602001620008b991815260200190565b60405160208183030381529060405262000a99565b949350505050565b6000817f000000000000000000000000000000000000000000000000000000000000000060405160200162000915929190918252602082015260400190565b604051602081830303815290604052805190602001209050919050565b606060008073010000000000000000000000000000000000000373ffffffffffffffffffffffffffffffffffffffff16878787876040516020016200097b9493929190620010cb565b604080517fffffffffffffffffffffffffffffffffffffffffffffffffffffffffffffffe081840301815290829052620009b5916200110b565b600060405180830381855afa9150503d8060008114620009f2576040519150601f19603f3d011682016040523d82523d6000602084013e620009f7565b606091505b50915091508162000a65576040517f08c379a000000000000000000000000000000000000000000000000000000000815260206004820152600f60248201527f656e63727970743a206661696c65640000000000000000000000000000000000604482015260640162000527565b9695505050505050565b6000604051836040820152846020820152828152600b8101905060ff815360559020949350505050565b606060008073010000000000000000000000000000000000000473ffffffffffffffffffffffffffffffffffffffff168787878760405160200162000ae29493929190620010cb565b604080517fffffffffffffffffffffffffffffffffffffffffffffffffffffffffffffffe08184030181529082905262000b1c916200110b565b600060405180830381855afa9150503d806000811462000b59576040519150601f19603f3d011682016040523d82523d6000602084013e62000b5e565b606091505b50915091508162000a65576040517f08c379a000000000000000000000000000000000000000000000000000000000815260206004820152600f60248201527f646563727970743a206661696c65640000000000000000000000000000000000604482015260640162000527565b6104ee806200112a83390190565b803573ffffffffffffffffffffffffffffffffffffffff8116811462000bff57600080fd5b919050565b7f4e487b7100000000000000000000000000000000000000000000000000000000600052604160045260246000fd5b600082601f83011262000c4557600080fd5b813567ffffffffffffffff8082111562000c635762000c6362000c04565b604051601f83017fffffffffffffffffffffffffffffffffffffffffffffffffffffffffffffffe0908116603f0116810190828211818310171562000cac5762000cac62000c04565b8160405283815286602085880101111562000cc657600080fd5b836020870160208301376000602085830101528094505050505092915050565b6000806040838503121562000cfa57600080fd5b62000d058362000bda565b9150602083013567ffffffffffffffff81111562000d2257600080fd5b62000d308582860162000c33565b9150509250929050565b60005b8381101562000d5757818101518382015260200162000d3d565b50506000910152565b6000815180845262000d7a81602086016020860162000d3a565b601f017fffffffffffffffffffffffffffffffffffffffffffffffffffffffffffffffe0169290920160200192915050565b6020815260006200045f602083018462000d60565b60008083601f84011262000dd457600080fd5b50813567ffffffffffffffff81111562000ded57600080fd5b60208301915083602082850101111562000e0657600080fd5b9250929050565b6000806000806060858703121562000e2457600080fd5b62000e2f8562000bda565b935060208501359250604085013567ffffffffffffffff81111562000e5357600080fd5b62000e618782880162000dc1565b95989497509550505050565b8215158152604060208201526000620008ce604083018462000d60565b6000806040838503121562000e9e57600080fd5b62000ea98362000bda565b946020939093013593505050565b60006020828403121562000eca57600080fd5b6200045f8262000bda565b6000806020838503121562000ee957600080fd5b823567ffffffffffffffff81111562000f0157600080fd5b62000f0f8582860162000dc1565b90969095509350505050565b8381527fffffffffffffffffffffffffffffffffffffffff0000000000000000000000008360601b1660208201526000825162000f6081603485016020870162000d3a565b91909101603401949350505050565b83815282602082015260606040820152600062000f90606083018462000d60565b95945050505050565b8183823760009101908152919050565b73ffffffffffffffffffffffffffffffffffffffff83168152604060208201526000620008ce604083018462000d60565b6000835162000fee81846020880162000d3a565b8351908301906200100481836020880162000d3a565b01949350505050565b6000806000606084860312156200102357600080fd5b8335925060208401359150604084013567ffffffffffffffff8111156200104957600080fd5b620010578682870162000c33565b9150509250925092565b8181038181111562000462577f4e487b7100000000000000000000000000000000000000000000000000000000600052601160045260246000fd5b7f4e487b7100000000000000000000000000000000000000000000000000000000600052603260045260246000fd5b848152836020820152608060408201526000620010ec608083018562000d60565b828103606084015262001100818562000d60565b979650505050505050565b600082516200111f81846020870162000d3a565b919091019291505056fe60806040526040516104ee3803806104ee833981016040819052610022916102de565b61002e82826000610035565b50506103fb565b61003e83610061565b60008251118061004b5750805b1561005c5761005a83836100a1565b505b505050565b61006a816100cd565b6040516001600160a01b038216907fbc7cd75a20ee27fd9adebab32041f755214dbc6bffa90cc0225b39da2e5c2d3b90600090a250565b60606100c683836040518060600160405280602781526020016104c760279139610180565b9392505050565b6001600160a01b0381163b61013f5760405162461bcd60e51b815260206004820152602d60248201527f455243313936373a206e657720696d706c656d656e746174696f6e206973206e60448201526c1bdd08184818dbdb9d1c9858dd609a1b60648201526084015b60405180910390fd5b7f360894a13ba1a3210667c828492db98dca3e2076cc3735a920a3ca505d382bbc80546001600160a01b0319166001600160a01b0392909216919091179055565b6060600080856001600160a01b03168560405161019d91906103ac565b600060405180830381855af49150503d80600081146101d8576040519150601f19603f3d011682016040523d82523d6000602084013e6101dd565b606091505b5090925090506101ef868383876101f9565b9695505050505050565b60608315610268578251600003610261576001600160a01b0385163b6102615760405162461bcd60e51b815260206004820152601d60248201527f416464726573733a2063616c6c20746f206e6f6e2d636f6e74726163740000006044820152606401610136565b5081610272565b610272838361027a565b949350505050565b81511561028a5781518083602001fd5b8060405162461bcd60e51b815260040161013691906103c8565b634e487b7160e01b600052604160045260246000fd5b60005b838110156102d55781810151838201526020016102bd565b50506000910152565b600080604083850312156102f157600080fd5b82516001600160a01b038116811461030857600080fd5b60208401519092506001600160401b038082111561032557600080fd5b818501915085601f83011261033957600080fd5b81518181111561034b5761034b6102a4565b604051601f8201601f19908116603f01168101908382118183101715610373576103736102a4565b8160405282815288602084870101111561038c57600080fd5b61039d8360208301602088016102ba565b80955050505050509250929050565b600082516103be8184602087016102ba565b9190910192915050565b60208152600082518060208401526103e78160408501602087016102ba565b601f01601f19169190910160400192915050565b60be806104096000396000f3fe608060405236601057600e6013565b005b600e5b601f601b6021565b6065565b565b600060607f360894a13ba1a3210667c828492db98dca3e2076cc3735a920a3ca505d382bbc5473ffffffffffffffffffffffffffffffffffffffff1690565b905090565b3660008037600080366000845af43d6000803e8080156083573d6000f35b3d6000fdfea264697066735822122033d169bd5cb986f60465dc1d6f7bdc987d20a9bfce5e711d793bed66346cb84c64736f6c63430008170033416464726573733a206c6f772d6c6576656c2064656c65676174652063616c6c206661696c6564a26469706673582212202d0b84f607de95b54d76f847e1a3d811fcc62815636d696bf0711751aa42d4ef64736f6c6343000817003360e0604052306080523480156200001557600080fd5b50604051620023f7380380620023f7833981016040819052620000389162000137565b6001600160a01b0380831660a052811660c052620000556200005d565b505062000176565b600054610100900460ff1615620000ca5760405162461bcd60e51b815260206004820152602760248201527f496e697469616c697a61626c653a20636f6e747261637420697320696e697469604482015266616c697a696e6760c81b606482015260840160405180910390fd5b60005460ff908116146200011c576000805460ff191660ff9081179091556040519081527f7f26b83ff96e1f2b6a682f133852f6798a09c465da95921460cefb38474024989060200160405180910390a15b565b6001600160a01b03811681146200013457600080fd5b50565b600080604083850312156200014b57600080fd5b825162000158816200011e565b60208401519092506200016b816200011e565b809150509250929050565b60805160a05160c051612204620001f36000396000610df40152600081816102190152818161069b0152818161074901528181610b6501528181610db6015281816110fa015281816112c101526114de0152600081816102de0152818161039301528181610805015281816108b501526109fe01526122046000f3fe6080604052600436106100e15760003560e01c80638da5cb5b1161007f578063c399ec8811610059578063c399ec881461025d578063c4d66de814610272578063d087d28814610292578063f752ef6c146102a757600080fd5b80638da5cb5b146101b2578063b0d691fe1461020a578063b61d27f61461023d57600080fd5b80634a58db19116100bb5780634a58db19146101625780634d44560d1461016a5780634f1ef2861461018a57806352d1902d1461019d57600080fd5b80633659cfe6146100ed5780633a871cdd1461010f57806347e1da2a1461014257600080fd5b366100e857005b600080fd5b3480156100f957600080fd5b5061010d610108366004611b66565b6102c7565b005b34801561011b57600080fd5b5061012f61012a366004611b83565b6104d1565b6040519081526020015b60405180910390f35b34801561014e57600080fd5b5061010d61015d366004611c1c565b6104f7565b61010d610699565b34801561017657600080fd5b5061010d610185366004611cb6565b61073f565b61010d610198366004611da6565b6107ee565b3480156101a957600080fd5b5061012f6109e4565b3480156101be57600080fd5b506000546101e59062010000900473ffffffffffffffffffffffffffffffffffffffff1681565b60405173ffffffffffffffffffffffffffffffffffffffff9091168152602001610139565b34801561021657600080fd5b507f00000000000000000000000000000000000000000000000000000000000000006101e5565b34801561024957600080fd5b5061010d610258366004611e7b565b610ad0565b34801561026957600080fd5b5061012f610b1f565b34801561027e57600080fd5b5061010d61028d366004611b66565b610bd6565b34801561029e57600080fd5b5061012f610d69565b3480156102b357600080fd5b5061010d6102c2366004611ed7565b610de5565b73ffffffffffffffffffffffffffffffffffffffff7f0000000000000000000000000000000000000000000000000000000000000000163003610391576040517f08c379a000000000000000000000000000000000000000000000000000000000815260206004820152602c60248201527f46756e6374696f6e206d7573742062652063616c6c6564207468726f7567682060448201527f64656c656761746563616c6c000000000000000000000000000000000000000060648201526084015b60405180910390fd5b7f000000000000000000000000000000000000000000000000000000000000000073ffffffffffffffffffffffffffffffffffffffff166104067f360894a13ba1a3210667c828492db98dca3e2076cc3735a920a3ca505d382bbc5473ffffffffffffffffffffffffffffffffffffffff1690565b73ffffffffffffffffffffffffffffffffffffffff16146104a9576040517f08c379a000000000000000000000000000000000000000000000000000000000815260206004820152602c60248201527f46756e6374696f6e206d7573742062652063616c6c6564207468726f7567682060448201527f6163746976652070726f787900000000000000000000000000000000000000006064820152608401610388565b6104b281610ed6565b604080516000808252602082019092526104ce91839190610ede565b50565b60006104db6110e2565b6104e58484611183565b90506104f08261123e565b9392505050565b6104ff6112a9565b8481148015610515575082158061051557508281145b61057b576040517f08c379a000000000000000000000000000000000000000000000000000000000815260206004820152601360248201527f77726f6e67206172726179206c656e67746873000000000000000000000000006044820152606401610388565b60008390036106275760005b85811015610621576106198787838181106105a4576105a4611f19565b90506020020160208101906105b99190611b66565b60008585858181106105cd576105cd611f19565b90506020028101906105df9190611f48565b8080601f01602080910402602001604051908101604052809392919081815260200183838082843760009201919091525061137a92505050565b600101610587565b50610691565b60005b8581101561068f5761068787878381811061064757610647611f19565b905060200201602081019061065c9190611b66565b86868481811061066e5761066e611f19565b905060200201358585858181106105cd576105cd611f19565b60010161062a565b505b505050505050565b7f00000000000000000000000000000000000000000000000000000000000000006040517fb760faf900000000000000000000000000000000000000000000000000000000815230600482015273ffffffffffffffffffffffffffffffffffffffff919091169063b760faf99034906024016000604051808303818588803b15801561072457600080fd5b505af1158015610738573d6000803e3d6000fd5b5050505050565b6107476113f7565b7f00000000000000000000000000000000000000000000000000000000000000006040517f205c287800000000000000000000000000000000000000000000000000000000815273ffffffffffffffffffffffffffffffffffffffff848116600483015260248201849052919091169063205c287890604401600060405180830381600087803b1580156107da57600080fd5b505af1158015610691573d6000803e3d6000fd5b73ffffffffffffffffffffffffffffffffffffffff7f00000000000000000000000000000000000000000000000000000000000000001630036108b3576040517f08c379a000000000000000000000000000000000000000000000000000000000815260206004820152602c60248201527f46756e6374696f6e206d7573742062652063616c6c6564207468726f7567682060448201527f64656c656761746563616c6c00000000000000000000000000000000000000006064820152608401610388565b7f000000000000000000000000000000000000000000000000000000000000000073ffffffffffffffffffffffffffffffffffffffff166109287f360894a13ba1a3210667c828492db98dca3e2076cc3735a920a3ca505d382bbc5473ffffffffffffffffffffffffffffffffffffffff1690565b73ffffffffffffffffffffffffffffffffffffffff16146109cb576040517f08c379a000000000000000000000000000000000000000000000000000000000815260206004820152602c60248201527f46756e6374696f6e206d7573742062652063616c6c6564207468726f7567682060448201527f6163746976652070726f787900000000000000000000000000000000000000006064820152608401610388565b6109d482610ed6565b6109e082826001610ede565b5050565b60003073ffffffffffffffffffffffffffffffffffffffff7f00000000000000000000000000000000000000000000000000000000000000001614610aab576040517f08c379a000000000000000000000000000000000000000000000000000000000815260206004820152603860248201527f555550535570677261646561626c653a206d757374206e6f742062652063616c60448201527f6c6564207468726f7567682064656c656761746563616c6c00000000000000006064820152608401610388565b507f360894a13ba1a3210667c828492db98dca3e2076cc3735a920a3ca505d382bbc90565b610ad86112a9565b610b19848484848080601f01602080910402602001604051908101604052809392919081815260200183838082843760009201919091525061137a92505050565b50505050565b6040517f70a0823100000000000000000000000000000000000000000000000000000000815230600482015260009073ffffffffffffffffffffffffffffffffffffffff7f000000000000000000000000000000000000000000000000000000000000000016906370a08231906024015b602060405180830381865afa158015610bad573d6000803e3d6000fd5b505050506040513d601f19601f82011682018060405250810190610bd19190611fad565b905090565b600054610100900460ff1615808015610bf65750600054600160ff909116105b80610c105750303b158015610c10575060005460ff166001145b610c9c576040517f08c379a000000000000000000000000000000000000000000000000000000000815260206004820152602e60248201527f496e697469616c697a61626c653a20636f6e747261637420697320616c72656160448201527f647920696e697469616c697a65640000000000000000000000000000000000006064820152608401610388565b600080547fffffffffffffffffffffffffffffffffffffffffffffffffffffffffffffff001660011790558015610cfa57600080547fffffffffffffffffffffffffffffffffffffffffffffffffffffffffffff00ff166101001790555b610d0382611488565b80156109e057600080547fffffffffffffffffffffffffffffffffffffffffffffffffffffffffffff00ff169055604051600181527f7f26b83ff96e1f2b6a682f133852f6798a09c465da95921460cefb38474024989060200160405180910390a15050565b6040517f35567e1a0000000000000000000000000000000000000000000000000000000081523060048201526000602482018190529073ffffffffffffffffffffffffffffffffffffffff7f000000000000000000000000000000000000000000000000000000000000000016906335567e1a90604401610b90565b610ded6112a9565b60008060007f000000000000000000000000000000000000000000000000000000000000000073ffffffffffffffffffffffffffffffffffffffff1663d01ac93d86866040518363ffffffff1660e01b8152600401610e4d929190611fc6565b6000604051808303816000875af1158015610e6c573d6000803e3d6000fd5b505050506040513d6000823e601f3d9081017fffffffffffffffffffffffffffffffffffffffffffffffffffffffffffffffe0168201604052610eb2919081019061207c565b806020019051810190610ec591906120b1565b92509250925061073883838361137a565b6104ce6113f7565b7f4910fdfa16fed3260ed0e7147f7cc6da11a60208b5b9406d12a635614ffd91435460ff1615610f1657610f1183611527565b505050565b8273ffffffffffffffffffffffffffffffffffffffff166352d1902d6040518163ffffffff1660e01b8152600401602060405180830381865afa925050508015610f9b575060408051601f3d9081017fffffffffffffffffffffffffffffffffffffffffffffffffffffffffffffffe0168201909252610f9891810190611fad565b60015b611027576040517f08c379a000000000000000000000000000000000000000000000000000000000815260206004820152602e60248201527f45524331393637557067726164653a206e657720696d706c656d656e7461746960448201527f6f6e206973206e6f7420555550530000000000000000000000000000000000006064820152608401610388565b7f360894a13ba1a3210667c828492db98dca3e2076cc3735a920a3ca505d382bbc81146110d6576040517f08c379a000000000000000000000000000000000000000000000000000000000815260206004820152602960248201527f45524331393637557067726164653a20756e737570706f727465642070726f7860448201527f6961626c655555494400000000000000000000000000000000000000000000006064820152608401610388565b50610f11838383611631565b3373ffffffffffffffffffffffffffffffffffffffff7f00000000000000000000000000000000000000000000000000000000000000001614611181576040517f08c379a000000000000000000000000000000000000000000000000000000000815260206004820152601c60248201527f6163636f756e743a206e6f742066726f6d20456e747279506f696e74000000006044820152606401610388565b565b7f19457468657265756d205369676e6564204d6573736167653a0a3332000000006000908152601c829052603c81206111fe816111c4610140870187611f48565b8080601f01602080910402602001604051908101604052809392919081815260200183838082843760009201919091525061165692505050565b60005473ffffffffffffffffffffffffffffffffffffffff9182166201000090910490911603611232576000915050611238565b60019150505b92915050565b80156104ce5760405160009033907fffffffffffffffffffffffffffffffffffffffffffffffffffffffffffffffff90849084818181858888f193505050503d8060008114610738576040519150601f19603f3d011682016040523d82523d6000602084013e610738565b3373ffffffffffffffffffffffffffffffffffffffff7f000000000000000000000000000000000000000000000000000000000000000016148061130a575060005462010000900473ffffffffffffffffffffffffffffffffffffffff1633145b8061131457503330145b611181576040517f08c379a000000000000000000000000000000000000000000000000000000000815260206004820152601f60248201527f49582d41413130206e6f204f776e6572206e6f7220456e747279506f696e74006044820152606401610388565b6000808473ffffffffffffffffffffffffffffffffffffffff1684846040516113a3919061210b565b60006040518083038185875af1925050503d80600081146113e0576040519150601f19603f3d011682016040523d82523d6000602084013e6113e5565b606091505b50915091508161073857805160208201fd5b60005462010000900473ffffffffffffffffffffffffffffffffffffffff1633148061142257503330145b611181576040517f08c379a000000000000000000000000000000000000000000000000000000000815260206004820152601260248201527f49582d41413131206f6e6c79206f776e657200000000000000000000000000006044820152606401610388565b600080547fffffffffffffffffffff0000000000000000000000000000000000000000ffff166201000073ffffffffffffffffffffffffffffffffffffffff8481168202929092178084556040519190048216927f0000000000000000000000000000000000000000000000000000000000000000909216917f47e55c76e7a6f1fd8996a1da8008c1ea29699cca35e7bcd057f2dec313b6e5de91a350565b73ffffffffffffffffffffffffffffffffffffffff81163b6115cb576040517f08c379a000000000000000000000000000000000000000000000000000000000815260206004820152602d60248201527f455243313936373a206e657720696d706c656d656e746174696f6e206973206e60448201527f6f74206120636f6e7472616374000000000000000000000000000000000000006064820152608401610388565b7f360894a13ba1a3210667c828492db98dca3e2076cc3735a920a3ca505d382bbc80547fffffffffffffffffffffffff00000000000000000000000000000000000000001673ffffffffffffffffffffffffffffffffffffffff92909216919091179055565b61163a8361167a565b6000825111806116475750805b15610f1157610b1983836116c7565b600080600061166585856116ec565b9150915061167281611731565b509392505050565b61168381611527565b60405173ffffffffffffffffffffffffffffffffffffffff8216907fbc7cd75a20ee27fd9adebab32041f755214dbc6bffa90cc0225b39da2e5c2d3b90600090a250565b60606104f083836040518060600160405280602781526020016121a8602791396118e4565b60008082516041036117225760208301516040840151606085015160001a61171687828585611969565b9450945050505061172a565b506000905060025b9250929050565b600081600481111561174557611745612127565b0361174d5750565b600181600481111561176157611761612127565b036117c8576040517f08c379a000000000000000000000000000000000000000000000000000000000815260206004820152601860248201527f45434453413a20696e76616c6964207369676e617475726500000000000000006044820152606401610388565b60028160048111156117dc576117dc612127565b03611843576040517f08c379a000000000000000000000000000000000000000000000000000000000815260206004820152601f60248201527f45434453413a20696e76616c6964207369676e6174757265206c656e677468006044820152606401610388565b600381600481111561185757611857612127565b036104ce576040517f08c379a000000000000000000000000000000000000000000000000000000000815260206004820152602260248201527f45434453413a20696e76616c6964207369676e6174757265202773272076616c60448201527f75650000000000000000000000000000000000000000000000000000000000006064820152608401610388565b60606000808573ffffffffffffffffffffffffffffffffffffffff168560405161190e919061210b565b600060405180830381855af49150503d8060008114611949576040519150601f19603f3d011682016040523d82523d6000602084013e61194e565b606091505b509150915061195f86838387611a58565b9695505050505050565b6000807f7fffffffffffffffffffffffffffffff5d576e7357a4501ddfe92f46681b20a08311156119a05750600090506003611a4f565b6040805160008082526020820180845289905260ff881692820192909252606081018690526080810185905260019060a0016020604051602081039080840390855afa1580156119f4573d6000803e3d6000fd5b50506040517fffffffffffffffffffffffffffffffffffffffffffffffffffffffffffffffe0015191505073ffffffffffffffffffffffffffffffffffffffff8116611a4857600060019250925050611a4f565b9150600090505b94509492505050565b60608315611aee578251600003611ae75773ffffffffffffffffffffffffffffffffffffffff85163b611ae7576040517f08c379a000000000000000000000000000000000000000000000000000000000815260206004820152601d60248201527f416464726573733a2063616c6c20746f206e6f6e2d636f6e74726163740000006044820152606401610388565b5081611af8565b611af88383611b00565b949350505050565b815115611b105781518083602001fd5b806040517f08c379a00000000000000000000000000000000000000000000000000000000081526004016103889190612156565b73ffffffffffffffffffffffffffffffffffffffff811681146104ce57600080fd5b600060208284031215611b7857600080fd5b81356104f081611b44565b600080600060608486031215611b9857600080fd5b833567ffffffffffffffff811115611baf57600080fd5b84016101608187031215611bc257600080fd5b95602085013595506040909401359392505050565b60008083601f840112611be957600080fd5b50813567ffffffffffffffff811115611c0157600080fd5b6020830191508360208260051b850101111561172a57600080fd5b60008060008060008060608789031215611c3557600080fd5b863567ffffffffffffffff80821115611c4d57600080fd5b611c598a838b01611bd7565b90985096506020890135915080821115611c7257600080fd5b611c7e8a838b01611bd7565b90965094506040890135915080821115611c9757600080fd5b50611ca489828a01611bd7565b979a9699509497509295939492505050565b60008060408385031215611cc957600080fd5b8235611cd481611b44565b946020939093013593505050565b7f4e487b7100000000000000000000000000000000000000000000000000000000600052604160045260246000fd5b604051601f82017fffffffffffffffffffffffffffffffffffffffffffffffffffffffffffffffe016810167ffffffffffffffff81118282101715611d5857611d58611ce2565b604052919050565b600067ffffffffffffffff821115611d7a57611d7a611ce2565b50601f017fffffffffffffffffffffffffffffffffffffffffffffffffffffffffffffffe01660200190565b60008060408385031215611db957600080fd5b8235611dc481611b44565b9150602083013567ffffffffffffffff811115611de057600080fd5b8301601f81018513611df157600080fd5b8035611e04611dff82611d60565b611d11565b818152866020838501011115611e1957600080fd5b816020840160208301376000602083830101528093505050509250929050565b60008083601f840112611e4b57600080fd5b50813567ffffffffffffffff811115611e6357600080fd5b60208301915083602082850101111561172a57600080fd5b60008060008060608587031215611e9157600080fd5b8435611e9c81611b44565b935060208501359250604085013567ffffffffffffffff811115611ebf57600080fd5b611ecb87828801611e39565b95989497509550505050565b60008060208385031215611eea57600080fd5b823567ffffffffffffffff811115611f0157600080fd5b611f0d85828601611e39565b90969095509350505050565b7f4e487b7100000000000000000000000000000000000000000000000000000000600052603260045260246000fd5b60008083357fffffffffffffffffffffffffffffffffffffffffffffffffffffffffffffffe1843603018112611f7d57600080fd5b83018035915067ffffffffffffffff821115611f9857600080fd5b60200191503681900382131561172a57600080fd5b600060208284031215611fbf57600080fd5b5051919050565b60208152816020820152818360408301376000818301604090810191909152601f9092017fffffffffffffffffffffffffffffffffffffffffffffffffffffffffffffffe0160101919050565b60005b8381101561202e578181015183820152602001612016565b50506000910152565b600082601f83011261204857600080fd5b8151612056611dff82611d60565b81815284602083860101111561206b57600080fd5b611af8826020830160208701612013565b60006020828403121561208e57600080fd5b815167ffffffffffffffff8111156120a557600080fd5b611af884828501612037565b6000806000606084860312156120c657600080fd5b83516120d181611b44565b60208501516040860151919450925067ffffffffffffffff8111156120f557600080fd5b61210186828701612037565b9150509250925092565b6000825161211d818460208701612013565b9190910192915050565b7f4e487b7100000000000000000000000000000000000000000000000000000000600052602160045260246000fd5b6020815260008251806020840152612175816040850160208701612013565b601f017fffffffffffffffffffffffffffffffffffffffffffffffffffffffffffffffe016919091016040019291505056fe416464726573733a206c6f772d6c6576656c2064656c65676174652063616c6c206661696c6564a2646970667358221220d5ed8e87e8f9d94a732db082f8b89c0a4b08e67a385b9301ef1d5e8df64f046964736f6c63430008170033",
  "devdoc": {
    "kind": "dev",
    "methods": {},
    "version": 1
  },
  "userdoc": {
    "kind": "user",
    "methods": {
      "createAccount(address,bytes32)": {
        "notice": "create an account, and return its address. returns the address even if the account is already deployed. Note that during UserOperation execution, this method is called only if the account is not deployed. This method returns an existing account address so that entryPoint.getSenderAddress() would work even after account creation"
      },
      "getAddress(address,bytes32)": {
        "notice": "calculate the counterfactual address of this account as it would be returned by createAccount()"
      },
      "simulateCall(address,bytes32,bytes)": {
        "notice": "returns call result"
      }
    },
    "notice": "A sample factory contract for LuminexAccount.sol A UserOperations \"initCode\" holds the address of the factory, and a method call (to createAccount, in this sample factory). The factory's createAccount returns the target account address even if it is already installed. This way, the entryPoint.getSenderAddress() can be called either before or after the account is created.",
    "version": 1
  },
  "storageLayout": {
    "storage": [
      {
        "astId": 5226,
        "contract": "contracts/illuminex/LuminexAccountFactory.sol:LuminexAccountFactory",
        "label": "_ringKeys",
        "offset": 0,
        "slot": "0",
        "type": "t_array(t_bytes32)dyn_storage"
      },
      {
        "astId": 5228,
        "contract": "contracts/illuminex/LuminexAccountFactory.sol:LuminexAccountFactory",
        "label": "_lastRingKeyUpdate",
        "offset": 0,
        "slot": "1",
        "type": "t_uint256"
      },
      {
        "astId": 4812,
        "contract": "contracts/illuminex/LuminexAccountFactory.sol:LuminexAccountFactory",
        "label": "_deployedAccounts",
        "offset": 0,
        "slot": "2",
        "type": "t_mapping(t_address,t_bool)"
      }
    ],
    "types": {
      "t_address": {
        "encoding": "inplace",
        "label": "address",
        "numberOfBytes": "20"
      },
      "t_array(t_bytes32)dyn_storage": {
        "base": "t_bytes32",
        "encoding": "dynamic_array",
        "label": "bytes32[]",
        "numberOfBytes": "32"
      },
      "t_bool": {
        "encoding": "inplace",
        "label": "bool",
        "numberOfBytes": "1"
      },
      "t_bytes32": {
        "encoding": "inplace",
        "label": "bytes32",
        "numberOfBytes": "32"
      },
      "t_mapping(t_address,t_bool)": {
        "encoding": "mapping",
        "key": "t_address",
        "label": "mapping(address => bool)",
        "numberOfBytes": "32",
        "value": "t_bool"
      },
      "t_uint256": {
        "encoding": "inplace",
        "label": "uint256",
        "numberOfBytes": "32"
      }
    }
  }
}