{
  "address": "0x197225086Fdc812DA01B0302c180A0999b17C7fd",
  "abi": [
    {
      "inputs": [
        {
          "internalType": "contract IEntryPoint",
          "name": "_entryPoint",
          "type": "address"
        },
        {
          "internalType": "address",
          "name": "_owner",
          "type": "address"
        },
        {
          "internalType": "contract IERC20",
          "name": "_wrappedNative",
          "type": "address"
        }
      ],
      "stateMutability": "nonpayable",
      "type": "constructor"
    },
    {
      "anonymous": false,
      "inputs": [
        {
          "indexed": true,
          "internalType": "address",
          "name": "account",
          "type": "address"
        },
        {
          "indexed": true,
          "internalType": "contract IERC20",
          "name": "token",
          "type": "address"
        },
        {
          "indexed": false,
          "internalType": "uint256",
          "name": "debt",
          "type": "uint256"
        }
      ],
      "name": "AccountDebt",
      "type": "event"
    },
    {
      "anonymous": false,
      "inputs": [
        {
          "indexed": false,
          "internalType": "address",
          "name": "beneficiary",
          "type": "address"
        }
      ],
      "name": "BeneficiarySet",
      "type": "event"
    },
    {
      "anonymous": false,
      "inputs": [
        {
          "indexed": true,
          "internalType": "contract IERC20",
          "name": "token",
          "type": "address"
        },
        {
          "indexed": false,
          "internalType": "contract LuminexOracle",
          "name": "oracle",
          "type": "address"
        }
      ],
      "name": "OracleSet",
      "type": "event"
    },
    {
      "anonymous": false,
      "inputs": [
        {
          "indexed": true,
          "internalType": "address",
          "name": "previousOwner",
          "type": "address"
        },
        {
          "indexed": true,
          "internalType": "address",
          "name": "newOwner",
          "type": "address"
        }
      ],
      "name": "OwnershipTransferred",
      "type": "event"
    },
    {
      "inputs": [],
      "name": "COST_OF_POST",
      "outputs": [
        {
          "internalType": "uint256",
          "name": "",
          "type": "uint256"
        }
      ],
      "stateMutability": "view",
      "type": "function"
    },
    {
      "inputs": [],
      "name": "WRAPPED_NATIVE",
      "outputs": [
        {
          "internalType": "contract IERC20",
          "name": "",
          "type": "address"
        }
      ],
      "stateMutability": "view",
      "type": "function"
    },
    {
      "inputs": [
        {
          "internalType": "uint32",
          "name": "unstakeDelaySec",
          "type": "uint32"
        }
      ],
      "name": "addStake",
      "outputs": [],
      "stateMutability": "payable",
      "type": "function"
    },
    {
      "inputs": [],
      "name": "beneficiary",
      "outputs": [
        {
          "internalType": "address",
          "name": "",
          "type": "address"
        }
      ],
      "stateMutability": "view",
      "type": "function"
    },
    {
      "inputs": [
        {
          "internalType": "contract IERC20",
          "name": "_token",
          "type": "address"
        },
        {
          "internalType": "uint256",
          "name": "tokenValue",
          "type": "uint256"
        },
        {
          "internalType": "uint256",
          "name": "minNative",
          "type": "uint256"
        },
        {
          "internalType": "address payable",
          "name": "receiver",
          "type": "address"
        }
      ],
      "name": "buyNativeForToken",
      "outputs": [],
      "stateMutability": "nonpayable",
      "type": "function"
    },
    {
      "inputs": [
        {
          "internalType": "address",
          "name": "",
          "type": "address"
        },
        {
          "internalType": "contract IERC20",
          "name": "",
          "type": "address"
        }
      ],
      "name": "debt",
      "outputs": [
        {
          "internalType": "uint256",
          "name": "",
          "type": "uint256"
        }
      ],
      "stateMutability": "view",
      "type": "function"
    },
    {
      "inputs": [],
      "name": "deposit",
      "outputs": [],
      "stateMutability": "payable",
      "type": "function"
    },
    {
      "inputs": [],
      "name": "entryPoint",
      "outputs": [
        {
          "internalType": "contract IEntryPoint",
          "name": "",
          "type": "address"
        }
      ],
      "stateMutability": "view",
      "type": "function"
    },
    {
      "inputs": [],
      "name": "getDeposit",
      "outputs": [
        {
          "internalType": "uint256",
          "name": "",
          "type": "uint256"
        }
      ],
      "stateMutability": "view",
      "type": "function"
    },
    {
      "inputs": [
        {
          "internalType": "contract IERC20",
          "name": "",
          "type": "address"
        }
      ],
      "name": "oracles",
      "outputs": [
        {
          "internalType": "contract LuminexOracle",
          "name": "",
          "type": "address"
        }
      ],
      "stateMutability": "view",
      "type": "function"
    },
    {
      "inputs": [],
      "name": "owner",
      "outputs": [
        {
          "internalType": "address",
          "name": "",
          "type": "address"
        }
      ],
      "stateMutability": "view",
      "type": "function"
    },
    {
      "inputs": [
        {
          "internalType": "address",
          "name": "debtor",
          "type": "address"
        },
        {
          "internalType": "contract IERC20",
          "name": "token",
          "type": "address"
        }
      ],
      "name": "payDebt",
      "outputs": [],
      "stateMutability": "nonpayable",
      "type": "function"
    },
    {
      "inputs": [
        {
          "internalType": "enum IPaymaster.PostOpMode",
          "name": "mode",
          "type": "uint8"
        },
        {
          "internalType": "bytes",
          "name": "context",
          "type": "bytes"
        },
        {
          "internalType": "uint256",
          "name": "actualGasCost",
          "type": "uint256"
        }
      ],
      "name": "postOp",
      "outputs": [],
      "stateMutability": "nonpayable",
      "type": "function"
    },
    {
      "inputs": [],
      "name": "renounceOwnership",
      "outputs": [],
      "stateMutability": "nonpayable",
      "type": "function"
    },
    {
      "inputs": [
        {
          "internalType": "address",
          "name": "newBeneficiary",
          "type": "address"
        }
      ],
      "name": "setBeneficiary",
      "outputs": [],
      "stateMutability": "nonpayable",
      "type": "function"
    },
    {
      "inputs": [
        {
          "internalType": "contract IERC20",
          "name": "token",
          "type": "address"
        },
        {
          "internalType": "contract LuminexOracle",
          "name": "oracle",
          "type": "address"
        }
      ],
      "name": "setOracle",
      "outputs": [],
      "stateMutability": "nonpayable",
      "type": "function"
    },
    {
      "inputs": [
        {
          "internalType": "contract IERC20",
          "name": "token",
          "type": "address"
        },
        {
          "internalType": "address payable",
          "name": "to",
          "type": "address"
        }
      ],
      "name": "skim",
      "outputs": [],
      "stateMutability": "nonpayable",
      "type": "function"
    },
    {
      "inputs": [
        {
          "internalType": "address payable",
          "name": "to",
          "type": "address"
        }
      ],
      "name": "skim",
      "outputs": [],
      "stateMutability": "nonpayable",
      "type": "function"
    },
    {
      "inputs": [
        {
          "internalType": "contract IERC20",
          "name": "_token",
          "type": "address"
        },
        {
          "internalType": "uint256",
          "name": "_minNative",
          "type": "uint256"
        }
      ],
      "name": "tokensRequiredForNative",
      "outputs": [
        {
          "internalType": "uint256",
          "name": "_tokenRequired",
          "type": "uint256"
        }
      ],
      "stateMutability": "view",
      "type": "function"
    },
    {
      "inputs": [
        {
          "internalType": "address",
          "name": "newOwner",
          "type": "address"
        }
      ],
      "name": "transferOwnership",
      "outputs": [],
      "stateMutability": "nonpayable",
      "type": "function"
    },
    {
      "inputs": [],
      "name": "unlockStake",
      "outputs": [],
      "stateMutability": "nonpayable",
      "type": "function"
    },
    {
      "inputs": [
        {
          "components": [
            {
              "internalType": "address",
              "name": "sender",
              "type": "address"
            },
            {
              "internalType": "uint256",
              "name": "nonce",
              "type": "uint256"
            },
            {
              "internalType": "bytes",
              "name": "initCode",
              "type": "bytes"
            },
            {
              "internalType": "bytes",
              "name": "callData",
              "type": "bytes"
            },
            {
              "internalType": "uint256",
              "name": "callGasLimit",
              "type": "uint256"
            },
            {
              "internalType": "uint256",
              "name": "verificationGasLimit",
              "type": "uint256"
            },
            {
              "internalType": "uint256",
              "name": "preVerificationGas",
              "type": "uint256"
            },
            {
              "internalType": "uint256",
              "name": "maxFeePerGas",
              "type": "uint256"
            },
            {
              "internalType": "uint256",
              "name": "maxPriorityFeePerGas",
              "type": "uint256"
            },
            {
              "internalType": "bytes",
              "name": "paymasterAndData",
              "type": "bytes"
            },
            {
              "internalType": "bytes",
              "name": "signature",
              "type": "bytes"
            }
          ],
          "internalType": "struct UserOperation",
          "name": "userOp",
          "type": "tuple"
        },
        {
          "internalType": "bytes32",
          "name": "userOpHash",
          "type": "bytes32"
        },
        {
          "internalType": "uint256",
          "name": "maxCost",
          "type": "uint256"
        }
      ],
      "name": "validatePaymasterUserOp",
      "outputs": [
        {
          "internalType": "bytes",
          "name": "context",
          "type": "bytes"
        },
        {
          "internalType": "uint256",
          "name": "validationData",
          "type": "uint256"
        }
      ],
      "stateMutability": "nonpayable",
      "type": "function"
    },
    {
      "inputs": [
        {
          "internalType": "address payable",
          "name": "withdrawAddress",
          "type": "address"
        }
      ],
      "name": "withdrawStake",
      "outputs": [],
      "stateMutability": "nonpayable",
      "type": "function"
    },
    {
      "inputs": [
        {
          "internalType": "address payable",
          "name": "withdrawAddress",
          "type": "address"
        },
        {
          "internalType": "uint256",
          "name": "amount",
          "type": "uint256"
        }
      ],
      "name": "withdrawTo",
      "outputs": [],
      "stateMutability": "nonpayable",
      "type": "function"
    }
  ],
  "transactionHash": "0x88568c2b4b0f4aa0f744ea73fde8d03798e9df589c5dca1a90118724d93a4bd7",
  "args": [
    "0x4CD725954006cB9d24a4b030DD7E09A3E5FfC843",
    "0x9D3FEF5d6909Db1d3473849D33D052574f78FdCf",
    "0xB759a0fbc1dA517aF257D5Cf039aB4D86dFB3b94"
  ],
  "numDeployments": 4,
  "solcInputHash": "f9e90390a1cd22accad1c906d9f23310",
  "bytecode": "0x60c06040523480156200001157600080fd5b50604051620022f6380380620022f6833981016040819052620000349162000138565b81818462000042336200007b565b6001600160a01b031660805262000059826200007b565b6200006482620000cb565b6001600160a01b031660a052506200018c92505050565b600080546001600160a01b038381166001600160a01b0319831681178455604051919092169283917f8be0079c531659141344cd1fd0a4f28419497f9722a3daafe3b4186f6b6457e09190a35050565b600180546001600160a01b0319166001600160a01b0383169081179091556040519081527f04d55a8be181fb8d75b76f2d48aa0b2ee40f47e53d6e61763eeeec46feea8a249060200160405180910390a150565b6001600160a01b03811681146200013557600080fd5b50565b6000806000606084860312156200014e57600080fd5b83516200015b816200011f565b60208501519093506200016e816200011f565b604085015190925062000181816200011f565b809150509250925092565b60805160a05161210c620001ea6000396000818161049301526107980152600081816103b50152818161053f0152818161061d015281816110620152818161117301528181611203015281816112b6015261170e015261210c6000f3fe60806040526004361061018b5760003560e01c8063a9a23409116100d6578063c399ec881161007f578063d999984d11610059578063d999984d14610481578063f2fde38b146104b5578063f465c77e146104d557600080fd5b8063c399ec881461042c578063d0e30db014610441578063d449300d1461044957600080fd5b8063bb9fe6bf116100b0578063bb9fe6bf146103d7578063bc25cf77146103ec578063c23a5cea1461040c57600080fd5b8063a9a2340914610340578063addd509914610360578063b0d691fe146103a357600080fd5b80635d1eedd7116101385780637472ff8e116101125780637472ff8e146102df578063796d4371146102ff5780638da5cb5b1461031557600080fd5b80635d1eedd71461028a578063712b772f146102aa578063715018a6146102ca57600080fd5b806338af3eed1161016957806338af3eed146101e55780635066f84c1461023c5780635c38eb3a1461026a57600080fd5b80630396cb60146101905780631c31f710146101a5578063205c2878146101c5575b600080fd5b6101a361019e366004611ca1565b610503565b005b3480156101b157600080fd5b506101a36101c0366004611cf0565b6105b5565b3480156101d157600080fd5b506101a36101e0366004611d0d565b6105c9565b3480156101f157600080fd5b506001546102129073ffffffffffffffffffffffffffffffffffffffff1681565b60405173ffffffffffffffffffffffffffffffffffffffff90911681526020015b60405180910390f35b34801561024857600080fd5b5061025c610257366004611d0d565b610661565b604051908152602001610233565b34801561027657600080fd5b506101a3610285366004611d39565b61078e565b34801561029657600080fd5b506101a36102a5366004611d72565b610a6e565b3480156102b657600080fd5b506101a36102c5366004611d39565b610f05565b3480156102d657600080fd5b506101a3610fc3565b3480156102eb57600080fd5b506101a36102fa366004611d39565b610fd7565b34801561030b57600080fd5b5061025c613a9881565b34801561032157600080fd5b5060005473ffffffffffffffffffffffffffffffffffffffff16610212565b34801561034c57600080fd5b506101a361035b366004611dbc565b61103e565b34801561036c57600080fd5b5061021261037b366004611cf0565b60026020526000908152604090205473ffffffffffffffffffffffffffffffffffffffff1681565b3480156103af57600080fd5b506102127f000000000000000000000000000000000000000000000000000000000000000081565b3480156103e357600080fd5b506101a3611058565b3480156103f857600080fd5b506101a3610407366004611cf0565b6110dc565b34801561041857600080fd5b506101a3610427366004611cf0565b611126565b34801561043857600080fd5b5061025c6111d2565b6101a3611288565b34801561045557600080fd5b5061025c610464366004611d39565b600360209081526000928352604080842090915290825290205481565b34801561048d57600080fd5b506102127f000000000000000000000000000000000000000000000000000000000000000081565b3480156104c157600080fd5b506101a36104d0366004611cf0565b611310565b3480156104e157600080fd5b506104f56104f0366004611e4b565b6113c4565b604051610233929190611f0d565b61050b6113e7565b6040517f0396cb6000000000000000000000000000000000000000000000000000000000815263ffffffff821660048201527f000000000000000000000000000000000000000000000000000000000000000073ffffffffffffffffffffffffffffffffffffffff1690630396cb609034906024016000604051808303818588803b15801561059957600080fd5b505af11580156105ad573d6000803e3d6000fd5b505050505050565b6105bd6113e7565b6105c681611468565b50565b6105d16113e7565b6040517f205c287800000000000000000000000000000000000000000000000000000000815273ffffffffffffffffffffffffffffffffffffffff8381166004830152602482018390527f0000000000000000000000000000000000000000000000000000000000000000169063205c287890604401600060405180830381600087803b15801561059957600080fd5b73ffffffffffffffffffffffffffffffffffffffff808316600090815260026020526040812054909116806106f7576040517f08c379a000000000000000000000000000000000000000000000000000000000815260206004820152601b60248201527f49582d4558333020546f6b656e206e6f7420737570706f72746564000000000060448201526064015b60405180910390fd5b6040517fde1b3bf90000000000000000000000000000000000000000000000000000000081526004810184905273ffffffffffffffffffffffffffffffffffffffff82169063de1b3bf990602401602060405180830381865afa158015610762573d6000803e3d6000fd5b505050506040513d601f19601f820116820180604052508101906107869190611f2f565b949350505050565b6107966113e7565b7f000000000000000000000000000000000000000000000000000000000000000073ffffffffffffffffffffffffffffffffffffffff168173ffffffffffffffffffffffffffffffffffffffff16630dfe16816040518163ffffffff1660e01b8152600401602060405180830381865afa158015610818573d6000803e3d6000fd5b505050506040513d601f19601f8201168201806040525081019061083c9190611f48565b73ffffffffffffffffffffffffffffffffffffffff16146108df576040517f08c379a000000000000000000000000000000000000000000000000000000000815260206004820152602760248201527f49582d4558323020746f6b656e302073686f756c64206265205752415050454460448201527f5f4e41544956450000000000000000000000000000000000000000000000000060648201526084016106ee565b8173ffffffffffffffffffffffffffffffffffffffff168173ffffffffffffffffffffffffffffffffffffffff1663d21220a76040518163ffffffff1660e01b8152600401602060405180830381865afa158015610941573d6000803e3d6000fd5b505050506040513d601f19601f820116820180604052508101906109659190611f48565b73ffffffffffffffffffffffffffffffffffffffff16146109e2576040517f08c379a000000000000000000000000000000000000000000000000000000000815260206004820152601d60248201527f49582d4558323120746f6b656e3120646f6573206e6f74206d6174636800000060448201526064016106ee565b73ffffffffffffffffffffffffffffffffffffffff82811660008181526002602090815260409182902080547fffffffffffffffffffffffff0000000000000000000000000000000000000000169486169485179055905192835290917fc1d3048301c0d23629a2532c8defa6d68f8e1a0e4157918769e9fb1b2eeb888e910160405180910390a25050565b73ffffffffffffffffffffffffffffffffffffffff8085166000908152600260205260409020541680610afd576040517f08c379a000000000000000000000000000000000000000000000000000000000815260206004820152601b60248201527f49582d4558313020546f6b656e206e6f7420737570706f72746564000000000060448201526064016106ee565b82471015610b67576040517f08c379a000000000000000000000000000000000000000000000000000000000815260206004820152601c60248201527f49582d45583131204e6f7420656e6f756768206c69717569646974790000000060448201526064016106ee565b6040517f906691ff0000000000000000000000000000000000000000000000000000000081526004810185905260009073ffffffffffffffffffffffffffffffffffffffff83169063906691ff90602401602060405180830381865afa158015610bd5573d6000803e3d6000fd5b505050506040513d601f19601f82011682018060405250810190610bf99190611f2f565b905083811015610c65576040517f08c379a000000000000000000000000000000000000000000000000000000000815260206004820152601d60248201527f49582d45583132204e617469766520707269636520746f6f206869676800000060448201526064016106ee565b6001546040517f70a0823100000000000000000000000000000000000000000000000000000000815273ffffffffffffffffffffffffffffffffffffffff91821660048201526000918816906370a0823190602401602060405180830381865afa158015610cd7573d6000803e3d6000fd5b505050506040513d601f19601f82011682018060405250810190610cfb9190611f2f565b9050610d253360015473ffffffffffffffffffffffffffffffffffffffff8a8116929116896114e1565b6001546040517f70a0823100000000000000000000000000000000000000000000000000000000815273ffffffffffffffffffffffffffffffffffffffff91821660048201526000918916906370a0823190602401602060405180830381865afa158015610d97573d6000803e3d6000fd5b505050506040513d601f19601f82011682018060405250810190610dbb9190611f2f565b905086610dc88383611f94565b1015610e30576040517f08c379a000000000000000000000000000000000000000000000000000000000815260206004820152601c60248201527f49582d4558313320546f6b656e206e6f742073656e742066756c6c790000000060448201526064016106ee565b505060008373ffffffffffffffffffffffffffffffffffffffff168260405160006040518083038185875af1925050503d8060008114610e8c576040519150601f19603f3d011682016040523d82523d6000602084013e610e91565b606091505b5050905080610efc576040517f08c379a000000000000000000000000000000000000000000000000000000000815260206004820152601660248201527f49582d45583134204661696c656420746f2073656e640000000000000000000060448201526064016106ee565b50505050505050565b610f0d6113e7565b6040517f70a08231000000000000000000000000000000000000000000000000000000008152306004820152610fbf90829073ffffffffffffffffffffffffffffffffffffffff8516906370a0823190602401602060405180830381865afa158015610f7d573d6000803e3d6000fd5b505050506040513d601f19601f82011682018060405250810190610fa19190611f2f565b73ffffffffffffffffffffffffffffffffffffffff851691906115bd565b5050565b610fcb6113e7565b610fd56000611613565b565b73ffffffffffffffffffffffffffffffffffffffff82811660009081526003602090815260408083209385168352929052205461102d3373ffffffffffffffffffffffffffffffffffffffff84169030846114e1565b61103983836000611688565b505050565b6110466116f6565b61105284848484611795565b50505050565b6110606113e7565b7f000000000000000000000000000000000000000000000000000000000000000073ffffffffffffffffffffffffffffffffffffffff1663bb9fe6bf6040518163ffffffff1660e01b8152600401600060405180830381600087803b1580156110c857600080fd5b505af1158015611052573d6000803e3d6000fd5b6110e46113e7565b60405173ffffffffffffffffffffffffffffffffffffffff8216904780156108fc02916000818181858888f19350505050158015610fbf573d6000803e3d6000fd5b61112e6113e7565b6040517fc23a5cea00000000000000000000000000000000000000000000000000000000815273ffffffffffffffffffffffffffffffffffffffff82811660048301527f0000000000000000000000000000000000000000000000000000000000000000169063c23a5cea90602401600060405180830381600087803b1580156111b757600080fd5b505af11580156111cb573d6000803e3d6000fd5b5050505050565b6040517f70a082310000000000000000000000000000000000000000000000000000000081523060048201526000907f000000000000000000000000000000000000000000000000000000000000000073ffffffffffffffffffffffffffffffffffffffff16906370a0823190602401602060405180830381865afa15801561125f573d6000803e3d6000fd5b505050506040513d601f19601f820116820180604052508101906112839190611f2f565b905090565b6040517fb760faf90000000000000000000000000000000000000000000000000000000081523060048201527f000000000000000000000000000000000000000000000000000000000000000073ffffffffffffffffffffffffffffffffffffffff169063b760faf99034906024016000604051808303818588803b1580156111b757600080fd5b6113186113e7565b73ffffffffffffffffffffffffffffffffffffffff81166113bb576040517f08c379a000000000000000000000000000000000000000000000000000000000815260206004820152602660248201527f4f776e61626c653a206e6577206f776e657220697320746865207a65726f206160448201527f646472657373000000000000000000000000000000000000000000000000000060648201526084016106ee565b6105c681611613565b606060006113d06116f6565b6113db85858561185d565b91509150935093915050565b60005473ffffffffffffffffffffffffffffffffffffffff163314610fd5576040517f08c379a000000000000000000000000000000000000000000000000000000000815260206004820181905260248201527f4f776e61626c653a2063616c6c6572206973206e6f7420746865206f776e657260448201526064016106ee565b600180547fffffffffffffffffffffffff00000000000000000000000000000000000000001673ffffffffffffffffffffffffffffffffffffffff83169081179091556040519081527f04d55a8be181fb8d75b76f2d48aa0b2ee40f47e53d6e61763eeeec46feea8a249060200160405180910390a150565b60405173ffffffffffffffffffffffffffffffffffffffff808516602483015283166044820152606481018290526110529085907f23b872dd00000000000000000000000000000000000000000000000000000000906084015b604080517fffffffffffffffffffffffffffffffffffffffffffffffffffffffffffffffe08184030181529190526020810180517bffffffffffffffffffffffffffffffffffffffffffffffffffffffff167fffffffff0000000000000000000000000000000000000000000000000000000090931692909217909152611a21565b60405173ffffffffffffffffffffffffffffffffffffffff83166024820152604481018290526110399084907fa9059cbb000000000000000000000000000000000000000000000000000000009060640161153b565b6000805473ffffffffffffffffffffffffffffffffffffffff8381167fffffffffffffffffffffffff0000000000000000000000000000000000000000831681178455604051919092169283917f8be0079c531659141344cd1fd0a4f28419497f9722a3daafe3b4186f6b6457e09190a35050565b73ffffffffffffffffffffffffffffffffffffffff83811660008181526003602090815260408083209487168084529482529182902085905590518481527fcaa220db0564bc842e2511b01888e58b9dffd44ad8011498e046c93dd9c18337910160405180910390a3505050565b3373ffffffffffffffffffffffffffffffffffffffff7f00000000000000000000000000000000000000000000000000000000000000001614610fd5576040517f08c379a000000000000000000000000000000000000000000000000000000000815260206004820152601560248201527f53656e646572206e6f7420456e747279506f696e74000000000000000000000060448201526064016106ee565b6000806117a484860186611d39565b73ffffffffffffffffffffffffffffffffffffffff8083166000908152600360209081526040808320938516835292905290812054929450909250816117f084610257613a9889611fad565b6117fa9190611fad565b9050600288600281111561181057611810611fc0565b0361182557611820848483611688565b611853565b61184773ffffffffffffffffffffffffffffffffffffffff84168530846114e1565b61185384846000611688565b5050505050505050565b606060008080611871610120880188611fef565b61187f91601490829061205b565b81019061188c9190611d0d565b909250905060006003816118a360208b018b611cf0565b73ffffffffffffffffffffffffffffffffffffffff908116825260208083019390935260409182016000908120918716815292529020546118e48488610661565b6118ee9190611fad565b90508181111561195a576040517f08c379a000000000000000000000000000000000000000000000000000000000815260206004820152601560248201527f49582d545031312061626f7665206d617820706179000000000000000000000060448201526064016106ee565b613a988860a00135116119c9576040517f08c379a000000000000000000000000000000000000000000000000000000000815260206004820152601d60248201527f49582d54503132206e6f7420656e6f75676820666f7220706f73744f7000000060448201526064016106ee565b600093506119da6020890189611cf0565b6040805173ffffffffffffffffffffffffffffffffffffffff9283166020820152918516908201526060016040516020818303038152906040529450505050935093915050565b6000611a83826040518060400160405280602081526020017f5361666545524332303a206c6f772d6c6576656c2063616c6c206661696c65648152508573ffffffffffffffffffffffffffffffffffffffff16611b309092919063ffffffff16565b9050805160001480611aa4575080806020019051810190611aa49190612085565b611039576040517f08c379a000000000000000000000000000000000000000000000000000000000815260206004820152602a60248201527f5361666545524332303a204552433230206f7065726174696f6e20646964206e60448201527f6f7420737563636565640000000000000000000000000000000000000000000060648201526084016106ee565b60606107868484600085856000808673ffffffffffffffffffffffffffffffffffffffff168587604051611b6491906120a7565b60006040518083038185875af1925050503d8060008114611ba1576040519150601f19603f3d011682016040523d82523d6000602084013e611ba6565b606091505b5091509150611bb787838387611bc2565b979650505050505050565b60608315611c58578251600003611c515773ffffffffffffffffffffffffffffffffffffffff85163b611c51576040517f08c379a000000000000000000000000000000000000000000000000000000000815260206004820152601d60248201527f416464726573733a2063616c6c20746f206e6f6e2d636f6e747261637400000060448201526064016106ee565b5081610786565b6107868383815115611c6d5781518083602001fd5b806040517f08c379a00000000000000000000000000000000000000000000000000000000081526004016106ee91906120c3565b600060208284031215611cb357600080fd5b813563ffffffff81168114611cc757600080fd5b9392505050565b73ffffffffffffffffffffffffffffffffffffffff811681146105c657600080fd5b600060208284031215611d0257600080fd5b8135611cc781611cce565b60008060408385031215611d2057600080fd5b8235611d2b81611cce565b946020939093013593505050565b60008060408385031215611d4c57600080fd5b8235611d5781611cce565b91506020830135611d6781611cce565b809150509250929050565b60008060008060808587031215611d8857600080fd5b8435611d9381611cce565b935060208501359250604085013591506060850135611db181611cce565b939692955090935050565b60008060008060608587031215611dd257600080fd5b843560038110611de157600080fd5b9350602085013567ffffffffffffffff80821115611dfe57600080fd5b818701915087601f830112611e1257600080fd5b813581811115611e2157600080fd5b886020828501011115611e3357600080fd5b95986020929092019750949560400135945092505050565b600080600060608486031215611e6057600080fd5b833567ffffffffffffffff811115611e7757600080fd5b84016101608187031215611e8a57600080fd5b95602085013595506040909401359392505050565b60005b83811015611eba578181015183820152602001611ea2565b50506000910152565b60008151808452611edb816020860160208601611e9f565b601f017fffffffffffffffffffffffffffffffffffffffffffffffffffffffffffffffe0169290920160200192915050565b604081526000611f206040830185611ec3565b90508260208301529392505050565b600060208284031215611f4157600080fd5b5051919050565b600060208284031215611f5a57600080fd5b8151611cc781611cce565b7f4e487b7100000000000000000000000000000000000000000000000000000000600052601160045260246000fd5b81810381811115611fa757611fa7611f65565b92915050565b80820180821115611fa757611fa7611f65565b7f4e487b7100000000000000000000000000000000000000000000000000000000600052602160045260246000fd5b60008083357fffffffffffffffffffffffffffffffffffffffffffffffffffffffffffffffe184360301811261202457600080fd5b83018035915067ffffffffffffffff82111561203f57600080fd5b60200191503681900382131561205457600080fd5b9250929050565b6000808585111561206b57600080fd5b8386111561207857600080fd5b5050820193919092039150565b60006020828403121561209757600080fd5b81518015158114611cc757600080fd5b600082516120b9818460208701611e9f565b9190910192915050565b602081526000611cc76020830184611ec356fea2646970667358221220663fa7c19fbf6b24a404521e94f3eabf531f13f6142f29eb6090d0f8e649b9cf64736f6c63430008170033",
  "devdoc": {
    "kind": "dev",
    "methods": {
      "addStake(uint32)": {
        "params": {
          "unstakeDelaySec": "- the unstake delay for this paymaster. Can only be increased."
        }
      },
      "owner()": {
        "details": "Returns the address of the current owner."
      },
      "postOp(uint8,bytes,uint256)": {
        "params": {
          "actualGasCost": "- actual gas used so far (without this postOp call).",
          "context": "- the context value returned by validatePaymasterUserOp",
          "mode": "enum with the following options:      opSucceeded - user operation succeeded.      opReverted  - user op reverted. still has to pay for gas.      postOpReverted - user op succeeded, but caused postOp (in mode=opSucceeded) to revert.                       Now this is the 2nd call, after user's op was deliberately reverted."
        }
      },
      "renounceOwnership()": {
        "details": "Leaves the contract without owner. It will not be possible to call `onlyOwner` functions. Can only be called by the current owner. NOTE: Renouncing ownership will leave the contract without an owner, thereby disabling any functionality that is only available to the owner."
      },
      "transferOwnership(address)": {
        "details": "Transfers ownership of the contract to a new account (`newOwner`). Can only be called by the current owner."
      },
      "validatePaymasterUserOp((address,uint256,bytes,bytes,uint256,uint256,uint256,uint256,uint256,bytes,bytes),bytes32,uint256)": {
        "params": {
          "maxCost": "the maximum cost of this transaction (based on maximum gas and gas price from userOp)",
          "userOp": "the user operation",
          "userOpHash": "hash of the user's request data."
        },
        "returns": {
          "context": "value to send to a postOp      zero length to signify postOp is not required.",
          "validationData": "signature and time-range of this operation, encoded the same as the return value of validateUserOperation      <20-byte> sigAuthorizer - 0 for valid signature, 1 to mark signature failure,         otherwise, an address of an \"authorizer\" contract.      <6-byte> validUntil - last timestamp this operation is valid. 0 for \"indefinite\"      <6-byte> validAfter - first timestamp this operation is valid      Note that the validation code cannot use block.timestamp (or block.number) directly."
        }
      },
      "withdrawStake(address)": {
        "params": {
          "withdrawAddress": "the address to send withdrawn value."
        }
      },
      "withdrawTo(address,uint256)": {
        "params": {
          "amount": "to withdraw",
          "withdrawAddress": "target to send to"
        }
      }
    },
    "version": 1
  },
  "userdoc": {
    "kind": "user",
    "methods": {
      "addStake(uint32)": {
        "notice": "add stake for this paymaster. This method can also carry eth value to add to the current stake."
      },
      "deposit()": {
        "notice": "add a deposit for this paymaster, used for paying for transaction fees"
      },
      "getDeposit()": {
        "notice": "return current paymaster's deposit on the entryPoint."
      },
      "postOp(uint8,bytes,uint256)": {
        "notice": "post-operation handler. Must verify sender is the entryPoint"
      },
      "unlockStake()": {
        "notice": "unlock the stake, in order to withdraw it. The paymaster can't serve requests once unlocked, until it calls addStake again"
      },
      "validatePaymasterUserOp((address,uint256,bytes,bytes,uint256,uint256,uint256,uint256,uint256,bytes,bytes),bytes32,uint256)": {
        "notice": "payment validation: check if paymaster agrees to pay. Must verify sender is the entryPoint. Revert to reject this request. Note that bundlers will reject this method if it changes the state, unless the paymaster is trusted (whitelisted) The paymaster pre-pays using its deposit, and receive back a refund after the postOp method returns."
      },
      "withdrawStake(address)": {
        "notice": "withdraw the entire paymaster's stake. stake must be unlocked first (and then wait for the unstakeDelay to be over)"
      },
      "withdrawTo(address,uint256)": {
        "notice": "withdraw value from the deposit"
      }
    },
    "notice": "A sample paymaster that uses external service to decide whether to pay for the UserOp. The paymaster trusts an external signer to sign the transaction. The calling user must pass the UserOp to that external signer first, which performs whatever off-chain verification before signing the UserOp. Note that this signature is NOT a replacement for the account-specific signature: - the paymaster checks a signature to agree to PAY for GAS. - the account checks a signature to prove identity and account ownership.",
    "version": 1
  },
  "storageLayout": {
    "storage": [
      {
        "astId": 534,
        "contract": "contracts/illuminex/LuminexTokenPaymaster.sol:LuminexTokenPaymaster",
        "label": "_owner",
        "offset": 0,
        "slot": "0",
        "type": "t_address"
      },
      {
        "astId": 5360,
        "contract": "contracts/illuminex/LuminexTokenPaymaster.sol:LuminexTokenPaymaster",
        "label": "beneficiary",
        "offset": 0,
        "slot": "1",
        "type": "t_address"
      },
      {
        "astId": 5366,
        "contract": "contracts/illuminex/LuminexTokenPaymaster.sol:LuminexTokenPaymaster",
        "label": "oracles",
        "offset": 0,
        "slot": "2",
        "type": "t_mapping(t_contract(IERC20)1436,t_contract(LuminexOracle)5670)"
      },
      {
        "astId": 5710,
        "contract": "contracts/illuminex/LuminexTokenPaymaster.sol:LuminexTokenPaymaster",
        "label": "debt",
        "offset": 0,
        "slot": "3",
        "type": "t_mapping(t_address,t_mapping(t_contract(IERC20)1436,t_uint256))"
      }
    ],
    "types": {
      "t_address": {
        "encoding": "inplace",
        "label": "address",
        "numberOfBytes": "20"
      },
      "t_contract(IERC20)1436": {
        "encoding": "inplace",
        "label": "contract IERC20",
        "numberOfBytes": "20"
      },
      "t_contract(LuminexOracle)5670": {
        "encoding": "inplace",
        "label": "contract LuminexOracle",
        "numberOfBytes": "20"
      },
      "t_mapping(t_address,t_mapping(t_contract(IERC20)1436,t_uint256))": {
        "encoding": "mapping",
        "key": "t_address",
        "label": "mapping(address => mapping(contract IERC20 => uint256))",
        "numberOfBytes": "32",
        "value": "t_mapping(t_contract(IERC20)1436,t_uint256)"
      },
      "t_mapping(t_contract(IERC20)1436,t_contract(LuminexOracle)5670)": {
        "encoding": "mapping",
        "key": "t_contract(IERC20)1436",
        "label": "mapping(contract IERC20 => contract LuminexOracle)",
        "numberOfBytes": "32",
        "value": "t_contract(LuminexOracle)5670"
      },
      "t_mapping(t_contract(IERC20)1436,t_uint256)": {
        "encoding": "mapping",
        "key": "t_contract(IERC20)1436",
        "label": "mapping(contract IERC20 => uint256)",
        "numberOfBytes": "32",
        "value": "t_uint256"
      },
      "t_uint256": {
        "encoding": "inplace",
        "label": "uint256",
        "numberOfBytes": "32"
      }
    }
  }
}